{
	"QitePool.sol": {
		"QitePool": {
			"abi": [
				{
					"inputs": [
						{
							"internalType": "address",
							"name": "_token1",
							"type": "address"
						},
						{
							"internalType": "address",
							"name": "_token2",
							"type": "address"
						}
					],
					"stateMutability": "nonpayable",
					"type": "constructor"
				},
				{
					"inputs": [
						{
							"internalType": "uint256",
							"name": "amountToken1",
							"type": "uint256"
						},
						{
							"internalType": "uint256",
							"name": "amountToken2",
							"type": "uint256"
						}
					],
					"name": "addLiquidity",
					"outputs": [],
					"stateMutability": "nonpayable",
					"type": "function"
				},
				{
					"inputs": [],
					"name": "constantx",
					"outputs": [
						{
							"internalType": "uint256",
							"name": "",
							"type": "uint256"
						}
					],
					"stateMutability": "view",
					"type": "function"
				},
				{
					"inputs": [],
					"name": "liquiditytoken",
					"outputs": [
						{
							"internalType": "contract QiteLiquidityToken",
							"name": "",
							"type": "address"
						}
					],
					"stateMutability": "view",
					"type": "function"
				},
				{
					"inputs": [],
					"name": "reserve1",
					"outputs": [
						{
							"internalType": "uint256",
							"name": "",
							"type": "uint256"
						}
					],
					"stateMutability": "view",
					"type": "function"
				},
				{
					"inputs": [],
					"name": "reserve2",
					"outputs": [
						{
							"internalType": "uint256",
							"name": "",
							"type": "uint256"
						}
					],
					"stateMutability": "view",
					"type": "function"
				},
				{
					"inputs": [],
					"name": "token1",
					"outputs": [
						{
							"internalType": "address",
							"name": "",
							"type": "address"
						}
					],
					"stateMutability": "view",
					"type": "function"
				},
				{
					"inputs": [],
					"name": "token2",
					"outputs": [
						{
							"internalType": "address",
							"name": "",
							"type": "address"
						}
					],
					"stateMutability": "view",
					"type": "function"
				}
			],
			"devdoc": {
				"kind": "dev",
				"methods": {},
				"version": 1
			},
			"evm": {
				"assembly": "    /* \"QitePool.sol\":97:559  contract QitePool {... */\n  mstore(0x40, 0x80)\n    /* \"QitePool.sol\":326:471  constructor (address _token1 , address _token2){... */\n  callvalue\n  dup1\n  iszero\n  tag_1\n  jumpi\n  0x00\n  dup1\n  revert\ntag_1:\n  pop\n  mload(0x40)\n  sub(codesize, bytecodeSize)\n  dup1\n  bytecodeSize\n  dup4\n  codecopy\n  dup2\n  dup2\n  add\n  0x40\n  mstore\n  dup2\n  add\n  swap1\n  tag_2\n  swap2\n  swap1\n  tag_3\n  jump\t// in\ntag_2:\n    /* \"QitePool.sol\":387:394  _token1 */\n  dup2\n    /* \"QitePool.sol\":378:384  token1 */\n  0x00\n  dup1\n    /* \"QitePool.sol\":378:394  token1 = _token1 */\n  0x0100\n  exp\n  dup2\n  sload\n  dup2\n  0xffffffffffffffffffffffffffffffffffffffff\n  mul\n  not\n  and\n  swap1\n  dup4\n  0xffffffffffffffffffffffffffffffffffffffff\n  and\n  mul\n  or\n  swap1\n  sstore\n  pop\n    /* \"QitePool.sol\":409:416  _token2 */\n  dup1\n    /* \"QitePool.sol\":400:406  token2 */\n  0x01\n  0x00\n    /* \"QitePool.sol\":400:416  token2 = _token2 */\n  0x0100\n  exp\n  dup2\n  sload\n  dup2\n  0xffffffffffffffffffffffffffffffffffffffff\n  mul\n  not\n  and\n  swap1\n  dup4\n  0xffffffffffffffffffffffffffffffffffffffff\n  and\n  mul\n  or\n  swap1\n  sstore\n  pop\n    /* \"QitePool.sol\":439:463  new QiteLiquidityToken() */\n  mload(0x40)\n  tag_6\n  swap1\n  tag_7\n  jump\t// in\ntag_6:\n  mload(0x40)\n  dup1\n  swap2\n  sub\n  swap1\n  0x00\n  create\n  dup1\n  iszero\n  dup1\n  iszero\n  tag_8\n  jumpi\n  returndatasize\n  0x00\n  dup1\n  returndatacopy\n  revert(0x00, returndatasize)\ntag_8:\n  pop\n    /* \"QitePool.sol\":422:436  liquiditytoken */\n  0x05\n  0x00\n    /* \"QitePool.sol\":422:463  liquiditytoken = new QiteLiquidityToken() */\n  0x0100\n  exp\n  dup2\n  sload\n  dup2\n  0xffffffffffffffffffffffffffffffffffffffff\n  mul\n  not\n  and\n  swap1\n  dup4\n  0xffffffffffffffffffffffffffffffffffffffff\n  and\n  mul\n  or\n  swap1\n  sstore\n  pop\n    /* \"QitePool.sol\":326:471  constructor (address _token1 , address _token2){... */\n  pop\n  pop\n    /* \"QitePool.sol\":97:559  contract QitePool {... */\n  jump(tag_9)\ntag_7:\n  dataSize(sub_1)\n  dup1\n  dataOffset(sub_1)\n  dup4\n  codecopy\n  add\n  swap1\n  jump\t// out\n    /* \"#utility.yul\":88:205   */\ntag_11:\n    /* \"#utility.yul\":197:198   */\n  0x00\n    /* \"#utility.yul\":194:195   */\n  dup1\n    /* \"#utility.yul\":187:199   */\n  revert\n    /* \"#utility.yul\":334:460   */\ntag_13:\n    /* \"#utility.yul\":371:378   */\n  0x00\n    /* \"#utility.yul\":411:453   */\n  0xffffffffffffffffffffffffffffffffffffffff\n    /* \"#utility.yul\":404:409   */\n  dup3\n    /* \"#utility.yul\":400:454   */\n  and\n    /* \"#utility.yul\":389:454   */\n  swap1\n  pop\n    /* \"#utility.yul\":334:460   */\n  swap2\n  swap1\n  pop\n  jump\t// out\n    /* \"#utility.yul\":466:562   */\ntag_14:\n    /* \"#utility.yul\":503:510   */\n  0x00\n    /* \"#utility.yul\":532:556   */\n  tag_23\n    /* \"#utility.yul\":550:555   */\n  dup3\n    /* \"#utility.yul\":532:556   */\n  tag_13\n  jump\t// in\ntag_23:\n    /* \"#utility.yul\":521:556   */\n  swap1\n  pop\n    /* \"#utility.yul\":466:562   */\n  swap2\n  swap1\n  pop\n  jump\t// out\n    /* \"#utility.yul\":568:690   */\ntag_15:\n    /* \"#utility.yul\":641:665   */\n  tag_25\n    /* \"#utility.yul\":659:664   */\n  dup2\n    /* \"#utility.yul\":641:665   */\n  tag_14\n  jump\t// in\ntag_25:\n    /* \"#utility.yul\":634:639   */\n  dup2\n    /* \"#utility.yul\":631:666   */\n  eq\n    /* \"#utility.yul\":621:684   */\n  tag_26\n  jumpi\n    /* \"#utility.yul\":680:681   */\n  0x00\n    /* \"#utility.yul\":677:678   */\n  dup1\n    /* \"#utility.yul\":670:682   */\n  revert\n    /* \"#utility.yul\":621:684   */\ntag_26:\n    /* \"#utility.yul\":568:690   */\n  pop\n  jump\t// out\n    /* \"#utility.yul\":696:839   */\ntag_16:\n    /* \"#utility.yul\":753:758   */\n  0x00\n    /* \"#utility.yul\":784:790   */\n  dup2\n    /* \"#utility.yul\":778:791   */\n  mload\n    /* \"#utility.yul\":769:791   */\n  swap1\n  pop\n    /* \"#utility.yul\":800:833   */\n  tag_28\n    /* \"#utility.yul\":827:832   */\n  dup2\n    /* \"#utility.yul\":800:833   */\n  tag_15\n  jump\t// in\ntag_28:\n    /* \"#utility.yul\":696:839   */\n  swap3\n  swap2\n  pop\n  pop\n  jump\t// out\n    /* \"#utility.yul\":845:1352   */\ntag_3:\n    /* \"#utility.yul\":924:930   */\n  0x00\n    /* \"#utility.yul\":932:938   */\n  dup1\n    /* \"#utility.yul\":981:983   */\n  0x40\n    /* \"#utility.yul\":969:978   */\n  dup4\n    /* \"#utility.yul\":960:967   */\n  dup6\n    /* \"#utility.yul\":956:979   */\n  sub\n    /* \"#utility.yul\":952:984   */\n  slt\n    /* \"#utility.yul\":949:1068   */\n  iszero\n  tag_30\n  jumpi\n    /* \"#utility.yul\":987:1066   */\n  tag_31\n  tag_11\n  jump\t// in\ntag_31:\n    /* \"#utility.yul\":949:1068   */\ntag_30:\n    /* \"#utility.yul\":1107:1108   */\n  0x00\n    /* \"#utility.yul\":1132:1196   */\n  tag_32\n    /* \"#utility.yul\":1188:1195   */\n  dup6\n    /* \"#utility.yul\":1179:1185   */\n  dup3\n    /* \"#utility.yul\":1168:1177   */\n  dup7\n    /* \"#utility.yul\":1164:1186   */\n  add\n    /* \"#utility.yul\":1132:1196   */\n  tag_16\n  jump\t// in\ntag_32:\n    /* \"#utility.yul\":1122:1196   */\n  swap3\n  pop\n    /* \"#utility.yul\":1078:1206   */\n  pop\n    /* \"#utility.yul\":1245:1247   */\n  0x20\n    /* \"#utility.yul\":1271:1335   */\n  tag_33\n    /* \"#utility.yul\":1327:1334   */\n  dup6\n    /* \"#utility.yul\":1318:1324   */\n  dup3\n    /* \"#utility.yul\":1307:1316   */\n  dup7\n    /* \"#utility.yul\":1303:1325   */\n  add\n    /* \"#utility.yul\":1271:1335   */\n  tag_16\n  jump\t// in\ntag_33:\n    /* \"#utility.yul\":1261:1335   */\n  swap2\n  pop\n    /* \"#utility.yul\":1216:1345   */\n  pop\n    /* \"#utility.yul\":845:1352   */\n  swap3\n  pop\n  swap3\n  swap1\n  pop\n  jump\t// out\n    /* \"QitePool.sol\":97:559  contract QitePool {... */\ntag_9:\n  dataSize(sub_0)\n  dup1\n  dataOffset(sub_0)\n  0x00\n  codecopy\n  0x00\n  return\nstop\n\nsub_0: assembly {\n        /* \"QitePool.sol\":97:559  contract QitePool {... */\n      mstore(0x40, 0x80)\n      callvalue\n      dup1\n      iszero\n      tag_1\n      jumpi\n      0x00\n      dup1\n      revert\n    tag_1:\n      pop\n      jumpi(tag_2, lt(calldatasize, 0x04))\n      shr(0xe0, calldataload(0x00))\n      dup1\n      0x5c0b9a2b\n      gt\n      tag_10\n      jumpi\n      dup1\n      0x5c0b9a2b\n      eq\n      tag_6\n      jumpi\n      dup1\n      0x9cd441da\n      eq\n      tag_7\n      jumpi\n      dup1\n      0xd0103aa3\n      eq\n      tag_8\n      jumpi\n      dup1\n      0xd21220a7\n      eq\n      tag_9\n      jumpi\n      jump(tag_2)\n    tag_10:\n      dup1\n      0x25be124e\n      eq\n      tag_3\n      jumpi\n      dup1\n      0x37526016\n      eq\n      tag_4\n      jumpi\n      dup1\n      0x5a76f25e\n      eq\n      tag_5\n      jumpi\n    tag_2:\n      0x00\n      dup1\n      revert\n        /* \"QitePool.sol\":150:171  address public token2 */\n    tag_3:\n      tag_11\n      tag_12\n      jump\t// in\n    tag_11:\n      mload(0x40)\n      tag_13\n      swap2\n      swap1\n      tag_14\n      jump\t// in\n    tag_13:\n      mload(0x40)\n      dup1\n      swap2\n      sub\n      swap1\n      return\n        /* \"QitePool.sol\":276:316  QiteLiquidityToken public liquiditytoken */\n    tag_4:\n      tag_15\n      tag_16\n      jump\t// in\n    tag_15:\n      mload(0x40)\n      tag_17\n      swap2\n      swap1\n      tag_18\n      jump\t// in\n    tag_17:\n      mload(0x40)\n      dup1\n      swap2\n      sub\n      swap1\n      return\n        /* \"QitePool.sol\":180:203  uint256 public reserve1 */\n    tag_5:\n      tag_19\n      tag_20\n      jump\t// in\n    tag_19:\n      mload(0x40)\n      tag_21\n      swap2\n      swap1\n      tag_22\n      jump\t// in\n    tag_21:\n      mload(0x40)\n      dup1\n      swap2\n      sub\n      swap1\n      return\n        /* \"QitePool.sol\":210:233  uint256 public reserve2 */\n    tag_6:\n      tag_23\n      tag_24\n      jump\t// in\n    tag_23:\n      mload(0x40)\n      tag_25\n      swap2\n      swap1\n      tag_22\n      jump\t// in\n    tag_25:\n      mload(0x40)\n      dup1\n      swap2\n      sub\n      swap1\n      return\n        /* \"QitePool.sol\":477:556  function addLiquidity (uint amountToken1 , uint amountToken2) external {... */\n    tag_7:\n      tag_26\n      0x04\n      dup1\n      calldatasize\n      sub\n      dup2\n      add\n      swap1\n      tag_27\n      swap2\n      swap1\n      tag_28\n      jump\t// in\n    tag_27:\n      tag_29\n      jump\t// in\n    tag_26:\n      stop\n        /* \"QitePool.sol\":242:266  uint256 public constantx */\n    tag_8:\n      tag_30\n      tag_31\n      jump\t// in\n    tag_30:\n      mload(0x40)\n      tag_32\n      swap2\n      swap1\n      tag_22\n      jump\t// in\n    tag_32:\n      mload(0x40)\n      dup1\n      swap2\n      sub\n      swap1\n      return\n        /* \"QitePool.sol\":122:143  address public token1 */\n    tag_9:\n      tag_33\n      tag_34\n      jump\t// in\n    tag_33:\n      mload(0x40)\n      tag_35\n      swap2\n      swap1\n      tag_14\n      jump\t// in\n    tag_35:\n      mload(0x40)\n      dup1\n      swap2\n      sub\n      swap1\n      return\n        /* \"QitePool.sol\":150:171  address public token2 */\n    tag_12:\n      0x01\n      0x00\n      swap1\n      sload\n      swap1\n      0x0100\n      exp\n      swap1\n      div\n      0xffffffffffffffffffffffffffffffffffffffff\n      and\n      dup2\n      jump\t// out\n        /* \"QitePool.sol\":276:316  QiteLiquidityToken public liquiditytoken */\n    tag_16:\n      0x05\n      0x00\n      swap1\n      sload\n      swap1\n      0x0100\n      exp\n      swap1\n      div\n      0xffffffffffffffffffffffffffffffffffffffff\n      and\n      dup2\n      jump\t// out\n        /* \"QitePool.sol\":180:203  uint256 public reserve1 */\n    tag_20:\n      sload(0x02)\n      dup2\n      jump\t// out\n        /* \"QitePool.sol\":210:233  uint256 public reserve2 */\n    tag_24:\n      sload(0x03)\n      dup2\n      jump\t// out\n        /* \"QitePool.sol\":477:556  function addLiquidity (uint amountToken1 , uint amountToken2) external {... */\n    tag_29:\n      pop\n      pop\n      jump\t// out\n        /* \"QitePool.sol\":242:266  uint256 public constantx */\n    tag_31:\n      sload(0x04)\n      dup2\n      jump\t// out\n        /* \"QitePool.sol\":122:143  address public token1 */\n    tag_34:\n      0x00\n      dup1\n      sload\n      swap1\n      0x0100\n      exp\n      swap1\n      div\n      0xffffffffffffffffffffffffffffffffffffffff\n      and\n      dup2\n      jump\t// out\n        /* \"#utility.yul\":7:133   */\n    tag_37:\n        /* \"#utility.yul\":44:51   */\n      0x00\n        /* \"#utility.yul\":84:126   */\n      0xffffffffffffffffffffffffffffffffffffffff\n        /* \"#utility.yul\":77:82   */\n      dup3\n        /* \"#utility.yul\":73:127   */\n      and\n        /* \"#utility.yul\":62:127   */\n      swap1\n      pop\n        /* \"#utility.yul\":7:133   */\n      swap2\n      swap1\n      pop\n      jump\t// out\n        /* \"#utility.yul\":139:235   */\n    tag_38:\n        /* \"#utility.yul\":176:183   */\n      0x00\n        /* \"#utility.yul\":205:229   */\n      tag_55\n        /* \"#utility.yul\":223:228   */\n      dup3\n        /* \"#utility.yul\":205:229   */\n      tag_37\n      jump\t// in\n    tag_55:\n        /* \"#utility.yul\":194:229   */\n      swap1\n      pop\n        /* \"#utility.yul\":139:235   */\n      swap2\n      swap1\n      pop\n      jump\t// out\n        /* \"#utility.yul\":241:359   */\n    tag_39:\n        /* \"#utility.yul\":328:352   */\n      tag_57\n        /* \"#utility.yul\":346:351   */\n      dup2\n        /* \"#utility.yul\":328:352   */\n      tag_38\n      jump\t// in\n    tag_57:\n        /* \"#utility.yul\":323:326   */\n      dup3\n        /* \"#utility.yul\":316:353   */\n      mstore\n        /* \"#utility.yul\":241:359   */\n      pop\n      pop\n      jump\t// out\n        /* \"#utility.yul\":365:587   */\n    tag_14:\n        /* \"#utility.yul\":458:462   */\n      0x00\n        /* \"#utility.yul\":496:498   */\n      0x20\n        /* \"#utility.yul\":485:494   */\n      dup3\n        /* \"#utility.yul\":481:499   */\n      add\n        /* \"#utility.yul\":473:499   */\n      swap1\n      pop\n        /* \"#utility.yul\":509:580   */\n      tag_59\n        /* \"#utility.yul\":577:578   */\n      0x00\n        /* \"#utility.yul\":566:575   */\n      dup4\n        /* \"#utility.yul\":562:579   */\n      add\n        /* \"#utility.yul\":553:559   */\n      dup5\n        /* \"#utility.yul\":509:580   */\n      tag_39\n      jump\t// in\n    tag_59:\n        /* \"#utility.yul\":365:587   */\n      swap3\n      swap2\n      pop\n      pop\n      jump\t// out\n        /* \"#utility.yul\":593:653   */\n    tag_40:\n        /* \"#utility.yul\":621:624   */\n      0x00\n        /* \"#utility.yul\":642:647   */\n      dup2\n        /* \"#utility.yul\":635:647   */\n      swap1\n      pop\n        /* \"#utility.yul\":593:653   */\n      swap2\n      swap1\n      pop\n      jump\t// out\n        /* \"#utility.yul\":659:801   */\n    tag_41:\n        /* \"#utility.yul\":709:718   */\n      0x00\n        /* \"#utility.yul\":742:795   */\n      tag_62\n        /* \"#utility.yul\":760:794   */\n      tag_63\n        /* \"#utility.yul\":769:793   */\n      tag_64\n        /* \"#utility.yul\":787:792   */\n      dup5\n        /* \"#utility.yul\":769:793   */\n      tag_37\n      jump\t// in\n    tag_64:\n        /* \"#utility.yul\":760:794   */\n      tag_40\n      jump\t// in\n    tag_63:\n        /* \"#utility.yul\":742:795   */\n      tag_37\n      jump\t// in\n    tag_62:\n        /* \"#utility.yul\":729:795   */\n      swap1\n      pop\n        /* \"#utility.yul\":659:801   */\n      swap2\n      swap1\n      pop\n      jump\t// out\n        /* \"#utility.yul\":807:933   */\n    tag_42:\n        /* \"#utility.yul\":857:866   */\n      0x00\n        /* \"#utility.yul\":890:927   */\n      tag_66\n        /* \"#utility.yul\":921:926   */\n      dup3\n        /* \"#utility.yul\":890:927   */\n      tag_41\n      jump\t// in\n    tag_66:\n        /* \"#utility.yul\":877:927   */\n      swap1\n      pop\n        /* \"#utility.yul\":807:933   */\n      swap2\n      swap1\n      pop\n      jump\t// out\n        /* \"#utility.yul\":939:1089   */\n    tag_43:\n        /* \"#utility.yul\":1013:1022   */\n      0x00\n        /* \"#utility.yul\":1046:1083   */\n      tag_68\n        /* \"#utility.yul\":1077:1082   */\n      dup3\n        /* \"#utility.yul\":1046:1083   */\n      tag_42\n      jump\t// in\n    tag_68:\n        /* \"#utility.yul\":1033:1083   */\n      swap1\n      pop\n        /* \"#utility.yul\":939:1089   */\n      swap2\n      swap1\n      pop\n      jump\t// out\n        /* \"#utility.yul\":1095:1274   */\n    tag_44:\n        /* \"#utility.yul\":1206:1267   */\n      tag_70\n        /* \"#utility.yul\":1261:1266   */\n      dup2\n        /* \"#utility.yul\":1206:1267   */\n      tag_43\n      jump\t// in\n    tag_70:\n        /* \"#utility.yul\":1201:1204   */\n      dup3\n        /* \"#utility.yul\":1194:1268   */\n      mstore\n        /* \"#utility.yul\":1095:1274   */\n      pop\n      pop\n      jump\t// out\n        /* \"#utility.yul\":1280:1550   */\n    tag_18:\n        /* \"#utility.yul\":1397:1401   */\n      0x00\n        /* \"#utility.yul\":1435:1437   */\n      0x20\n        /* \"#utility.yul\":1424:1433   */\n      dup3\n        /* \"#utility.yul\":1420:1438   */\n      add\n        /* \"#utility.yul\":1412:1438   */\n      swap1\n      pop\n        /* \"#utility.yul\":1448:1543   */\n      tag_72\n        /* \"#utility.yul\":1540:1541   */\n      0x00\n        /* \"#utility.yul\":1529:1538   */\n      dup4\n        /* \"#utility.yul\":1525:1542   */\n      add\n        /* \"#utility.yul\":1516:1522   */\n      dup5\n        /* \"#utility.yul\":1448:1543   */\n      tag_44\n      jump\t// in\n    tag_72:\n        /* \"#utility.yul\":1280:1550   */\n      swap3\n      swap2\n      pop\n      pop\n      jump\t// out\n        /* \"#utility.yul\":1556:1633   */\n    tag_45:\n        /* \"#utility.yul\":1593:1600   */\n      0x00\n        /* \"#utility.yul\":1622:1627   */\n      dup2\n        /* \"#utility.yul\":1611:1627   */\n      swap1\n      pop\n        /* \"#utility.yul\":1556:1633   */\n      swap2\n      swap1\n      pop\n      jump\t// out\n        /* \"#utility.yul\":1639:1757   */\n    tag_46:\n        /* \"#utility.yul\":1726:1750   */\n      tag_75\n        /* \"#utility.yul\":1744:1749   */\n      dup2\n        /* \"#utility.yul\":1726:1750   */\n      tag_45\n      jump\t// in\n    tag_75:\n        /* \"#utility.yul\":1721:1724   */\n      dup3\n        /* \"#utility.yul\":1714:1751   */\n      mstore\n        /* \"#utility.yul\":1639:1757   */\n      pop\n      pop\n      jump\t// out\n        /* \"#utility.yul\":1763:1985   */\n    tag_22:\n        /* \"#utility.yul\":1856:1860   */\n      0x00\n        /* \"#utility.yul\":1894:1896   */\n      0x20\n        /* \"#utility.yul\":1883:1892   */\n      dup3\n        /* \"#utility.yul\":1879:1897   */\n      add\n        /* \"#utility.yul\":1871:1897   */\n      swap1\n      pop\n        /* \"#utility.yul\":1907:1978   */\n      tag_77\n        /* \"#utility.yul\":1975:1976   */\n      0x00\n        /* \"#utility.yul\":1964:1973   */\n      dup4\n        /* \"#utility.yul\":1960:1977   */\n      add\n        /* \"#utility.yul\":1951:1957   */\n      dup5\n        /* \"#utility.yul\":1907:1978   */\n      tag_46\n      jump\t// in\n    tag_77:\n        /* \"#utility.yul\":1763:1985   */\n      swap3\n      swap2\n      pop\n      pop\n      jump\t// out\n        /* \"#utility.yul\":2072:2189   */\n    tag_48:\n        /* \"#utility.yul\":2181:2182   */\n      0x00\n        /* \"#utility.yul\":2178:2179   */\n      dup1\n        /* \"#utility.yul\":2171:2183   */\n      revert\n        /* \"#utility.yul\":2318:2440   */\n    tag_50:\n        /* \"#utility.yul\":2391:2415   */\n      tag_82\n        /* \"#utility.yul\":2409:2414   */\n      dup2\n        /* \"#utility.yul\":2391:2415   */\n      tag_45\n      jump\t// in\n    tag_82:\n        /* \"#utility.yul\":2384:2389   */\n      dup2\n        /* \"#utility.yul\":2381:2416   */\n      eq\n        /* \"#utility.yul\":2371:2434   */\n      tag_83\n      jumpi\n        /* \"#utility.yul\":2430:2431   */\n      0x00\n        /* \"#utility.yul\":2427:2428   */\n      dup1\n        /* \"#utility.yul\":2420:2432   */\n      revert\n        /* \"#utility.yul\":2371:2434   */\n    tag_83:\n        /* \"#utility.yul\":2318:2440   */\n      pop\n      jump\t// out\n        /* \"#utility.yul\":2446:2585   */\n    tag_51:\n        /* \"#utility.yul\":2492:2497   */\n      0x00\n        /* \"#utility.yul\":2530:2536   */\n      dup2\n        /* \"#utility.yul\":2517:2537   */\n      calldataload\n        /* \"#utility.yul\":2508:2537   */\n      swap1\n      pop\n        /* \"#utility.yul\":2546:2579   */\n      tag_85\n        /* \"#utility.yul\":2573:2578   */\n      dup2\n        /* \"#utility.yul\":2546:2579   */\n      tag_50\n      jump\t// in\n    tag_85:\n        /* \"#utility.yul\":2446:2585   */\n      swap3\n      swap2\n      pop\n      pop\n      jump\t// out\n        /* \"#utility.yul\":2591:3065   */\n    tag_28:\n        /* \"#utility.yul\":2659:2665   */\n      0x00\n        /* \"#utility.yul\":2667:2673   */\n      dup1\n        /* \"#utility.yul\":2716:2718   */\n      0x40\n        /* \"#utility.yul\":2704:2713   */\n      dup4\n        /* \"#utility.yul\":2695:2702   */\n      dup6\n        /* \"#utility.yul\":2691:2714   */\n      sub\n        /* \"#utility.yul\":2687:2719   */\n      slt\n        /* \"#utility.yul\":2684:2803   */\n      iszero\n      tag_87\n      jumpi\n        /* \"#utility.yul\":2722:2801   */\n      tag_88\n      tag_48\n      jump\t// in\n    tag_88:\n        /* \"#utility.yul\":2684:2803   */\n    tag_87:\n        /* \"#utility.yul\":2842:2843   */\n      0x00\n        /* \"#utility.yul\":2867:2920   */\n      tag_89\n        /* \"#utility.yul\":2912:2919   */\n      dup6\n        /* \"#utility.yul\":2903:2909   */\n      dup3\n        /* \"#utility.yul\":2892:2901   */\n      dup7\n        /* \"#utility.yul\":2888:2910   */\n      add\n        /* \"#utility.yul\":2867:2920   */\n      tag_51\n      jump\t// in\n    tag_89:\n        /* \"#utility.yul\":2857:2920   */\n      swap3\n      pop\n        /* \"#utility.yul\":2813:2930   */\n      pop\n        /* \"#utility.yul\":2969:2971   */\n      0x20\n        /* \"#utility.yul\":2995:3048   */\n      tag_90\n        /* \"#utility.yul\":3040:3047   */\n      dup6\n        /* \"#utility.yul\":3031:3037   */\n      dup3\n        /* \"#utility.yul\":3020:3029   */\n      dup7\n        /* \"#utility.yul\":3016:3038   */\n      add\n        /* \"#utility.yul\":2995:3048   */\n      tag_51\n      jump\t// in\n    tag_90:\n        /* \"#utility.yul\":2985:3048   */\n      swap2\n      pop\n        /* \"#utility.yul\":2940:3058   */\n      pop\n        /* \"#utility.yul\":2591:3065   */\n      swap3\n      pop\n      swap3\n      swap1\n      pop\n      jump\t// out\n\n    auxdata: 0xa26469706673582212201b6835a3f2a40b8dc061cdc93daa2728ac2e0f2a7b18c55f4b5157b2acc6bd5864736f6c634300081a0033\n}\n\nsub_1: assembly {\n        /* \"QiteLiquidityToken.sol\":60:98  contract QiteLiquidityToken {... */\n      mstore(0x40, 0x80)\n      callvalue\n      dup1\n      iszero\n      tag_1\n      jumpi\n      0x00\n      dup1\n      revert\n    tag_1:\n      pop\n      dataSize(sub_0)\n      dup1\n      dataOffset(sub_0)\n      0x00\n      codecopy\n      0x00\n      return\n    stop\n\n    sub_0: assembly {\n            /* \"QiteLiquidityToken.sol\":60:98  contract QiteLiquidityToken {... */\n          mstore(0x40, 0x80)\n          0x00\n          dup1\n          revert\n\n        auxdata: 0xa26469706673582212202dac118344dc6e3b4675800eeab8d0f9d9a4527d7061a54f83bba3ed024046d164736f6c634300081a0033\n    }\n}\n",
				"bytecode": {
					"linkReferences": {},
					"object": "608060405234801561000f575f80fd5b5060405161059a38038061059a83398181016040528101906100319190610186565b815f806101000a81548173ffffffffffffffffffffffffffffffffffffffff021916908373ffffffffffffffffffffffffffffffffffffffff1602179055508060015f6101000a81548173ffffffffffffffffffffffffffffffffffffffff021916908373ffffffffffffffffffffffffffffffffffffffff1602179055506040516100bc9061011c565b604051809103905ff0801580156100d5573d5f803e3d5ffd5b5060055f6101000a81548173ffffffffffffffffffffffffffffffffffffffff021916908373ffffffffffffffffffffffffffffffffffffffff16021790555050506101c4565b60588061054283390190565b5f80fd5b5f73ffffffffffffffffffffffffffffffffffffffff82169050919050565b5f6101558261012c565b9050919050565b6101658161014b565b811461016f575f80fd5b50565b5f815190506101808161015c565b92915050565b5f806040838503121561019c5761019b610128565b5b5f6101a985828601610172565b92505060206101ba85828601610172565b9150509250929050565b610371806101d15f395ff3fe608060405234801561000f575f80fd5b506004361061007b575f3560e01c80635c0b9a2b116100595780635c0b9a2b146100d95780639cd441da146100f7578063d0103aa314610113578063d21220a7146101315761007b565b806325be124e1461007f578063375260161461009d5780635a76f25e146100bb575b5f80fd5b61008761014f565b6040516100949190610211565b60405180910390f35b6100a5610174565b6040516100b29190610285565b60405180910390f35b6100c3610199565b6040516100d091906102b6565b60405180910390f35b6100e161019f565b6040516100ee91906102b6565b60405180910390f35b610111600480360381019061010c91906102fd565b6101a5565b005b61011b6101a9565b60405161012891906102b6565b60405180910390f35b6101396101af565b6040516101469190610211565b60405180910390f35b60015f9054906101000a900473ffffffffffffffffffffffffffffffffffffffff1681565b60055f9054906101000a900473ffffffffffffffffffffffffffffffffffffffff1681565b60025481565b60035481565b5050565b60045481565b5f8054906101000a900473ffffffffffffffffffffffffffffffffffffffff1681565b5f73ffffffffffffffffffffffffffffffffffffffff82169050919050565b5f6101fb826101d2565b9050919050565b61020b816101f1565b82525050565b5f6020820190506102245f830184610202565b92915050565b5f819050919050565b5f61024d610248610243846101d2565b61022a565b6101d2565b9050919050565b5f61025e82610233565b9050919050565b5f61026f82610254565b9050919050565b61027f81610265565b82525050565b5f6020820190506102985f830184610276565b92915050565b5f819050919050565b6102b08161029e565b82525050565b5f6020820190506102c95f8301846102a7565b92915050565b5f80fd5b6102dc8161029e565b81146102e6575f80fd5b50565b5f813590506102f7816102d3565b92915050565b5f8060408385031215610313576103126102cf565b5b5f610320858286016102e9565b9250506020610331858286016102e9565b915050925092905056fea26469706673582212201b6835a3f2a40b8dc061cdc93daa2728ac2e0f2a7b18c55f4b5157b2acc6bd5864736f6c634300081a00336080604052348015600e575f80fd5b50603e80601a5f395ff3fe60806040525f80fdfea26469706673582212202dac118344dc6e3b4675800eeab8d0f9d9a4527d7061a54f83bba3ed024046d164736f6c634300081a0033",
					"opcodes": "PUSH1 0x80 PUSH1 0x40 MSTORE CALLVALUE DUP1 ISZERO PUSH2 0xF JUMPI PUSH0 DUP1 REVERT JUMPDEST POP PUSH1 0x40 MLOAD PUSH2 0x59A CODESIZE SUB DUP1 PUSH2 0x59A DUP4 CODECOPY DUP2 DUP2 ADD PUSH1 0x40 MSTORE DUP2 ADD SWAP1 PUSH2 0x31 SWAP2 SWAP1 PUSH2 0x186 JUMP JUMPDEST DUP2 PUSH0 DUP1 PUSH2 0x100 EXP DUP2 SLOAD DUP2 PUSH20 0xFFFFFFFFFFFFFFFFFFFFFFFFFFFFFFFFFFFFFFFF MUL NOT AND SWAP1 DUP4 PUSH20 0xFFFFFFFFFFFFFFFFFFFFFFFFFFFFFFFFFFFFFFFF AND MUL OR SWAP1 SSTORE POP DUP1 PUSH1 0x1 PUSH0 PUSH2 0x100 EXP DUP2 SLOAD DUP2 PUSH20 0xFFFFFFFFFFFFFFFFFFFFFFFFFFFFFFFFFFFFFFFF MUL NOT AND SWAP1 DUP4 PUSH20 0xFFFFFFFFFFFFFFFFFFFFFFFFFFFFFFFFFFFFFFFF AND MUL OR SWAP1 SSTORE POP PUSH1 0x40 MLOAD PUSH2 0xBC SWAP1 PUSH2 0x11C JUMP JUMPDEST PUSH1 0x40 MLOAD DUP1 SWAP2 SUB SWAP1 PUSH0 CREATE DUP1 ISZERO DUP1 ISZERO PUSH2 0xD5 JUMPI RETURNDATASIZE PUSH0 DUP1 RETURNDATACOPY RETURNDATASIZE PUSH0 REVERT JUMPDEST POP PUSH1 0x5 PUSH0 PUSH2 0x100 EXP DUP2 SLOAD DUP2 PUSH20 0xFFFFFFFFFFFFFFFFFFFFFFFFFFFFFFFFFFFFFFFF MUL NOT AND SWAP1 DUP4 PUSH20 0xFFFFFFFFFFFFFFFFFFFFFFFFFFFFFFFFFFFFFFFF AND MUL OR SWAP1 SSTORE POP POP POP PUSH2 0x1C4 JUMP JUMPDEST PUSH1 0x58 DUP1 PUSH2 0x542 DUP4 CODECOPY ADD SWAP1 JUMP JUMPDEST PUSH0 DUP1 REVERT JUMPDEST PUSH0 PUSH20 0xFFFFFFFFFFFFFFFFFFFFFFFFFFFFFFFFFFFFFFFF DUP3 AND SWAP1 POP SWAP2 SWAP1 POP JUMP JUMPDEST PUSH0 PUSH2 0x155 DUP3 PUSH2 0x12C JUMP JUMPDEST SWAP1 POP SWAP2 SWAP1 POP JUMP JUMPDEST PUSH2 0x165 DUP2 PUSH2 0x14B JUMP JUMPDEST DUP2 EQ PUSH2 0x16F JUMPI PUSH0 DUP1 REVERT JUMPDEST POP JUMP JUMPDEST PUSH0 DUP2 MLOAD SWAP1 POP PUSH2 0x180 DUP2 PUSH2 0x15C JUMP JUMPDEST SWAP3 SWAP2 POP POP JUMP JUMPDEST PUSH0 DUP1 PUSH1 0x40 DUP4 DUP6 SUB SLT ISZERO PUSH2 0x19C JUMPI PUSH2 0x19B PUSH2 0x128 JUMP JUMPDEST JUMPDEST PUSH0 PUSH2 0x1A9 DUP6 DUP3 DUP7 ADD PUSH2 0x172 JUMP JUMPDEST SWAP3 POP POP PUSH1 0x20 PUSH2 0x1BA DUP6 DUP3 DUP7 ADD PUSH2 0x172 JUMP JUMPDEST SWAP2 POP POP SWAP3 POP SWAP3 SWAP1 POP JUMP JUMPDEST PUSH2 0x371 DUP1 PUSH2 0x1D1 PUSH0 CODECOPY PUSH0 RETURN INVALID PUSH1 0x80 PUSH1 0x40 MSTORE CALLVALUE DUP1 ISZERO PUSH2 0xF JUMPI PUSH0 DUP1 REVERT JUMPDEST POP PUSH1 0x4 CALLDATASIZE LT PUSH2 0x7B JUMPI PUSH0 CALLDATALOAD PUSH1 0xE0 SHR DUP1 PUSH4 0x5C0B9A2B GT PUSH2 0x59 JUMPI DUP1 PUSH4 0x5C0B9A2B EQ PUSH2 0xD9 JUMPI DUP1 PUSH4 0x9CD441DA EQ PUSH2 0xF7 JUMPI DUP1 PUSH4 0xD0103AA3 EQ PUSH2 0x113 JUMPI DUP1 PUSH4 0xD21220A7 EQ PUSH2 0x131 JUMPI PUSH2 0x7B JUMP JUMPDEST DUP1 PUSH4 0x25BE124E EQ PUSH2 0x7F JUMPI DUP1 PUSH4 0x37526016 EQ PUSH2 0x9D JUMPI DUP1 PUSH4 0x5A76F25E EQ PUSH2 0xBB JUMPI JUMPDEST PUSH0 DUP1 REVERT JUMPDEST PUSH2 0x87 PUSH2 0x14F JUMP JUMPDEST PUSH1 0x40 MLOAD PUSH2 0x94 SWAP2 SWAP1 PUSH2 0x211 JUMP JUMPDEST PUSH1 0x40 MLOAD DUP1 SWAP2 SUB SWAP1 RETURN JUMPDEST PUSH2 0xA5 PUSH2 0x174 JUMP JUMPDEST PUSH1 0x40 MLOAD PUSH2 0xB2 SWAP2 SWAP1 PUSH2 0x285 JUMP JUMPDEST PUSH1 0x40 MLOAD DUP1 SWAP2 SUB SWAP1 RETURN JUMPDEST PUSH2 0xC3 PUSH2 0x199 JUMP JUMPDEST PUSH1 0x40 MLOAD PUSH2 0xD0 SWAP2 SWAP1 PUSH2 0x2B6 JUMP JUMPDEST PUSH1 0x40 MLOAD DUP1 SWAP2 SUB SWAP1 RETURN JUMPDEST PUSH2 0xE1 PUSH2 0x19F JUMP JUMPDEST PUSH1 0x40 MLOAD PUSH2 0xEE SWAP2 SWAP1 PUSH2 0x2B6 JUMP JUMPDEST PUSH1 0x40 MLOAD DUP1 SWAP2 SUB SWAP1 RETURN JUMPDEST PUSH2 0x111 PUSH1 0x4 DUP1 CALLDATASIZE SUB DUP2 ADD SWAP1 PUSH2 0x10C SWAP2 SWAP1 PUSH2 0x2FD JUMP JUMPDEST PUSH2 0x1A5 JUMP JUMPDEST STOP JUMPDEST PUSH2 0x11B PUSH2 0x1A9 JUMP JUMPDEST PUSH1 0x40 MLOAD PUSH2 0x128 SWAP2 SWAP1 PUSH2 0x2B6 JUMP JUMPDEST PUSH1 0x40 MLOAD DUP1 SWAP2 SUB SWAP1 RETURN JUMPDEST PUSH2 0x139 PUSH2 0x1AF JUMP JUMPDEST PUSH1 0x40 MLOAD PUSH2 0x146 SWAP2 SWAP1 PUSH2 0x211 JUMP JUMPDEST PUSH1 0x40 MLOAD DUP1 SWAP2 SUB SWAP1 RETURN JUMPDEST PUSH1 0x1 PUSH0 SWAP1 SLOAD SWAP1 PUSH2 0x100 EXP SWAP1 DIV PUSH20 0xFFFFFFFFFFFFFFFFFFFFFFFFFFFFFFFFFFFFFFFF AND DUP2 JUMP JUMPDEST PUSH1 0x5 PUSH0 SWAP1 SLOAD SWAP1 PUSH2 0x100 EXP SWAP1 DIV PUSH20 0xFFFFFFFFFFFFFFFFFFFFFFFFFFFFFFFFFFFFFFFF AND DUP2 JUMP JUMPDEST PUSH1 0x2 SLOAD DUP2 JUMP JUMPDEST PUSH1 0x3 SLOAD DUP2 JUMP JUMPDEST POP POP JUMP JUMPDEST PUSH1 0x4 SLOAD DUP2 JUMP JUMPDEST PUSH0 DUP1 SLOAD SWAP1 PUSH2 0x100 EXP SWAP1 DIV PUSH20 0xFFFFFFFFFFFFFFFFFFFFFFFFFFFFFFFFFFFFFFFF AND DUP2 JUMP JUMPDEST PUSH0 PUSH20 0xFFFFFFFFFFFFFFFFFFFFFFFFFFFFFFFFFFFFFFFF DUP3 AND SWAP1 POP SWAP2 SWAP1 POP JUMP JUMPDEST PUSH0 PUSH2 0x1FB DUP3 PUSH2 0x1D2 JUMP JUMPDEST SWAP1 POP SWAP2 SWAP1 POP JUMP JUMPDEST PUSH2 0x20B DUP2 PUSH2 0x1F1 JUMP JUMPDEST DUP3 MSTORE POP POP JUMP JUMPDEST PUSH0 PUSH1 0x20 DUP3 ADD SWAP1 POP PUSH2 0x224 PUSH0 DUP4 ADD DUP5 PUSH2 0x202 JUMP JUMPDEST SWAP3 SWAP2 POP POP JUMP JUMPDEST PUSH0 DUP2 SWAP1 POP SWAP2 SWAP1 POP JUMP JUMPDEST PUSH0 PUSH2 0x24D PUSH2 0x248 PUSH2 0x243 DUP5 PUSH2 0x1D2 JUMP JUMPDEST PUSH2 0x22A JUMP JUMPDEST PUSH2 0x1D2 JUMP JUMPDEST SWAP1 POP SWAP2 SWAP1 POP JUMP JUMPDEST PUSH0 PUSH2 0x25E DUP3 PUSH2 0x233 JUMP JUMPDEST SWAP1 POP SWAP2 SWAP1 POP JUMP JUMPDEST PUSH0 PUSH2 0x26F DUP3 PUSH2 0x254 JUMP JUMPDEST SWAP1 POP SWAP2 SWAP1 POP JUMP JUMPDEST PUSH2 0x27F DUP2 PUSH2 0x265 JUMP JUMPDEST DUP3 MSTORE POP POP JUMP JUMPDEST PUSH0 PUSH1 0x20 DUP3 ADD SWAP1 POP PUSH2 0x298 PUSH0 DUP4 ADD DUP5 PUSH2 0x276 JUMP JUMPDEST SWAP3 SWAP2 POP POP JUMP JUMPDEST PUSH0 DUP2 SWAP1 POP SWAP2 SWAP1 POP JUMP JUMPDEST PUSH2 0x2B0 DUP2 PUSH2 0x29E JUMP JUMPDEST DUP3 MSTORE POP POP JUMP JUMPDEST PUSH0 PUSH1 0x20 DUP3 ADD SWAP1 POP PUSH2 0x2C9 PUSH0 DUP4 ADD DUP5 PUSH2 0x2A7 JUMP JUMPDEST SWAP3 SWAP2 POP POP JUMP JUMPDEST PUSH0 DUP1 REVERT JUMPDEST PUSH2 0x2DC DUP2 PUSH2 0x29E JUMP JUMPDEST DUP2 EQ PUSH2 0x2E6 JUMPI PUSH0 DUP1 REVERT JUMPDEST POP JUMP JUMPDEST PUSH0 DUP2 CALLDATALOAD SWAP1 POP PUSH2 0x2F7 DUP2 PUSH2 0x2D3 JUMP JUMPDEST SWAP3 SWAP2 POP POP JUMP JUMPDEST PUSH0 DUP1 PUSH1 0x40 DUP4 DUP6 SUB SLT ISZERO PUSH2 0x313 JUMPI PUSH2 0x312 PUSH2 0x2CF JUMP JUMPDEST JUMPDEST PUSH0 PUSH2 0x320 DUP6 DUP3 DUP7 ADD PUSH2 0x2E9 JUMP JUMPDEST SWAP3 POP POP PUSH1 0x20 PUSH2 0x331 DUP6 DUP3 DUP7 ADD PUSH2 0x2E9 JUMP JUMPDEST SWAP2 POP POP SWAP3 POP SWAP3 SWAP1 POP JUMP INVALID LOG2 PUSH5 0x6970667358 0x22 SLT KECCAK256 SHL PUSH9 0x35A3F2A40B8DC061CD 0xC9 RETURNDATASIZE 0xAA 0x27 0x28 0xAC 0x2E 0xF 0x2A PUSH28 0x18C55F4B5157B2ACC6BD5864736F6C634300081A0033608060405234 DUP1 ISZERO PUSH1 0xE JUMPI PUSH0 DUP1 REVERT JUMPDEST POP PUSH1 0x3E DUP1 PUSH1 0x1A PUSH0 CODECOPY PUSH0 RETURN INVALID PUSH1 0x80 PUSH1 0x40 MSTORE PUSH0 DUP1 REVERT INVALID LOG2 PUSH5 0x6970667358 0x22 SLT KECCAK256 0x2D 0xAC GT DUP4 PREVRANDAO 0xDC PUSH15 0x3B4675800EEAB8D0F9D9A4527D7061 0xA5 0x4F DUP4 0xBB LOG3 0xED MUL BLOCKHASH CHAINID 0xD1 PUSH5 0x736F6C6343 STOP ADDMOD BYTE STOP CALLER "
				},
				"gasEstimates": {
					"creation": {
						"codeDepositCost": "176200",
						"executionCost": "infinite",
						"totalCost": "infinite"
					},
					"external": {
						"addLiquidity(uint256,uint256)": "infinite",
						"constantx()": "2469",
						"liquiditytoken()": "infinite",
						"reserve1()": "2470",
						"reserve2()": "2425",
						"token1()": "2571",
						"token2()": "2509"
					}
				},
				"methodIdentifiers": {
					"addLiquidity(uint256,uint256)": "9cd441da",
					"constantx()": "d0103aa3",
					"liquiditytoken()": "37526016",
					"reserve1()": "5a76f25e",
					"reserve2()": "5c0b9a2b",
					"token1()": "d21220a7",
					"token2()": "25be124e"
				}
			},
			"storageLayout": {
				"storage": [
					{
						"astId": 7,
						"contract": "QitePool.sol:QitePool",
						"label": "token1",
						"offset": 0,
						"slot": "0",
						"type": "t_address"
					},
					{
						"astId": 9,
						"contract": "QitePool.sol:QitePool",
						"label": "token2",
						"offset": 0,
						"slot": "1",
						"type": "t_address"
					},
					{
						"astId": 11,
						"contract": "QitePool.sol:QitePool",
						"label": "reserve1",
						"offset": 0,
						"slot": "2",
						"type": "t_uint256"
					},
					{
						"astId": 13,
						"contract": "QitePool.sol:QitePool",
						"label": "reserve2",
						"offset": 0,
						"slot": "3",
						"type": "t_uint256"
					},
					{
						"astId": 15,
						"contract": "QitePool.sol:QitePool",
						"label": "constantx",
						"offset": 0,
						"slot": "4",
						"type": "t_uint256"
					},
					{
						"astId": 18,
						"contract": "QitePool.sol:QitePool",
						"label": "liquiditytoken",
						"offset": 0,
						"slot": "5",
						"type": "t_contract(QiteLiquidityToken)2"
					}
				],
				"types": {
					"t_address": {
						"encoding": "inplace",
						"label": "address",
						"numberOfBytes": "20"
					},
					"t_contract(QiteLiquidityToken)2": {
						"encoding": "inplace",
						"label": "contract QiteLiquidityToken",
						"numberOfBytes": "20"
					},
					"t_uint256": {
						"encoding": "inplace",
						"label": "uint256",
						"numberOfBytes": "32"
					}
				}
			},
			"userdoc": {
				"kind": "user",
				"methods": {},
				"version": 1
			}
		}
	}
}