{
	"data": {
		"bytecode": {
			"linkReferences": {},
			"object": "608060405234801561000f575f80fd5b50604051613ff8380380613ff8833981810160405281019061003191906102df565b835f806101000a81548173ffffffffffffffffffffffffffffffffffffffff021916908373ffffffffffffffffffffffffffffffffffffffff1602179055508260015f6101000a81548173ffffffffffffffffffffffffffffffffffffffff021916908373ffffffffffffffffffffffffffffffffffffffff16021790555081816040516100be9061012b565b6100c99291906103cd565b604051809103905ff0801580156100e2573d5f803e3d5ffd5b5060055f6101000a81548173ffffffffffffffffffffffffffffffffffffffff021916908373ffffffffffffffffffffffffffffffffffffffff16021790555050505050610402565b611d1a806122de83390190565b5f604051905090565b5f80fd5b5f80fd5b5f73ffffffffffffffffffffffffffffffffffffffff82169050919050565b5f61017282610149565b9050919050565b61018281610168565b811461018c575f80fd5b50565b5f8151905061019d81610179565b92915050565b5f80fd5b5f80fd5b5f601f19601f8301169050919050565b7f4e487b71000000000000000000000000000000000000000000000000000000005f52604160045260245ffd5b6101f1826101ab565b810181811067ffffffffffffffff821117156102105761020f6101bb565b5b80604052505050565b5f610222610138565b905061022e82826101e8565b919050565b5f67ffffffffffffffff82111561024d5761024c6101bb565b5b610256826101ab565b9050602081019050919050565b8281835e5f83830152505050565b5f61028361027e84610233565b610219565b90508281526020810184848401111561029f5761029e6101a7565b5b6102aa848285610263565b509392505050565b5f82601f8301126102c6576102c56101a3565b5b81516102d6848260208601610271565b91505092915050565b5f805f80608085870312156102f7576102f6610141565b5b5f6103048782880161018f565b94505060206103158782880161018f565b935050604085015167ffffffffffffffff81111561033657610335610145565b5b610342878288016102b2565b925050606085015167ffffffffffffffff81111561036357610362610145565b5b61036f878288016102b2565b91505092959194509250565b5f81519050919050565b5f82825260208201905092915050565b5f61039f8261037b565b6103a98185610385565b93506103b9818560208601610263565b6103c2816101ab565b840191505092915050565b5f6040820190508181035f8301526103e58185610395565b905081810360208301526103f98184610395565b90509392505050565b611ecf8061040f5f395ff3fe608060405234801561000f575f80fd5b5060043610610091575f3560e01c80635c0b9a2b116100645780635c0b9a2b1461010d5780638e18cdfc1461012b5780639cd441da14610147578063d21220a714610163578063d885b25c1461018157610091565b8063182520e81461009557806325be124e146100b357806337526016146100d15780635a76f25e146100ef575b5f80fd5b61009d61019d565b6040516100aa9190611498565b60405180910390f35b6100bb6101a3565b6040516100c891906114f0565b60405180910390f35b6100d96101c8565b6040516100e69190611564565b60405180910390f35b6100f76101ed565b6040516101049190611498565b60405180910390f35b6101156101f3565b6040516101229190611498565b60405180910390f35b610145600480360381019061014091906115d5565b6101f9565b005b610161600480360381019061015c9190611639565b610a11565b005b61016b610dad565b60405161017891906114f0565b60405180910390f35b61019b60048036038101906101969190611677565b610dd0565b005b60045481565b60015f9054906101000a900473ffffffffffffffffffffffffffffffffffffffff1681565b60055f9054906101000a900473ffffffffffffffffffffffffffffffffffffffff1681565b60025481565b60035481565b5f8211801561020757505f81115b610246576040517f08c379a000000000000000000000000000000000000000000000000000000000815260040161023d906116fc565b60405180910390fd5b5f8054906101000a900473ffffffffffffffffffffffffffffffffffffffff1673ffffffffffffffffffffffffffffffffffffffff168473ffffffffffffffffffffffffffffffffffffffff161480156102ec575060015f9054906101000a900473ffffffffffffffffffffffffffffffffffffffff1673ffffffffffffffffffffffffffffffffffffffff168373ffffffffffffffffffffffffffffffffffffffff16145b80610399575060015f9054906101000a900473ffffffffffffffffffffffffffffffffffffffff1673ffffffffffffffffffffffffffffffffffffffff168473ffffffffffffffffffffffffffffffffffffffff1614801561039857505f8054906101000a900473ffffffffffffffffffffffffffffffffffffffff1673ffffffffffffffffffffffffffffffffffffffff168373ffffffffffffffffffffffffffffffffffffffff16145b5b6103d8576040517f08c379a00000000000000000000000000000000000000000000000000000000081526004016103cf9061178a565b60405180910390fd5b5f8490505f849050838273ffffffffffffffffffffffffffffffffffffffff166370a08231336040518263ffffffff1660e01b815260040161041a91906114f0565b602060405180830381865afa158015610435573d5f803e3d5ffd5b505050506040513d601f19601f8201168201806040525081019061045991906117bc565b11610499576040517f08c379a000000000000000000000000000000000000000000000000000000000815260040161049090611857565b60405180910390fd5b828173ffffffffffffffffffffffffffffffffffffffff166370a08231306040518263ffffffff1660e01b81526004016104d391906114f0565b602060405180830381865afa1580156104ee573d5f803e3d5ffd5b505050506040513d601f19601f8201168201806040525081019061051291906117bc565b11610552576040517f08c379a0000000000000000000000000000000000000000000000000000000008152600401610549906118bf565b60405180910390fd5b5f805f9054906101000a900473ffffffffffffffffffffffffffffffffffffffff1673ffffffffffffffffffffffffffffffffffffffff168773ffffffffffffffffffffffffffffffffffffffff161480156105fa575060015f9054906101000a900473ffffffffffffffffffffffffffffffffffffffff1673ffffffffffffffffffffffffffffffffffffffff168673ffffffffffffffffffffffffffffffffffffffff16145b156106435761063c60035461062e61061d886002546111e490919063ffffffff16565b6004546111f990919063ffffffff16565b6111e490919063ffffffff16565b9050610683565b610680600254610672610661886003546111e490919063ffffffff16565b6004546111f990919063ffffffff16565b6111e490919063ffffffff16565b90505b808411156106c6576040517f08c379a00000000000000000000000000000000000000000000000000000000081526004016106bd9061194d565b60405180910390fd5b8273ffffffffffffffffffffffffffffffffffffffff166323b872dd3330886040518463ffffffff1660e01b81526004016107039392919061196b565b6020604051808303815f875af115801561071f573d5f803e3d5ffd5b505050506040513d601f19601f8201168201806040525081019061074391906119d5565b610782576040517f08c379a000000000000000000000000000000000000000000000000000000000815260040161077990611a4a565b60405180910390fd5b8173ffffffffffffffffffffffffffffffffffffffff1663a9059cbb33836040518363ffffffff1660e01b81526004016107bd929190611a68565b6020604051808303815f875af11580156107d9573d5f803e3d5ffd5b505050506040513d601f19601f820116820180604052508101906107fd91906119d5565b61083c576040517f08c379a000000000000000000000000000000000000000000000000000000000815260040161083390611ad9565b60405180910390fd5b5f8054906101000a900473ffffffffffffffffffffffffffffffffffffffff1673ffffffffffffffffffffffffffffffffffffffff168773ffffffffffffffffffffffffffffffffffffffff161480156108e2575060015f9054906101000a900473ffffffffffffffffffffffffffffffffffffffff1673ffffffffffffffffffffffffffffffffffffffff168673ffffffffffffffffffffffffffffffffffffffff16145b15610922576108fc8560025461120e90919063ffffffff16565b600281905550610917816003546111e490919063ffffffff16565b600381905550610959565b610937816002546111e490919063ffffffff16565b6002819055506109528560035461120e90919063ffffffff16565b6003819055505b60045461097360035460025461122390919063ffffffff16565b11156109b4576040517f08c379a00000000000000000000000000000000000000000000000000000000081526004016109ab9061194d565b60405180910390fd5b3373ffffffffffffffffffffffffffffffffffffffff167f053d794b2310b8d186a24ae24a65ee066983a52a6efa6bd3df09a7601a3cb4f386838a8a604051610a009493929190611af7565b60405180910390a250505050505050565b5f8060055f9054906101000a900473ffffffffffffffffffffffffffffffffffffffff1673ffffffffffffffffffffffffffffffffffffffff166318160ddd6040518163ffffffff1660e01b8152600401602060405180830381865afa158015610a7d573d5f803e3d5ffd5b505050506040513d601f19601f82011682018060405250810190610aa191906117bc565b90505f8103610acc57610ac5610ac0848661122390919063ffffffff16565b611238565b9150610b2e565b610b2b610af6600354610ae8848761122390919063ffffffff16565b6111f990919063ffffffff16565b610b1d600254610b0f858961122390919063ffffffff16565b6111f990919063ffffffff16565b61132e90919063ffffffff16565b91505b60055f9054906101000a900473ffffffffffffffffffffffffffffffffffffffff1673ffffffffffffffffffffffffffffffffffffffff166340c10f1933846040518363ffffffff1660e01b8152600401610b8a929190611a68565b5f604051808303815f87803b158015610ba1575f80fd5b505af1158015610bb3573d5f803e3d5ffd5b505050505f8054906101000a900473ffffffffffffffffffffffffffffffffffffffff1673ffffffffffffffffffffffffffffffffffffffff166323b872dd3330876040518463ffffffff1660e01b8152600401610c139392919061196b565b6020604051808303815f875af1158015610c2f573d5f803e3d5ffd5b505050506040513d601f19601f82011682018060405250810190610c5391906119d5565b610c92576040517f08c379a0000000000000000000000000000000000000000000000000000000008152600401610c8990611b84565b60405180910390fd5b60015f9054906101000a900473ffffffffffffffffffffffffffffffffffffffff1673ffffffffffffffffffffffffffffffffffffffff166323b872dd3330866040518463ffffffff1660e01b8152600401610cf09392919061196b565b6020604051808303815f875af1158015610d0c573d5f803e3d5ffd5b505050506040513d601f19601f82011682018060405250810190610d3091906119d5565b610d6f576040517f08c379a0000000000000000000000000000000000000000000000000000000008152600401610d6690611bec565b60405180910390fd5b8360025f828254610d809190611c37565b925050819055508260035f828254610d989190611c37565b92505081905550610da7611346565b50505050565b5f8054906101000a900473ffffffffffffffffffffffffffffffffffffffff1681565b5f60055f9054906101000a900473ffffffffffffffffffffffffffffffffffffffff1673ffffffffffffffffffffffffffffffffffffffff166318160ddd6040518163ffffffff1660e01b8152600401602060405180830381865afa158015610e3b573d5f803e3d5ffd5b505050506040513d601f19601f82011682018060405250810190610e5f91906117bc565b905060055f9054906101000a900473ffffffffffffffffffffffffffffffffffffffff1673ffffffffffffffffffffffffffffffffffffffff166318160ddd6040518163ffffffff1660e01b8152600401602060405180830381865afa158015610ecb573d5f803e3d5ffd5b505050506040513d601f19601f82011682018060405250810190610eef91906117bc565b821115610f31576040517f08c379a0000000000000000000000000000000000000000000000000000000008152600401610f2890611cda565b60405180910390fd5b60055f9054906101000a900473ffffffffffffffffffffffffffffffffffffffff1673ffffffffffffffffffffffffffffffffffffffff16639dc29fac33846040518363ffffffff1660e01b8152600401610f8d929190611a68565b5f604051808303815f87803b158015610fa4575f80fd5b505af1158015610fb6573d5f803e3d5ffd5b505050505f8183600254610fca9190611cf8565b610fd49190611d66565b90505f8284600354610fe69190611cf8565b610ff09190611d66565b90505f8054906101000a900473ffffffffffffffffffffffffffffffffffffffff1673ffffffffffffffffffffffffffffffffffffffff1663a9059cbb33846040518363ffffffff1660e01b815260040161104c929190611a68565b6020604051808303815f875af1158015611068573d5f803e3d5ffd5b505050506040513d601f19601f8201168201806040525081019061108c91906119d5565b6110cb576040517f08c379a00000000000000000000000000000000000000000000000000000000081526004016110c290611de0565b60405180910390fd5b60015f9054906101000a900473ffffffffffffffffffffffffffffffffffffffff1673ffffffffffffffffffffffffffffffffffffffff1663a9059cbb33836040518363ffffffff1660e01b8152600401611127929190611a68565b6020604051808303815f875af1158015611143573d5f803e3d5ffd5b505050506040513d601f19601f8201168201806040525081019061116791906119d5565b6111a6576040517f08c379a000000000000000000000000000000000000000000000000000000000815260040161119d90611de0565b60405180910390fd5b8160025f8282546111b79190611dfe565b925050819055508060035f8282546111cf9190611dfe565b925050819055506111de611346565b50505050565b5f81836111f19190611dfe565b905092915050565b5f81836112069190611d66565b905092915050565b5f818361121b9190611c37565b905092915050565b5f81836112309190611cf8565b905092915050565b5f808203611248575f9050611329565b5f6001611254846113a9565b901c6001901b9050600181848161126e5761126d611d39565b5b048201901c9050600181848161128757611286611d39565b5b048201901c905060018184816112a05761129f611d39565b5b048201901c905060018184816112b9576112b8611d39565b5b048201901c905060018184816112d2576112d1611d39565b5b048201901c905060018184816112eb576112ea611d39565b5b048201901c9050600181848161130457611303611d39565b5b048201901c90506113258182858161131f5761131e611d39565b5b0461132e565b9150505b919050565b5f81831061133c578161133e565b825b905092915050565b61135d60035460025461122390919063ffffffff16565b6004819055505f600454116113a7576040517f08c379a000000000000000000000000000000000000000000000000000000000815260040161139e90611e7b565b60405180910390fd5b565b5f805f90505f608084901c11156113c857608083901c92506080810190505b5f604084901c11156113e257604083901c92506040810190505b5f602084901c11156113fc57602083901c92506020810190505b5f601084901c111561141657601083901c92506010810190505b5f600884901c111561143057600883901c92506008810190505b5f600484901c111561144a57600483901c92506004810190505b5f600284901c111561146457600283901c92506002810190505b5f600184901c1115611477576001810190505b80915050919050565b5f819050919050565b61149281611480565b82525050565b5f6020820190506114ab5f830184611489565b92915050565b5f73ffffffffffffffffffffffffffffffffffffffff82169050919050565b5f6114da826114b1565b9050919050565b6114ea816114d0565b82525050565b5f6020820190506115035f8301846114e1565b92915050565b5f819050919050565b5f61152c611527611522846114b1565b611509565b6114b1565b9050919050565b5f61153d82611512565b9050919050565b5f61154e82611533565b9050919050565b61155e81611544565b82525050565b5f6020820190506115775f830184611555565b92915050565b5f80fd5b61158a816114d0565b8114611594575f80fd5b50565b5f813590506115a581611581565b92915050565b6115b481611480565b81146115be575f80fd5b50565b5f813590506115cf816115ab565b92915050565b5f805f80608085870312156115ed576115ec61157d565b5b5f6115fa87828801611597565b945050602061160b87828801611597565b935050604061161c878288016115c1565b925050606061162d878288016115c1565b91505092959194509250565b5f806040838503121561164f5761164e61157d565b5b5f61165c858286016115c1565b925050602061166d858286016115c1565b9150509250929050565b5f6020828403121561168c5761168b61157d565b5b5f611699848285016115c1565b91505092915050565b5f82825260208201905092915050565b7f416d6f756e74206d7573742062652067726561746572207468616e20300000005f82015250565b5f6116e6601d836116a2565b91506116f1826116b2565b602082019050919050565b5f6020820190508181035f830152611713816116da565b9050919050565b7f746f6b656e73206e65656420746f206265207061697273206f66206c697175695f8201527f6469747920706f6f6c0000000000000000000000000000000000000000000000602082015250565b5f6117746029836116a2565b915061177f8261171a565b604082019050919050565b5f6020820190508181035f8301526117a181611768565b9050919050565b5f815190506117b6816115ab565b92915050565b5f602082840312156117d1576117d061157d565b5b5f6117de848285016117a8565b91505092915050565b7f496e73756666696369656e742062616c616e6365206f6620746f6b656e46726f5f8201527f6d00000000000000000000000000000000000000000000000000000000000000602082015250565b5f6118416021836116a2565b915061184c826117e7565b604082019050919050565b5f6020820190508181035f83015261186e81611835565b9050919050565b7f496e73756666696369656e742062616c616e6365206f6620746f6b656e546f005f82015250565b5f6118a9601f836116a2565b91506118b482611875565b602082019050919050565b5f6020820190508181035f8301526118d68161189d565b9050919050565b7f5377617020646f6573206e6f7420707265736572766520636f6e7374616e74205f8201527f666f726d756c6100000000000000000000000000000000000000000000000000602082015250565b5f6119376027836116a2565b9150611942826118dd565b604082019050919050565b5f6020820190508181035f8301526119648161192b565b9050919050565b5f60608201905061197e5f8301866114e1565b61198b60208301856114e1565b6119986040830184611489565b949350505050565b5f8115159050919050565b6119b4816119a0565b81146119be575f80fd5b50565b5f815190506119cf816119ab565b92915050565b5f602082840312156119ea576119e961157d565b5b5f6119f7848285016119c1565b91505092915050565b7f7472616e73666572206f6620746f6b656e2066726f6d206661696c65640000005f82015250565b5f611a34601d836116a2565b9150611a3f82611a00565b602082019050919050565b5f6020820190508181035f830152611a6181611a28565b9050919050565b5f604082019050611a7b5f8301856114e1565b611a886020830184611489565b9392505050565b7f5472616e73666572206f6620746f6b656e20746f206661696c656400000000005f82015250565b5f611ac3601b836116a2565b9150611ace82611a8f565b602082019050919050565b5f6020820190508181035f830152611af081611ab7565b9050919050565b5f608082019050611b0a5f830187611489565b611b176020830186611489565b611b2460408301856114e1565b611b3160608301846114e1565b95945050505050565b7f7472616e73666572206f6620746f6b656e31206973206661696c6564000000005f82015250565b5f611b6e601c836116a2565b9150611b7982611b3a565b602082019050919050565b5f6020820190508181035f830152611b9b81611b62565b9050919050565b7f7472616e73666572206f6620746f6b656e32206973206661696c6564000000005f82015250565b5f611bd6601c836116a2565b9150611be182611ba2565b602082019050919050565b5f6020820190508181035f830152611c0381611bca565b9050919050565b7f4e487b71000000000000000000000000000000000000000000000000000000005f52601160045260245ffd5b5f611c4182611480565b9150611c4c83611480565b9250828201905080821115611c6457611c63611c0a565b5b92915050565b7f4c6971756964697479206973206d6f7265207468616e20746f74616c207375705f8201527f706c790000000000000000000000000000000000000000000000000000000000602082015250565b5f611cc46023836116a2565b9150611ccf82611c6a565b604082019050919050565b5f6020820190508181035f830152611cf181611cb8565b9050919050565b5f611d0282611480565b9150611d0d83611480565b9250828202611d1b81611480565b91508282048414831517611d3257611d31611c0a565b5b5092915050565b7f4e487b71000000000000000000000000000000000000000000000000000000005f52601260045260245ffd5b5f611d7082611480565b9150611d7b83611480565b925082611d8b57611d8a611d39565b5b828204905092915050565b7f5472616e73666572206f6620746f6b656e31206661696c6564000000000000005f82015250565b5f611dca6019836116a2565b9150611dd582611d96565b602082019050919050565b5f6020820190508181035f830152611df781611dbe565b9050919050565b5f611e0882611480565b9150611e1383611480565b9250828203905081811115611e2b57611e2a611c0a565b5b92915050565b7f436f6e7374616e7420666f726d756c61206e6f742075706461746520000000005f82015250565b5f611e65601c836116a2565b9150611e7082611e31565b602082019050919050565b5f6020820190508181035f830152611e9281611e59565b905091905056fea264697066735822122011779407e5a7facb55a4d114b112018810561e409b943b5f2c48f54bfe3eaa4e64736f6c634300081a0033608060405234801561000f575f80fd5b50604051611d1a380380611d1a8339818101604052810190610031919061031d565b8181816003908161004291906105a0565b50806004908161005291906105a0565b5050506100675f801b3361006f60201b60201c565b50505061066f565b5f610080838361016560201b60201c565b61015b57600160055f8581526020019081526020015f205f015f8473ffffffffffffffffffffffffffffffffffffffff1673ffffffffffffffffffffffffffffffffffffffff1681526020019081526020015f205f6101000a81548160ff0219169083151502179055506100f86101c960201b60201c565b73ffffffffffffffffffffffffffffffffffffffff168273ffffffffffffffffffffffffffffffffffffffff16847f2f8788117e7eff1d82e926ec794901d17c78024a50270940304540a733656f0d60405160405180910390a46001905061015f565b5f90505b92915050565b5f60055f8481526020019081526020015f205f015f8373ffffffffffffffffffffffffffffffffffffffff1673ffffffffffffffffffffffffffffffffffffffff1681526020019081526020015f205f9054906101000a900460ff16905092915050565b5f33905090565b5f604051905090565b5f80fd5b5f80fd5b5f80fd5b5f80fd5b5f601f19601f8301169050919050565b7f4e487b71000000000000000000000000000000000000000000000000000000005f52604160045260245ffd5b61022f826101e9565b810181811067ffffffffffffffff8211171561024e5761024d6101f9565b5b80604052505050565b5f6102606101d0565b905061026c8282610226565b919050565b5f67ffffffffffffffff82111561028b5761028a6101f9565b5b610294826101e9565b9050602081019050919050565b8281835e5f83830152505050565b5f6102c16102bc84610271565b610257565b9050828152602081018484840111156102dd576102dc6101e5565b5b6102e88482856102a1565b509392505050565b5f82601f830112610304576103036101e1565b5b81516103148482602086016102af565b91505092915050565b5f8060408385031215610333576103326101d9565b5b5f83015167ffffffffffffffff8111156103505761034f6101dd565b5b61035c858286016102f0565b925050602083015167ffffffffffffffff81111561037d5761037c6101dd565b5b610389858286016102f0565b9150509250929050565b5f81519050919050565b7f4e487b71000000000000000000000000000000000000000000000000000000005f52602260045260245ffd5b5f60028204905060018216806103e157607f821691505b6020821081036103f4576103f361039d565b5b50919050565b5f819050815f5260205f209050919050565b5f6020601f8301049050919050565b5f82821b905092915050565b5f600883026104567fffffffffffffffffffffffffffffffffffffffffffffffffffffffffffffffff8261041b565b610460868361041b565b95508019841693508086168417925050509392505050565b5f819050919050565b5f819050919050565b5f6104a461049f61049a84610478565b610481565b610478565b9050919050565b5f819050919050565b6104bd8361048a565b6104d16104c9826104ab565b848454610427565b825550505050565b5f90565b6104e56104d9565b6104f08184846104b4565b505050565b5b81811015610513576105085f826104dd565b6001810190506104f6565b5050565b601f82111561055857610529816103fa565b6105328461040c565b81016020851015610541578190505b61055561054d8561040c565b8301826104f5565b50505b505050565b5f82821c905092915050565b5f6105785f198460080261055d565b1980831691505092915050565b5f6105908383610569565b9150826002028217905092915050565b6105a982610393565b67ffffffffffffffff8111156105c2576105c16101f9565b5b6105cc82546103ca565b6105d7828285610517565b5f60209050601f831160018114610608575f84156105f6578287015190505b6106008582610585565b865550610667565b601f198416610616866103fa565b5f5b8281101561063d57848901518255600182019150602085019450602081019050610618565b8683101561065a5784890151610656601f891682610569565b8355505b6001600288020188555050505b505050505050565b61169e8061067c5f395ff3fe608060405234801561000f575f80fd5b5060043610610114575f3560e01c806340c10f19116100a05780639dc29fac1161006f5780639dc29fac14610304578063a217fddf14610320578063a9059cbb1461033e578063d547741f1461036e578063dd62ed3e1461038a57610114565b806340c10f191461026a57806370a082311461028657806391d14854146102b657806395d89b41146102e657610114565b806323b872dd116100e757806323b872dd146101b4578063248a9ca3146101e45780632f2ff15d14610214578063313ce5671461023057806336568abe1461024e57610114565b806301ffc9a71461011857806306fdde0314610148578063095ea7b31461016657806318160ddd14610196575b5f80fd5b610132600480360381019061012d9190611195565b6103ba565b60405161013f91906111da565b60405180910390f35b610150610433565b60405161015d9190611263565b60405180910390f35b610180600480360381019061017b9190611310565b6104c3565b60405161018d91906111da565b60405180910390f35b61019e6104e5565b6040516101ab919061135d565b60405180910390f35b6101ce60048036038101906101c99190611376565b6104ee565b6040516101db91906111da565b60405180910390f35b6101fe60048036038101906101f991906113f9565b61051c565b60405161020b9190611433565b60405180910390f35b61022e6004803603810190610229919061144c565b610539565b005b61023861055b565b60405161024591906114a5565b60405180910390f35b6102686004803603810190610263919061144c565b610563565b005b610284600480360381019061027f9190611310565b6105de565b005b6102a0600480360381019061029b91906114be565b6105f9565b6040516102ad919061135d565b60405180910390f35b6102d060048036038101906102cb919061144c565b61063e565b6040516102dd91906111da565b60405180910390f35b6102ee6106a2565b6040516102fb9190611263565b60405180910390f35b61031e60048036038101906103199190611310565b610732565b005b61032861074d565b6040516103359190611433565b60405180910390f35b61035860048036038101906103539190611310565b610753565b60405161036591906111da565b60405180910390f35b6103886004803603810190610383919061144c565b610775565b005b6103a4600480360381019061039f91906114e9565b610797565b6040516103b1919061135d565b60405180910390f35b5f7f7965db0b000000000000000000000000000000000000000000000000000000007bffffffffffffffffffffffffffffffffffffffffffffffffffffffff1916827bffffffffffffffffffffffffffffffffffffffffffffffffffffffff1916148061042c575061042b82610819565b5b9050919050565b60606003805461044290611554565b80601f016020809104026020016040519081016040528092919081815260200182805461046e90611554565b80156104b95780601f10610490576101008083540402835291602001916104b9565b820191905f5260205f20905b81548152906001019060200180831161049c57829003601f168201915b5050505050905090565b5f806104cd610882565b90506104da818585610889565b600191505092915050565b5f600254905090565b5f806104f8610882565b905061050585828561089b565b61051085858561092d565b60019150509392505050565b5f60055f8381526020019081526020015f20600101549050919050565b6105428261051c565b61054b81610a1d565b6105558383610a31565b50505050565b5f6012905090565b61056b610882565b73ffffffffffffffffffffffffffffffffffffffff168173ffffffffffffffffffffffffffffffffffffffff16146105cf576040517f6697b23200000000000000000000000000000000000000000000000000000000815260040160405180910390fd5b6105d98282610b1b565b505050565b5f801b6105ea81610a1d565b6105f48383610c05565b505050565b5f805f8373ffffffffffffffffffffffffffffffffffffffff1673ffffffffffffffffffffffffffffffffffffffff1681526020019081526020015f20549050919050565b5f60055f8481526020019081526020015f205f015f8373ffffffffffffffffffffffffffffffffffffffff1673ffffffffffffffffffffffffffffffffffffffff1681526020019081526020015f205f9054906101000a900460ff16905092915050565b6060600480546106b190611554565b80601f01602080910402602001604051908101604052809291908181526020018280546106dd90611554565b80156107285780601f106106ff57610100808354040283529160200191610728565b820191905f5260205f20905b81548152906001019060200180831161070b57829003601f168201915b5050505050905090565b5f801b61073e81610a1d565b6107488383610c84565b505050565b5f801b81565b5f8061075d610882565b905061076a81858561092d565b600191505092915050565b61077e8261051c565b61078781610a1d565b6107918383610b1b565b50505050565b5f60015f8473ffffffffffffffffffffffffffffffffffffffff1673ffffffffffffffffffffffffffffffffffffffff1681526020019081526020015f205f8373ffffffffffffffffffffffffffffffffffffffff1673ffffffffffffffffffffffffffffffffffffffff1681526020019081526020015f2054905092915050565b5f7f01ffc9a7000000000000000000000000000000000000000000000000000000007bffffffffffffffffffffffffffffffffffffffffffffffffffffffff1916827bffffffffffffffffffffffffffffffffffffffffffffffffffffffff1916149050919050565b5f33905090565b6108968383836001610d03565b505050565b5f6108a68484610797565b90507fffffffffffffffffffffffffffffffffffffffffffffffffffffffffffffffff81146109275781811015610918578281836040517ffb8f41b200000000000000000000000000000000000000000000000000000000815260040161090f93929190611593565b60405180910390fd5b61092684848484035f610d03565b5b50505050565b5f73ffffffffffffffffffffffffffffffffffffffff168373ffffffffffffffffffffffffffffffffffffffff160361099d575f6040517f96c6fd1e00000000000000000000000000000000000000000000000000000000815260040161099491906115c8565b60405180910390fd5b5f73ffffffffffffffffffffffffffffffffffffffff168273ffffffffffffffffffffffffffffffffffffffff1603610a0d575f6040517fec442f05000000000000000000000000000000000000000000000000000000008152600401610a0491906115c8565b60405180910390fd5b610a18838383610ed2565b505050565b610a2e81610a29610882565b6110eb565b50565b5f610a3c838361063e565b610b1157600160055f8581526020019081526020015f205f015f8473ffffffffffffffffffffffffffffffffffffffff1673ffffffffffffffffffffffffffffffffffffffff1681526020019081526020015f205f6101000a81548160ff021916908315150217905550610aae610882565b73ffffffffffffffffffffffffffffffffffffffff168273ffffffffffffffffffffffffffffffffffffffff16847f2f8788117e7eff1d82e926ec794901d17c78024a50270940304540a733656f0d60405160405180910390a460019050610b15565b5f90505b92915050565b5f610b26838361063e565b15610bfb575f60055f8581526020019081526020015f205f015f8473ffffffffffffffffffffffffffffffffffffffff1673ffffffffffffffffffffffffffffffffffffffff1681526020019081526020015f205f6101000a81548160ff021916908315150217905550610b98610882565b73ffffffffffffffffffffffffffffffffffffffff168273ffffffffffffffffffffffffffffffffffffffff16847ff6391f5c32d9c69d2a47ea670b442974b53935d1edc7fd64eb21e047a839171b60405160405180910390a460019050610bff565b5f90505b92915050565b5f73ffffffffffffffffffffffffffffffffffffffff168273ffffffffffffffffffffffffffffffffffffffff1603610c75575f6040517fec442f05000000000000000000000000000000000000000000000000000000008152600401610c6c91906115c8565b60405180910390fd5b610c805f8383610ed2565b5050565b5f73ffffffffffffffffffffffffffffffffffffffff168273ffffffffffffffffffffffffffffffffffffffff1603610cf4575f6040517f96c6fd1e000000000000000000000000000000000000000000000000000000008152600401610ceb91906115c8565b60405180910390fd5b610cff825f83610ed2565b5050565b5f73ffffffffffffffffffffffffffffffffffffffff168473ffffffffffffffffffffffffffffffffffffffff1603610d73575f6040517fe602df05000000000000000000000000000000000000000000000000000000008152600401610d6a91906115c8565b60405180910390fd5b5f73ffffffffffffffffffffffffffffffffffffffff168373ffffffffffffffffffffffffffffffffffffffff1603610de3575f6040517f94280d62000000000000000000000000000000000000000000000000000000008152600401610dda91906115c8565b60405180910390fd5b8160015f8673ffffffffffffffffffffffffffffffffffffffff1673ffffffffffffffffffffffffffffffffffffffff1681526020019081526020015f205f8573ffffffffffffffffffffffffffffffffffffffff1673ffffffffffffffffffffffffffffffffffffffff1681526020019081526020015f20819055508015610ecc578273ffffffffffffffffffffffffffffffffffffffff168473ffffffffffffffffffffffffffffffffffffffff167f8c5be1e5ebec7d5bd14f71427d1e84f3dd0314c0f7b2291e5b200ac8c7c3b92584604051610ec3919061135d565b60405180910390a35b50505050565b5f73ffffffffffffffffffffffffffffffffffffffff168373ffffffffffffffffffffffffffffffffffffffff1603610f22578060025f828254610f16919061160e565b92505081905550610ff0565b5f805f8573ffffffffffffffffffffffffffffffffffffffff1673ffffffffffffffffffffffffffffffffffffffff1681526020019081526020015f2054905081811015610fab578381836040517fe450d38c000000000000000000000000000000000000000000000000000000008152600401610fa293929190611593565b60405180910390fd5b8181035f808673ffffffffffffffffffffffffffffffffffffffff1673ffffffffffffffffffffffffffffffffffffffff1681526020019081526020015f2081905550505b5f73ffffffffffffffffffffffffffffffffffffffff168273ffffffffffffffffffffffffffffffffffffffff1603611037578060025f8282540392505081905550611081565b805f808473ffffffffffffffffffffffffffffffffffffffff1673ffffffffffffffffffffffffffffffffffffffff1681526020019081526020015f205f82825401925050819055505b8173ffffffffffffffffffffffffffffffffffffffff168373ffffffffffffffffffffffffffffffffffffffff167fddf252ad1be2c89b69c2b068fc378daa952ba7f163c4a11628f55a4df523b3ef836040516110de919061135d565b60405180910390a3505050565b6110f5828261063e565b6111385780826040517fe2517d3f00000000000000000000000000000000000000000000000000000000815260040161112f929190611641565b60405180910390fd5b5050565b5f80fd5b5f7fffffffff0000000000000000000000000000000000000000000000000000000082169050919050565b61117481611140565b811461117e575f80fd5b50565b5f8135905061118f8161116b565b92915050565b5f602082840312156111aa576111a961113c565b5b5f6111b784828501611181565b91505092915050565b5f8115159050919050565b6111d4816111c0565b82525050565b5f6020820190506111ed5f8301846111cb565b92915050565b5f81519050919050565b5f82825260208201905092915050565b8281835e5f83830152505050565b5f601f19601f8301169050919050565b5f611235826111f3565b61123f81856111fd565b935061124f81856020860161120d565b6112588161121b565b840191505092915050565b5f6020820190508181035f83015261127b818461122b565b905092915050565b5f73ffffffffffffffffffffffffffffffffffffffff82169050919050565b5f6112ac82611283565b9050919050565b6112bc816112a2565b81146112c6575f80fd5b50565b5f813590506112d7816112b3565b92915050565b5f819050919050565b6112ef816112dd565b81146112f9575f80fd5b50565b5f8135905061130a816112e6565b92915050565b5f80604083850312156113265761132561113c565b5b5f611333858286016112c9565b9250506020611344858286016112fc565b9150509250929050565b611357816112dd565b82525050565b5f6020820190506113705f83018461134e565b92915050565b5f805f6060848603121561138d5761138c61113c565b5b5f61139a868287016112c9565b93505060206113ab868287016112c9565b92505060406113bc868287016112fc565b9150509250925092565b5f819050919050565b6113d8816113c6565b81146113e2575f80fd5b50565b5f813590506113f3816113cf565b92915050565b5f6020828403121561140e5761140d61113c565b5b5f61141b848285016113e5565b91505092915050565b61142d816113c6565b82525050565b5f6020820190506114465f830184611424565b92915050565b5f80604083850312156114625761146161113c565b5b5f61146f858286016113e5565b9250506020611480858286016112c9565b9150509250929050565b5f60ff82169050919050565b61149f8161148a565b82525050565b5f6020820190506114b85f830184611496565b92915050565b5f602082840312156114d3576114d261113c565b5b5f6114e0848285016112c9565b91505092915050565b5f80604083850312156114ff576114fe61113c565b5b5f61150c858286016112c9565b925050602061151d858286016112c9565b9150509250929050565b7f4e487b71000000000000000000000000000000000000000000000000000000005f52602260045260245ffd5b5f600282049050600182168061156b57607f821691505b60208210810361157e5761157d611527565b5b50919050565b61158d816112a2565b82525050565b5f6060820190506115a65f830186611584565b6115b3602083018561134e565b6115c0604083018461134e565b949350505050565b5f6020820190506115db5f830184611584565b92915050565b7f4e487b71000000000000000000000000000000000000000000000000000000005f52601160045260245ffd5b5f611618826112dd565b9150611623836112dd565b925082820190508082111561163b5761163a6115e1565b5b92915050565b5f6040820190506116545f830185611584565b6116616020830184611424565b939250505056fea26469706673582212204087cbc04c4a5589211a945eaa529aadf9733e073325d644237a287173155f9e64736f6c634300081a0033",
			"opcodes": "PUSH1 0x80 PUSH1 0x40 MSTORE CALLVALUE DUP1 ISZERO PUSH2 0xF JUMPI PUSH0 DUP1 REVERT JUMPDEST POP PUSH1 0x40 MLOAD PUSH2 0x3FF8 CODESIZE SUB DUP1 PUSH2 0x3FF8 DUP4 CODECOPY DUP2 DUP2 ADD PUSH1 0x40 MSTORE DUP2 ADD SWAP1 PUSH2 0x31 SWAP2 SWAP1 PUSH2 0x2DF JUMP JUMPDEST DUP4 PUSH0 DUP1 PUSH2 0x100 EXP DUP2 SLOAD DUP2 PUSH20 0xFFFFFFFFFFFFFFFFFFFFFFFFFFFFFFFFFFFFFFFF MUL NOT AND SWAP1 DUP4 PUSH20 0xFFFFFFFFFFFFFFFFFFFFFFFFFFFFFFFFFFFFFFFF AND MUL OR SWAP1 SSTORE POP DUP3 PUSH1 0x1 PUSH0 PUSH2 0x100 EXP DUP2 SLOAD DUP2 PUSH20 0xFFFFFFFFFFFFFFFFFFFFFFFFFFFFFFFFFFFFFFFF MUL NOT AND SWAP1 DUP4 PUSH20 0xFFFFFFFFFFFFFFFFFFFFFFFFFFFFFFFFFFFFFFFF AND MUL OR SWAP1 SSTORE POP DUP2 DUP2 PUSH1 0x40 MLOAD PUSH2 0xBE SWAP1 PUSH2 0x12B JUMP JUMPDEST PUSH2 0xC9 SWAP3 SWAP2 SWAP1 PUSH2 0x3CD JUMP JUMPDEST PUSH1 0x40 MLOAD DUP1 SWAP2 SUB SWAP1 PUSH0 CREATE DUP1 ISZERO DUP1 ISZERO PUSH2 0xE2 JUMPI RETURNDATASIZE PUSH0 DUP1 RETURNDATACOPY RETURNDATASIZE PUSH0 REVERT JUMPDEST POP PUSH1 0x5 PUSH0 PUSH2 0x100 EXP DUP2 SLOAD DUP2 PUSH20 0xFFFFFFFFFFFFFFFFFFFFFFFFFFFFFFFFFFFFFFFF MUL NOT AND SWAP1 DUP4 PUSH20 0xFFFFFFFFFFFFFFFFFFFFFFFFFFFFFFFFFFFFFFFF AND MUL OR SWAP1 SSTORE POP POP POP POP POP PUSH2 0x402 JUMP JUMPDEST PUSH2 0x1D1A DUP1 PUSH2 0x22DE DUP4 CODECOPY ADD SWAP1 JUMP JUMPDEST PUSH0 PUSH1 0x40 MLOAD SWAP1 POP SWAP1 JUMP JUMPDEST PUSH0 DUP1 REVERT JUMPDEST PUSH0 DUP1 REVERT JUMPDEST PUSH0 PUSH20 0xFFFFFFFFFFFFFFFFFFFFFFFFFFFFFFFFFFFFFFFF DUP3 AND SWAP1 POP SWAP2 SWAP1 POP JUMP JUMPDEST PUSH0 PUSH2 0x172 DUP3 PUSH2 0x149 JUMP JUMPDEST SWAP1 POP SWAP2 SWAP1 POP JUMP JUMPDEST PUSH2 0x182 DUP2 PUSH2 0x168 JUMP JUMPDEST DUP2 EQ PUSH2 0x18C JUMPI PUSH0 DUP1 REVERT JUMPDEST POP JUMP JUMPDEST PUSH0 DUP2 MLOAD SWAP1 POP PUSH2 0x19D DUP2 PUSH2 0x179 JUMP JUMPDEST SWAP3 SWAP2 POP POP JUMP JUMPDEST PUSH0 DUP1 REVERT JUMPDEST PUSH0 DUP1 REVERT JUMPDEST PUSH0 PUSH1 0x1F NOT PUSH1 0x1F DUP4 ADD AND SWAP1 POP SWAP2 SWAP1 POP JUMP JUMPDEST PUSH32 0x4E487B7100000000000000000000000000000000000000000000000000000000 PUSH0 MSTORE PUSH1 0x41 PUSH1 0x4 MSTORE PUSH1 0x24 PUSH0 REVERT JUMPDEST PUSH2 0x1F1 DUP3 PUSH2 0x1AB JUMP JUMPDEST DUP2 ADD DUP2 DUP2 LT PUSH8 0xFFFFFFFFFFFFFFFF DUP3 GT OR ISZERO PUSH2 0x210 JUMPI PUSH2 0x20F PUSH2 0x1BB JUMP JUMPDEST JUMPDEST DUP1 PUSH1 0x40 MSTORE POP POP POP JUMP JUMPDEST PUSH0 PUSH2 0x222 PUSH2 0x138 JUMP JUMPDEST SWAP1 POP PUSH2 0x22E DUP3 DUP3 PUSH2 0x1E8 JUMP JUMPDEST SWAP2 SWAP1 POP JUMP JUMPDEST PUSH0 PUSH8 0xFFFFFFFFFFFFFFFF DUP3 GT ISZERO PUSH2 0x24D JUMPI PUSH2 0x24C PUSH2 0x1BB JUMP JUMPDEST JUMPDEST PUSH2 0x256 DUP3 PUSH2 0x1AB JUMP JUMPDEST SWAP1 POP PUSH1 0x20 DUP2 ADD SWAP1 POP SWAP2 SWAP1 POP JUMP JUMPDEST DUP3 DUP2 DUP4 MCOPY PUSH0 DUP4 DUP4 ADD MSTORE POP POP POP JUMP JUMPDEST PUSH0 PUSH2 0x283 PUSH2 0x27E DUP5 PUSH2 0x233 JUMP JUMPDEST PUSH2 0x219 JUMP JUMPDEST SWAP1 POP DUP3 DUP2 MSTORE PUSH1 0x20 DUP2 ADD DUP5 DUP5 DUP5 ADD GT ISZERO PUSH2 0x29F JUMPI PUSH2 0x29E PUSH2 0x1A7 JUMP JUMPDEST JUMPDEST PUSH2 0x2AA DUP5 DUP3 DUP6 PUSH2 0x263 JUMP JUMPDEST POP SWAP4 SWAP3 POP POP POP JUMP JUMPDEST PUSH0 DUP3 PUSH1 0x1F DUP4 ADD SLT PUSH2 0x2C6 JUMPI PUSH2 0x2C5 PUSH2 0x1A3 JUMP JUMPDEST JUMPDEST DUP2 MLOAD PUSH2 0x2D6 DUP5 DUP3 PUSH1 0x20 DUP7 ADD PUSH2 0x271 JUMP JUMPDEST SWAP2 POP POP SWAP3 SWAP2 POP POP JUMP JUMPDEST PUSH0 DUP1 PUSH0 DUP1 PUSH1 0x80 DUP6 DUP8 SUB SLT ISZERO PUSH2 0x2F7 JUMPI PUSH2 0x2F6 PUSH2 0x141 JUMP JUMPDEST JUMPDEST PUSH0 PUSH2 0x304 DUP8 DUP3 DUP9 ADD PUSH2 0x18F JUMP JUMPDEST SWAP5 POP POP PUSH1 0x20 PUSH2 0x315 DUP8 DUP3 DUP9 ADD PUSH2 0x18F JUMP JUMPDEST SWAP4 POP POP PUSH1 0x40 DUP6 ADD MLOAD PUSH8 0xFFFFFFFFFFFFFFFF DUP2 GT ISZERO PUSH2 0x336 JUMPI PUSH2 0x335 PUSH2 0x145 JUMP JUMPDEST JUMPDEST PUSH2 0x342 DUP8 DUP3 DUP9 ADD PUSH2 0x2B2 JUMP JUMPDEST SWAP3 POP POP PUSH1 0x60 DUP6 ADD MLOAD PUSH8 0xFFFFFFFFFFFFFFFF DUP2 GT ISZERO PUSH2 0x363 JUMPI PUSH2 0x362 PUSH2 0x145 JUMP JUMPDEST JUMPDEST PUSH2 0x36F DUP8 DUP3 DUP9 ADD PUSH2 0x2B2 JUMP JUMPDEST SWAP2 POP POP SWAP3 SWAP6 SWAP2 SWAP5 POP SWAP3 POP JUMP JUMPDEST PUSH0 DUP2 MLOAD SWAP1 POP SWAP2 SWAP1 POP JUMP JUMPDEST PUSH0 DUP3 DUP3 MSTORE PUSH1 0x20 DUP3 ADD SWAP1 POP SWAP3 SWAP2 POP POP JUMP JUMPDEST PUSH0 PUSH2 0x39F DUP3 PUSH2 0x37B JUMP JUMPDEST PUSH2 0x3A9 DUP2 DUP6 PUSH2 0x385 JUMP JUMPDEST SWAP4 POP PUSH2 0x3B9 DUP2 DUP6 PUSH1 0x20 DUP7 ADD PUSH2 0x263 JUMP JUMPDEST PUSH2 0x3C2 DUP2 PUSH2 0x1AB JUMP JUMPDEST DUP5 ADD SWAP2 POP POP SWAP3 SWAP2 POP POP JUMP JUMPDEST PUSH0 PUSH1 0x40 DUP3 ADD SWAP1 POP DUP2 DUP2 SUB PUSH0 DUP4 ADD MSTORE PUSH2 0x3E5 DUP2 DUP6 PUSH2 0x395 JUMP JUMPDEST SWAP1 POP DUP2 DUP2 SUB PUSH1 0x20 DUP4 ADD MSTORE PUSH2 0x3F9 DUP2 DUP5 PUSH2 0x395 JUMP JUMPDEST SWAP1 POP SWAP4 SWAP3 POP POP POP JUMP JUMPDEST PUSH2 0x1ECF DUP1 PUSH2 0x40F PUSH0 CODECOPY PUSH0 RETURN INVALID PUSH1 0x80 PUSH1 0x40 MSTORE CALLVALUE DUP1 ISZERO PUSH2 0xF JUMPI PUSH0 DUP1 REVERT JUMPDEST POP PUSH1 0x4 CALLDATASIZE LT PUSH2 0x91 JUMPI PUSH0 CALLDATALOAD PUSH1 0xE0 SHR DUP1 PUSH4 0x5C0B9A2B GT PUSH2 0x64 JUMPI DUP1 PUSH4 0x5C0B9A2B EQ PUSH2 0x10D JUMPI DUP1 PUSH4 0x8E18CDFC EQ PUSH2 0x12B JUMPI DUP1 PUSH4 0x9CD441DA EQ PUSH2 0x147 JUMPI DUP1 PUSH4 0xD21220A7 EQ PUSH2 0x163 JUMPI DUP1 PUSH4 0xD885B25C EQ PUSH2 0x181 JUMPI PUSH2 0x91 JUMP JUMPDEST DUP1 PUSH4 0x182520E8 EQ PUSH2 0x95 JUMPI DUP1 PUSH4 0x25BE124E EQ PUSH2 0xB3 JUMPI DUP1 PUSH4 0x37526016 EQ PUSH2 0xD1 JUMPI DUP1 PUSH4 0x5A76F25E EQ PUSH2 0xEF JUMPI JUMPDEST PUSH0 DUP1 REVERT JUMPDEST PUSH2 0x9D PUSH2 0x19D JUMP JUMPDEST PUSH1 0x40 MLOAD PUSH2 0xAA SWAP2 SWAP1 PUSH2 0x1498 JUMP JUMPDEST PUSH1 0x40 MLOAD DUP1 SWAP2 SUB SWAP1 RETURN JUMPDEST PUSH2 0xBB PUSH2 0x1A3 JUMP JUMPDEST PUSH1 0x40 MLOAD PUSH2 0xC8 SWAP2 SWAP1 PUSH2 0x14F0 JUMP JUMPDEST PUSH1 0x40 MLOAD DUP1 SWAP2 SUB SWAP1 RETURN JUMPDEST PUSH2 0xD9 PUSH2 0x1C8 JUMP JUMPDEST PUSH1 0x40 MLOAD PUSH2 0xE6 SWAP2 SWAP1 PUSH2 0x1564 JUMP JUMPDEST PUSH1 0x40 MLOAD DUP1 SWAP2 SUB SWAP1 RETURN JUMPDEST PUSH2 0xF7 PUSH2 0x1ED JUMP JUMPDEST PUSH1 0x40 MLOAD PUSH2 0x104 SWAP2 SWAP1 PUSH2 0x1498 JUMP JUMPDEST PUSH1 0x40 MLOAD DUP1 SWAP2 SUB SWAP1 RETURN JUMPDEST PUSH2 0x115 PUSH2 0x1F3 JUMP JUMPDEST PUSH1 0x40 MLOAD PUSH2 0x122 SWAP2 SWAP1 PUSH2 0x1498 JUMP JUMPDEST PUSH1 0x40 MLOAD DUP1 SWAP2 SUB SWAP1 RETURN JUMPDEST PUSH2 0x145 PUSH1 0x4 DUP1 CALLDATASIZE SUB DUP2 ADD SWAP1 PUSH2 0x140 SWAP2 SWAP1 PUSH2 0x15D5 JUMP JUMPDEST PUSH2 0x1F9 JUMP JUMPDEST STOP JUMPDEST PUSH2 0x161 PUSH1 0x4 DUP1 CALLDATASIZE SUB DUP2 ADD SWAP1 PUSH2 0x15C SWAP2 SWAP1 PUSH2 0x1639 JUMP JUMPDEST PUSH2 0xA11 JUMP JUMPDEST STOP JUMPDEST PUSH2 0x16B PUSH2 0xDAD JUMP JUMPDEST PUSH1 0x40 MLOAD PUSH2 0x178 SWAP2 SWAP1 PUSH2 0x14F0 JUMP JUMPDEST PUSH1 0x40 MLOAD DUP1 SWAP2 SUB SWAP1 RETURN JUMPDEST PUSH2 0x19B PUSH1 0x4 DUP1 CALLDATASIZE SUB DUP2 ADD SWAP1 PUSH2 0x196 SWAP2 SWAP1 PUSH2 0x1677 JUMP JUMPDEST PUSH2 0xDD0 JUMP JUMPDEST STOP JUMPDEST PUSH1 0x4 SLOAD DUP2 JUMP JUMPDEST PUSH1 0x1 PUSH0 SWAP1 SLOAD SWAP1 PUSH2 0x100 EXP SWAP1 DIV PUSH20 0xFFFFFFFFFFFFFFFFFFFFFFFFFFFFFFFFFFFFFFFF AND DUP2 JUMP JUMPDEST PUSH1 0x5 PUSH0 SWAP1 SLOAD SWAP1 PUSH2 0x100 EXP SWAP1 DIV PUSH20 0xFFFFFFFFFFFFFFFFFFFFFFFFFFFFFFFFFFFFFFFF AND DUP2 JUMP JUMPDEST PUSH1 0x2 SLOAD DUP2 JUMP JUMPDEST PUSH1 0x3 SLOAD DUP2 JUMP JUMPDEST PUSH0 DUP3 GT DUP1 ISZERO PUSH2 0x207 JUMPI POP PUSH0 DUP2 GT JUMPDEST PUSH2 0x246 JUMPI PUSH1 0x40 MLOAD PUSH32 0x8C379A000000000000000000000000000000000000000000000000000000000 DUP2 MSTORE PUSH1 0x4 ADD PUSH2 0x23D SWAP1 PUSH2 0x16FC JUMP JUMPDEST PUSH1 0x40 MLOAD DUP1 SWAP2 SUB SWAP1 REVERT JUMPDEST PUSH0 DUP1 SLOAD SWAP1 PUSH2 0x100 EXP SWAP1 DIV PUSH20 0xFFFFFFFFFFFFFFFFFFFFFFFFFFFFFFFFFFFFFFFF AND PUSH20 0xFFFFFFFFFFFFFFFFFFFFFFFFFFFFFFFFFFFFFFFF AND DUP5 PUSH20 0xFFFFFFFFFFFFFFFFFFFFFFFFFFFFFFFFFFFFFFFF AND EQ DUP1 ISZERO PUSH2 0x2EC JUMPI POP PUSH1 0x1 PUSH0 SWAP1 SLOAD SWAP1 PUSH2 0x100 EXP SWAP1 DIV PUSH20 0xFFFFFFFFFFFFFFFFFFFFFFFFFFFFFFFFFFFFFFFF AND PUSH20 0xFFFFFFFFFFFFFFFFFFFFFFFFFFFFFFFFFFFFFFFF AND DUP4 PUSH20 0xFFFFFFFFFFFFFFFFFFFFFFFFFFFFFFFFFFFFFFFF AND EQ JUMPDEST DUP1 PUSH2 0x399 JUMPI POP PUSH1 0x1 PUSH0 SWAP1 SLOAD SWAP1 PUSH2 0x100 EXP SWAP1 DIV PUSH20 0xFFFFFFFFFFFFFFFFFFFFFFFFFFFFFFFFFFFFFFFF AND PUSH20 0xFFFFFFFFFFFFFFFFFFFFFFFFFFFFFFFFFFFFFFFF AND DUP5 PUSH20 0xFFFFFFFFFFFFFFFFFFFFFFFFFFFFFFFFFFFFFFFF AND EQ DUP1 ISZERO PUSH2 0x398 JUMPI POP PUSH0 DUP1 SLOAD SWAP1 PUSH2 0x100 EXP SWAP1 DIV PUSH20 0xFFFFFFFFFFFFFFFFFFFFFFFFFFFFFFFFFFFFFFFF AND PUSH20 0xFFFFFFFFFFFFFFFFFFFFFFFFFFFFFFFFFFFFFFFF AND DUP4 PUSH20 0xFFFFFFFFFFFFFFFFFFFFFFFFFFFFFFFFFFFFFFFF AND EQ JUMPDEST JUMPDEST PUSH2 0x3D8 JUMPI PUSH1 0x40 MLOAD PUSH32 0x8C379A000000000000000000000000000000000000000000000000000000000 DUP2 MSTORE PUSH1 0x4 ADD PUSH2 0x3CF SWAP1 PUSH2 0x178A JUMP JUMPDEST PUSH1 0x40 MLOAD DUP1 SWAP2 SUB SWAP1 REVERT JUMPDEST PUSH0 DUP5 SWAP1 POP PUSH0 DUP5 SWAP1 POP DUP4 DUP3 PUSH20 0xFFFFFFFFFFFFFFFFFFFFFFFFFFFFFFFFFFFFFFFF AND PUSH4 0x70A08231 CALLER PUSH1 0x40 MLOAD DUP3 PUSH4 0xFFFFFFFF AND PUSH1 0xE0 SHL DUP2 MSTORE PUSH1 0x4 ADD PUSH2 0x41A SWAP2 SWAP1 PUSH2 0x14F0 JUMP JUMPDEST PUSH1 0x20 PUSH1 0x40 MLOAD DUP1 DUP4 SUB DUP2 DUP7 GAS STATICCALL ISZERO DUP1 ISZERO PUSH2 0x435 JUMPI RETURNDATASIZE PUSH0 DUP1 RETURNDATACOPY RETURNDATASIZE PUSH0 REVERT JUMPDEST POP POP POP POP PUSH1 0x40 MLOAD RETURNDATASIZE PUSH1 0x1F NOT PUSH1 0x1F DUP3 ADD AND DUP3 ADD DUP1 PUSH1 0x40 MSTORE POP DUP2 ADD SWAP1 PUSH2 0x459 SWAP2 SWAP1 PUSH2 0x17BC JUMP JUMPDEST GT PUSH2 0x499 JUMPI PUSH1 0x40 MLOAD PUSH32 0x8C379A000000000000000000000000000000000000000000000000000000000 DUP2 MSTORE PUSH1 0x4 ADD PUSH2 0x490 SWAP1 PUSH2 0x1857 JUMP JUMPDEST PUSH1 0x40 MLOAD DUP1 SWAP2 SUB SWAP1 REVERT JUMPDEST DUP3 DUP2 PUSH20 0xFFFFFFFFFFFFFFFFFFFFFFFFFFFFFFFFFFFFFFFF AND PUSH4 0x70A08231 ADDRESS PUSH1 0x40 MLOAD DUP3 PUSH4 0xFFFFFFFF AND PUSH1 0xE0 SHL DUP2 MSTORE PUSH1 0x4 ADD PUSH2 0x4D3 SWAP2 SWAP1 PUSH2 0x14F0 JUMP JUMPDEST PUSH1 0x20 PUSH1 0x40 MLOAD DUP1 DUP4 SUB DUP2 DUP7 GAS STATICCALL ISZERO DUP1 ISZERO PUSH2 0x4EE JUMPI RETURNDATASIZE PUSH0 DUP1 RETURNDATACOPY RETURNDATASIZE PUSH0 REVERT JUMPDEST POP POP POP POP PUSH1 0x40 MLOAD RETURNDATASIZE PUSH1 0x1F NOT PUSH1 0x1F DUP3 ADD AND DUP3 ADD DUP1 PUSH1 0x40 MSTORE POP DUP2 ADD SWAP1 PUSH2 0x512 SWAP2 SWAP1 PUSH2 0x17BC JUMP JUMPDEST GT PUSH2 0x552 JUMPI PUSH1 0x40 MLOAD PUSH32 0x8C379A000000000000000000000000000000000000000000000000000000000 DUP2 MSTORE PUSH1 0x4 ADD PUSH2 0x549 SWAP1 PUSH2 0x18BF JUMP JUMPDEST PUSH1 0x40 MLOAD DUP1 SWAP2 SUB SWAP1 REVERT JUMPDEST PUSH0 DUP1 PUSH0 SWAP1 SLOAD SWAP1 PUSH2 0x100 EXP SWAP1 DIV PUSH20 0xFFFFFFFFFFFFFFFFFFFFFFFFFFFFFFFFFFFFFFFF AND PUSH20 0xFFFFFFFFFFFFFFFFFFFFFFFFFFFFFFFFFFFFFFFF AND DUP8 PUSH20 0xFFFFFFFFFFFFFFFFFFFFFFFFFFFFFFFFFFFFFFFF AND EQ DUP1 ISZERO PUSH2 0x5FA JUMPI POP PUSH1 0x1 PUSH0 SWAP1 SLOAD SWAP1 PUSH2 0x100 EXP SWAP1 DIV PUSH20 0xFFFFFFFFFFFFFFFFFFFFFFFFFFFFFFFFFFFFFFFF AND PUSH20 0xFFFFFFFFFFFFFFFFFFFFFFFFFFFFFFFFFFFFFFFF AND DUP7 PUSH20 0xFFFFFFFFFFFFFFFFFFFFFFFFFFFFFFFFFFFFFFFF AND EQ JUMPDEST ISZERO PUSH2 0x643 JUMPI PUSH2 0x63C PUSH1 0x3 SLOAD PUSH2 0x62E PUSH2 0x61D DUP9 PUSH1 0x2 SLOAD PUSH2 0x11E4 SWAP1 SWAP2 SWAP1 PUSH4 0xFFFFFFFF AND JUMP JUMPDEST PUSH1 0x4 SLOAD PUSH2 0x11F9 SWAP1 SWAP2 SWAP1 PUSH4 0xFFFFFFFF AND JUMP JUMPDEST PUSH2 0x11E4 SWAP1 SWAP2 SWAP1 PUSH4 0xFFFFFFFF AND JUMP JUMPDEST SWAP1 POP PUSH2 0x683 JUMP JUMPDEST PUSH2 0x680 PUSH1 0x2 SLOAD PUSH2 0x672 PUSH2 0x661 DUP9 PUSH1 0x3 SLOAD PUSH2 0x11E4 SWAP1 SWAP2 SWAP1 PUSH4 0xFFFFFFFF AND JUMP JUMPDEST PUSH1 0x4 SLOAD PUSH2 0x11F9 SWAP1 SWAP2 SWAP1 PUSH4 0xFFFFFFFF AND JUMP JUMPDEST PUSH2 0x11E4 SWAP1 SWAP2 SWAP1 PUSH4 0xFFFFFFFF AND JUMP JUMPDEST SWAP1 POP JUMPDEST DUP1 DUP5 GT ISZERO PUSH2 0x6C6 JUMPI PUSH1 0x40 MLOAD PUSH32 0x8C379A000000000000000000000000000000000000000000000000000000000 DUP2 MSTORE PUSH1 0x4 ADD PUSH2 0x6BD SWAP1 PUSH2 0x194D JUMP JUMPDEST PUSH1 0x40 MLOAD DUP1 SWAP2 SUB SWAP1 REVERT JUMPDEST DUP3 PUSH20 0xFFFFFFFFFFFFFFFFFFFFFFFFFFFFFFFFFFFFFFFF AND PUSH4 0x23B872DD CALLER ADDRESS DUP9 PUSH1 0x40 MLOAD DUP5 PUSH4 0xFFFFFFFF AND PUSH1 0xE0 SHL DUP2 MSTORE PUSH1 0x4 ADD PUSH2 0x703 SWAP4 SWAP3 SWAP2 SWAP1 PUSH2 0x196B JUMP JUMPDEST PUSH1 0x20 PUSH1 0x40 MLOAD DUP1 DUP4 SUB DUP2 PUSH0 DUP8 GAS CALL ISZERO DUP1 ISZERO PUSH2 0x71F JUMPI RETURNDATASIZE PUSH0 DUP1 RETURNDATACOPY RETURNDATASIZE PUSH0 REVERT JUMPDEST POP POP POP POP PUSH1 0x40 MLOAD RETURNDATASIZE PUSH1 0x1F NOT PUSH1 0x1F DUP3 ADD AND DUP3 ADD DUP1 PUSH1 0x40 MSTORE POP DUP2 ADD SWAP1 PUSH2 0x743 SWAP2 SWAP1 PUSH2 0x19D5 JUMP JUMPDEST PUSH2 0x782 JUMPI PUSH1 0x40 MLOAD PUSH32 0x8C379A000000000000000000000000000000000000000000000000000000000 DUP2 MSTORE PUSH1 0x4 ADD PUSH2 0x779 SWAP1 PUSH2 0x1A4A JUMP JUMPDEST PUSH1 0x40 MLOAD DUP1 SWAP2 SUB SWAP1 REVERT JUMPDEST DUP2 PUSH20 0xFFFFFFFFFFFFFFFFFFFFFFFFFFFFFFFFFFFFFFFF AND PUSH4 0xA9059CBB CALLER DUP4 PUSH1 0x40 MLOAD DUP4 PUSH4 0xFFFFFFFF AND PUSH1 0xE0 SHL DUP2 MSTORE PUSH1 0x4 ADD PUSH2 0x7BD SWAP3 SWAP2 SWAP1 PUSH2 0x1A68 JUMP JUMPDEST PUSH1 0x20 PUSH1 0x40 MLOAD DUP1 DUP4 SUB DUP2 PUSH0 DUP8 GAS CALL ISZERO DUP1 ISZERO PUSH2 0x7D9 JUMPI RETURNDATASIZE PUSH0 DUP1 RETURNDATACOPY RETURNDATASIZE PUSH0 REVERT JUMPDEST POP POP POP POP PUSH1 0x40 MLOAD RETURNDATASIZE PUSH1 0x1F NOT PUSH1 0x1F DUP3 ADD AND DUP3 ADD DUP1 PUSH1 0x40 MSTORE POP DUP2 ADD SWAP1 PUSH2 0x7FD SWAP2 SWAP1 PUSH2 0x19D5 JUMP JUMPDEST PUSH2 0x83C JUMPI PUSH1 0x40 MLOAD PUSH32 0x8C379A000000000000000000000000000000000000000000000000000000000 DUP2 MSTORE PUSH1 0x4 ADD PUSH2 0x833 SWAP1 PUSH2 0x1AD9 JUMP JUMPDEST PUSH1 0x40 MLOAD DUP1 SWAP2 SUB SWAP1 REVERT JUMPDEST PUSH0 DUP1 SLOAD SWAP1 PUSH2 0x100 EXP SWAP1 DIV PUSH20 0xFFFFFFFFFFFFFFFFFFFFFFFFFFFFFFFFFFFFFFFF AND PUSH20 0xFFFFFFFFFFFFFFFFFFFFFFFFFFFFFFFFFFFFFFFF AND DUP8 PUSH20 0xFFFFFFFFFFFFFFFFFFFFFFFFFFFFFFFFFFFFFFFF AND EQ DUP1 ISZERO PUSH2 0x8E2 JUMPI POP PUSH1 0x1 PUSH0 SWAP1 SLOAD SWAP1 PUSH2 0x100 EXP SWAP1 DIV PUSH20 0xFFFFFFFFFFFFFFFFFFFFFFFFFFFFFFFFFFFFFFFF AND PUSH20 0xFFFFFFFFFFFFFFFFFFFFFFFFFFFFFFFFFFFFFFFF AND DUP7 PUSH20 0xFFFFFFFFFFFFFFFFFFFFFFFFFFFFFFFFFFFFFFFF AND EQ JUMPDEST ISZERO PUSH2 0x922 JUMPI PUSH2 0x8FC DUP6 PUSH1 0x2 SLOAD PUSH2 0x120E SWAP1 SWAP2 SWAP1 PUSH4 0xFFFFFFFF AND JUMP JUMPDEST PUSH1 0x2 DUP2 SWAP1 SSTORE POP PUSH2 0x917 DUP2 PUSH1 0x3 SLOAD PUSH2 0x11E4 SWAP1 SWAP2 SWAP1 PUSH4 0xFFFFFFFF AND JUMP JUMPDEST PUSH1 0x3 DUP2 SWAP1 SSTORE POP PUSH2 0x959 JUMP JUMPDEST PUSH2 0x937 DUP2 PUSH1 0x2 SLOAD PUSH2 0x11E4 SWAP1 SWAP2 SWAP1 PUSH4 0xFFFFFFFF AND JUMP JUMPDEST PUSH1 0x2 DUP2 SWAP1 SSTORE POP PUSH2 0x952 DUP6 PUSH1 0x3 SLOAD PUSH2 0x120E SWAP1 SWAP2 SWAP1 PUSH4 0xFFFFFFFF AND JUMP JUMPDEST PUSH1 0x3 DUP2 SWAP1 SSTORE POP JUMPDEST PUSH1 0x4 SLOAD PUSH2 0x973 PUSH1 0x3 SLOAD PUSH1 0x2 SLOAD PUSH2 0x1223 SWAP1 SWAP2 SWAP1 PUSH4 0xFFFFFFFF AND JUMP JUMPDEST GT ISZERO PUSH2 0x9B4 JUMPI PUSH1 0x40 MLOAD PUSH32 0x8C379A000000000000000000000000000000000000000000000000000000000 DUP2 MSTORE PUSH1 0x4 ADD PUSH2 0x9AB SWAP1 PUSH2 0x194D JUMP JUMPDEST PUSH1 0x40 MLOAD DUP1 SWAP2 SUB SWAP1 REVERT JUMPDEST CALLER PUSH20 0xFFFFFFFFFFFFFFFFFFFFFFFFFFFFFFFFFFFFFFFF AND PUSH32 0x53D794B2310B8D186A24AE24A65EE066983A52A6EFA6BD3DF09A7601A3CB4F3 DUP7 DUP4 DUP11 DUP11 PUSH1 0x40 MLOAD PUSH2 0xA00 SWAP5 SWAP4 SWAP3 SWAP2 SWAP1 PUSH2 0x1AF7 JUMP JUMPDEST PUSH1 0x40 MLOAD DUP1 SWAP2 SUB SWAP1 LOG2 POP POP POP POP POP POP POP JUMP JUMPDEST PUSH0 DUP1 PUSH1 0x5 PUSH0 SWAP1 SLOAD SWAP1 PUSH2 0x100 EXP SWAP1 DIV PUSH20 0xFFFFFFFFFFFFFFFFFFFFFFFFFFFFFFFFFFFFFFFF AND PUSH20 0xFFFFFFFFFFFFFFFFFFFFFFFFFFFFFFFFFFFFFFFF AND PUSH4 0x18160DDD PUSH1 0x40 MLOAD DUP2 PUSH4 0xFFFFFFFF AND PUSH1 0xE0 SHL DUP2 MSTORE PUSH1 0x4 ADD PUSH1 0x20 PUSH1 0x40 MLOAD DUP1 DUP4 SUB DUP2 DUP7 GAS STATICCALL ISZERO DUP1 ISZERO PUSH2 0xA7D JUMPI RETURNDATASIZE PUSH0 DUP1 RETURNDATACOPY RETURNDATASIZE PUSH0 REVERT JUMPDEST POP POP POP POP PUSH1 0x40 MLOAD RETURNDATASIZE PUSH1 0x1F NOT PUSH1 0x1F DUP3 ADD AND DUP3 ADD DUP1 PUSH1 0x40 MSTORE POP DUP2 ADD SWAP1 PUSH2 0xAA1 SWAP2 SWAP1 PUSH2 0x17BC JUMP JUMPDEST SWAP1 POP PUSH0 DUP2 SUB PUSH2 0xACC JUMPI PUSH2 0xAC5 PUSH2 0xAC0 DUP5 DUP7 PUSH2 0x1223 SWAP1 SWAP2 SWAP1 PUSH4 0xFFFFFFFF AND JUMP JUMPDEST PUSH2 0x1238 JUMP JUMPDEST SWAP2 POP PUSH2 0xB2E JUMP JUMPDEST PUSH2 0xB2B PUSH2 0xAF6 PUSH1 0x3 SLOAD PUSH2 0xAE8 DUP5 DUP8 PUSH2 0x1223 SWAP1 SWAP2 SWAP1 PUSH4 0xFFFFFFFF AND JUMP JUMPDEST PUSH2 0x11F9 SWAP1 SWAP2 SWAP1 PUSH4 0xFFFFFFFF AND JUMP JUMPDEST PUSH2 0xB1D PUSH1 0x2 SLOAD PUSH2 0xB0F DUP6 DUP10 PUSH2 0x1223 SWAP1 SWAP2 SWAP1 PUSH4 0xFFFFFFFF AND JUMP JUMPDEST PUSH2 0x11F9 SWAP1 SWAP2 SWAP1 PUSH4 0xFFFFFFFF AND JUMP JUMPDEST PUSH2 0x132E SWAP1 SWAP2 SWAP1 PUSH4 0xFFFFFFFF AND JUMP JUMPDEST SWAP2 POP JUMPDEST PUSH1 0x5 PUSH0 SWAP1 SLOAD SWAP1 PUSH2 0x100 EXP SWAP1 DIV PUSH20 0xFFFFFFFFFFFFFFFFFFFFFFFFFFFFFFFFFFFFFFFF AND PUSH20 0xFFFFFFFFFFFFFFFFFFFFFFFFFFFFFFFFFFFFFFFF AND PUSH4 0x40C10F19 CALLER DUP5 PUSH1 0x40 MLOAD DUP4 PUSH4 0xFFFFFFFF AND PUSH1 0xE0 SHL DUP2 MSTORE PUSH1 0x4 ADD PUSH2 0xB8A SWAP3 SWAP2 SWAP1 PUSH2 0x1A68 JUMP JUMPDEST PUSH0 PUSH1 0x40 MLOAD DUP1 DUP4 SUB DUP2 PUSH0 DUP8 DUP1 EXTCODESIZE ISZERO DUP1 ISZERO PUSH2 0xBA1 JUMPI PUSH0 DUP1 REVERT JUMPDEST POP GAS CALL ISZERO DUP1 ISZERO PUSH2 0xBB3 JUMPI RETURNDATASIZE PUSH0 DUP1 RETURNDATACOPY RETURNDATASIZE PUSH0 REVERT JUMPDEST POP POP POP POP PUSH0 DUP1 SLOAD SWAP1 PUSH2 0x100 EXP SWAP1 DIV PUSH20 0xFFFFFFFFFFFFFFFFFFFFFFFFFFFFFFFFFFFFFFFF AND PUSH20 0xFFFFFFFFFFFFFFFFFFFFFFFFFFFFFFFFFFFFFFFF AND PUSH4 0x23B872DD CALLER ADDRESS DUP8 PUSH1 0x40 MLOAD DUP5 PUSH4 0xFFFFFFFF AND PUSH1 0xE0 SHL DUP2 MSTORE PUSH1 0x4 ADD PUSH2 0xC13 SWAP4 SWAP3 SWAP2 SWAP1 PUSH2 0x196B JUMP JUMPDEST PUSH1 0x20 PUSH1 0x40 MLOAD DUP1 DUP4 SUB DUP2 PUSH0 DUP8 GAS CALL ISZERO DUP1 ISZERO PUSH2 0xC2F JUMPI RETURNDATASIZE PUSH0 DUP1 RETURNDATACOPY RETURNDATASIZE PUSH0 REVERT JUMPDEST POP POP POP POP PUSH1 0x40 MLOAD RETURNDATASIZE PUSH1 0x1F NOT PUSH1 0x1F DUP3 ADD AND DUP3 ADD DUP1 PUSH1 0x40 MSTORE POP DUP2 ADD SWAP1 PUSH2 0xC53 SWAP2 SWAP1 PUSH2 0x19D5 JUMP JUMPDEST PUSH2 0xC92 JUMPI PUSH1 0x40 MLOAD PUSH32 0x8C379A000000000000000000000000000000000000000000000000000000000 DUP2 MSTORE PUSH1 0x4 ADD PUSH2 0xC89 SWAP1 PUSH2 0x1B84 JUMP JUMPDEST PUSH1 0x40 MLOAD DUP1 SWAP2 SUB SWAP1 REVERT JUMPDEST PUSH1 0x1 PUSH0 SWAP1 SLOAD SWAP1 PUSH2 0x100 EXP SWAP1 DIV PUSH20 0xFFFFFFFFFFFFFFFFFFFFFFFFFFFFFFFFFFFFFFFF AND PUSH20 0xFFFFFFFFFFFFFFFFFFFFFFFFFFFFFFFFFFFFFFFF AND PUSH4 0x23B872DD CALLER ADDRESS DUP7 PUSH1 0x40 MLOAD DUP5 PUSH4 0xFFFFFFFF AND PUSH1 0xE0 SHL DUP2 MSTORE PUSH1 0x4 ADD PUSH2 0xCF0 SWAP4 SWAP3 SWAP2 SWAP1 PUSH2 0x196B JUMP JUMPDEST PUSH1 0x20 PUSH1 0x40 MLOAD DUP1 DUP4 SUB DUP2 PUSH0 DUP8 GAS CALL ISZERO DUP1 ISZERO PUSH2 0xD0C JUMPI RETURNDATASIZE PUSH0 DUP1 RETURNDATACOPY RETURNDATASIZE PUSH0 REVERT JUMPDEST POP POP POP POP PUSH1 0x40 MLOAD RETURNDATASIZE PUSH1 0x1F NOT PUSH1 0x1F DUP3 ADD AND DUP3 ADD DUP1 PUSH1 0x40 MSTORE POP DUP2 ADD SWAP1 PUSH2 0xD30 SWAP2 SWAP1 PUSH2 0x19D5 JUMP JUMPDEST PUSH2 0xD6F JUMPI PUSH1 0x40 MLOAD PUSH32 0x8C379A000000000000000000000000000000000000000000000000000000000 DUP2 MSTORE PUSH1 0x4 ADD PUSH2 0xD66 SWAP1 PUSH2 0x1BEC JUMP JUMPDEST PUSH1 0x40 MLOAD DUP1 SWAP2 SUB SWAP1 REVERT JUMPDEST DUP4 PUSH1 0x2 PUSH0 DUP3 DUP3 SLOAD PUSH2 0xD80 SWAP2 SWAP1 PUSH2 0x1C37 JUMP JUMPDEST SWAP3 POP POP DUP2 SWAP1 SSTORE POP DUP3 PUSH1 0x3 PUSH0 DUP3 DUP3 SLOAD PUSH2 0xD98 SWAP2 SWAP1 PUSH2 0x1C37 JUMP JUMPDEST SWAP3 POP POP DUP2 SWAP1 SSTORE POP PUSH2 0xDA7 PUSH2 0x1346 JUMP JUMPDEST POP POP POP POP JUMP JUMPDEST PUSH0 DUP1 SLOAD SWAP1 PUSH2 0x100 EXP SWAP1 DIV PUSH20 0xFFFFFFFFFFFFFFFFFFFFFFFFFFFFFFFFFFFFFFFF AND DUP2 JUMP JUMPDEST PUSH0 PUSH1 0x5 PUSH0 SWAP1 SLOAD SWAP1 PUSH2 0x100 EXP SWAP1 DIV PUSH20 0xFFFFFFFFFFFFFFFFFFFFFFFFFFFFFFFFFFFFFFFF AND PUSH20 0xFFFFFFFFFFFFFFFFFFFFFFFFFFFFFFFFFFFFFFFF AND PUSH4 0x18160DDD PUSH1 0x40 MLOAD DUP2 PUSH4 0xFFFFFFFF AND PUSH1 0xE0 SHL DUP2 MSTORE PUSH1 0x4 ADD PUSH1 0x20 PUSH1 0x40 MLOAD DUP1 DUP4 SUB DUP2 DUP7 GAS STATICCALL ISZERO DUP1 ISZERO PUSH2 0xE3B JUMPI RETURNDATASIZE PUSH0 DUP1 RETURNDATACOPY RETURNDATASIZE PUSH0 REVERT JUMPDEST POP POP POP POP PUSH1 0x40 MLOAD RETURNDATASIZE PUSH1 0x1F NOT PUSH1 0x1F DUP3 ADD AND DUP3 ADD DUP1 PUSH1 0x40 MSTORE POP DUP2 ADD SWAP1 PUSH2 0xE5F SWAP2 SWAP1 PUSH2 0x17BC JUMP JUMPDEST SWAP1 POP PUSH1 0x5 PUSH0 SWAP1 SLOAD SWAP1 PUSH2 0x100 EXP SWAP1 DIV PUSH20 0xFFFFFFFFFFFFFFFFFFFFFFFFFFFFFFFFFFFFFFFF AND PUSH20 0xFFFFFFFFFFFFFFFFFFFFFFFFFFFFFFFFFFFFFFFF AND PUSH4 0x18160DDD PUSH1 0x40 MLOAD DUP2 PUSH4 0xFFFFFFFF AND PUSH1 0xE0 SHL DUP2 MSTORE PUSH1 0x4 ADD PUSH1 0x20 PUSH1 0x40 MLOAD DUP1 DUP4 SUB DUP2 DUP7 GAS STATICCALL ISZERO DUP1 ISZERO PUSH2 0xECB JUMPI RETURNDATASIZE PUSH0 DUP1 RETURNDATACOPY RETURNDATASIZE PUSH0 REVERT JUMPDEST POP POP POP POP PUSH1 0x40 MLOAD RETURNDATASIZE PUSH1 0x1F NOT PUSH1 0x1F DUP3 ADD AND DUP3 ADD DUP1 PUSH1 0x40 MSTORE POP DUP2 ADD SWAP1 PUSH2 0xEEF SWAP2 SWAP1 PUSH2 0x17BC JUMP JUMPDEST DUP3 GT ISZERO PUSH2 0xF31 JUMPI PUSH1 0x40 MLOAD PUSH32 0x8C379A000000000000000000000000000000000000000000000000000000000 DUP2 MSTORE PUSH1 0x4 ADD PUSH2 0xF28 SWAP1 PUSH2 0x1CDA JUMP JUMPDEST PUSH1 0x40 MLOAD DUP1 SWAP2 SUB SWAP1 REVERT JUMPDEST PUSH1 0x5 PUSH0 SWAP1 SLOAD SWAP1 PUSH2 0x100 EXP SWAP1 DIV PUSH20 0xFFFFFFFFFFFFFFFFFFFFFFFFFFFFFFFFFFFFFFFF AND PUSH20 0xFFFFFFFFFFFFFFFFFFFFFFFFFFFFFFFFFFFFFFFF AND PUSH4 0x9DC29FAC CALLER DUP5 PUSH1 0x40 MLOAD DUP4 PUSH4 0xFFFFFFFF AND PUSH1 0xE0 SHL DUP2 MSTORE PUSH1 0x4 ADD PUSH2 0xF8D SWAP3 SWAP2 SWAP1 PUSH2 0x1A68 JUMP JUMPDEST PUSH0 PUSH1 0x40 MLOAD DUP1 DUP4 SUB DUP2 PUSH0 DUP8 DUP1 EXTCODESIZE ISZERO DUP1 ISZERO PUSH2 0xFA4 JUMPI PUSH0 DUP1 REVERT JUMPDEST POP GAS CALL ISZERO DUP1 ISZERO PUSH2 0xFB6 JUMPI RETURNDATASIZE PUSH0 DUP1 RETURNDATACOPY RETURNDATASIZE PUSH0 REVERT JUMPDEST POP POP POP POP PUSH0 DUP2 DUP4 PUSH1 0x2 SLOAD PUSH2 0xFCA SWAP2 SWAP1 PUSH2 0x1CF8 JUMP JUMPDEST PUSH2 0xFD4 SWAP2 SWAP1 PUSH2 0x1D66 JUMP JUMPDEST SWAP1 POP PUSH0 DUP3 DUP5 PUSH1 0x3 SLOAD PUSH2 0xFE6 SWAP2 SWAP1 PUSH2 0x1CF8 JUMP JUMPDEST PUSH2 0xFF0 SWAP2 SWAP1 PUSH2 0x1D66 JUMP JUMPDEST SWAP1 POP PUSH0 DUP1 SLOAD SWAP1 PUSH2 0x100 EXP SWAP1 DIV PUSH20 0xFFFFFFFFFFFFFFFFFFFFFFFFFFFFFFFFFFFFFFFF AND PUSH20 0xFFFFFFFFFFFFFFFFFFFFFFFFFFFFFFFFFFFFFFFF AND PUSH4 0xA9059CBB CALLER DUP5 PUSH1 0x40 MLOAD DUP4 PUSH4 0xFFFFFFFF AND PUSH1 0xE0 SHL DUP2 MSTORE PUSH1 0x4 ADD PUSH2 0x104C SWAP3 SWAP2 SWAP1 PUSH2 0x1A68 JUMP JUMPDEST PUSH1 0x20 PUSH1 0x40 MLOAD DUP1 DUP4 SUB DUP2 PUSH0 DUP8 GAS CALL ISZERO DUP1 ISZERO PUSH2 0x1068 JUMPI RETURNDATASIZE PUSH0 DUP1 RETURNDATACOPY RETURNDATASIZE PUSH0 REVERT JUMPDEST POP POP POP POP PUSH1 0x40 MLOAD RETURNDATASIZE PUSH1 0x1F NOT PUSH1 0x1F DUP3 ADD AND DUP3 ADD DUP1 PUSH1 0x40 MSTORE POP DUP2 ADD SWAP1 PUSH2 0x108C SWAP2 SWAP1 PUSH2 0x19D5 JUMP JUMPDEST PUSH2 0x10CB JUMPI PUSH1 0x40 MLOAD PUSH32 0x8C379A000000000000000000000000000000000000000000000000000000000 DUP2 MSTORE PUSH1 0x4 ADD PUSH2 0x10C2 SWAP1 PUSH2 0x1DE0 JUMP JUMPDEST PUSH1 0x40 MLOAD DUP1 SWAP2 SUB SWAP1 REVERT JUMPDEST PUSH1 0x1 PUSH0 SWAP1 SLOAD SWAP1 PUSH2 0x100 EXP SWAP1 DIV PUSH20 0xFFFFFFFFFFFFFFFFFFFFFFFFFFFFFFFFFFFFFFFF AND PUSH20 0xFFFFFFFFFFFFFFFFFFFFFFFFFFFFFFFFFFFFFFFF AND PUSH4 0xA9059CBB CALLER DUP4 PUSH1 0x40 MLOAD DUP4 PUSH4 0xFFFFFFFF AND PUSH1 0xE0 SHL DUP2 MSTORE PUSH1 0x4 ADD PUSH2 0x1127 SWAP3 SWAP2 SWAP1 PUSH2 0x1A68 JUMP JUMPDEST PUSH1 0x20 PUSH1 0x40 MLOAD DUP1 DUP4 SUB DUP2 PUSH0 DUP8 GAS CALL ISZERO DUP1 ISZERO PUSH2 0x1143 JUMPI RETURNDATASIZE PUSH0 DUP1 RETURNDATACOPY RETURNDATASIZE PUSH0 REVERT JUMPDEST POP POP POP POP PUSH1 0x40 MLOAD RETURNDATASIZE PUSH1 0x1F NOT PUSH1 0x1F DUP3 ADD AND DUP3 ADD DUP1 PUSH1 0x40 MSTORE POP DUP2 ADD SWAP1 PUSH2 0x1167 SWAP2 SWAP1 PUSH2 0x19D5 JUMP JUMPDEST PUSH2 0x11A6 JUMPI PUSH1 0x40 MLOAD PUSH32 0x8C379A000000000000000000000000000000000000000000000000000000000 DUP2 MSTORE PUSH1 0x4 ADD PUSH2 0x119D SWAP1 PUSH2 0x1DE0 JUMP JUMPDEST PUSH1 0x40 MLOAD DUP1 SWAP2 SUB SWAP1 REVERT JUMPDEST DUP2 PUSH1 0x2 PUSH0 DUP3 DUP3 SLOAD PUSH2 0x11B7 SWAP2 SWAP1 PUSH2 0x1DFE JUMP JUMPDEST SWAP3 POP POP DUP2 SWAP1 SSTORE POP DUP1 PUSH1 0x3 PUSH0 DUP3 DUP3 SLOAD PUSH2 0x11CF SWAP2 SWAP1 PUSH2 0x1DFE JUMP JUMPDEST SWAP3 POP POP DUP2 SWAP1 SSTORE POP PUSH2 0x11DE PUSH2 0x1346 JUMP JUMPDEST POP POP POP POP JUMP JUMPDEST PUSH0 DUP2 DUP4 PUSH2 0x11F1 SWAP2 SWAP1 PUSH2 0x1DFE JUMP JUMPDEST SWAP1 POP SWAP3 SWAP2 POP POP JUMP JUMPDEST PUSH0 DUP2 DUP4 PUSH2 0x1206 SWAP2 SWAP1 PUSH2 0x1D66 JUMP JUMPDEST SWAP1 POP SWAP3 SWAP2 POP POP JUMP JUMPDEST PUSH0 DUP2 DUP4 PUSH2 0x121B SWAP2 SWAP1 PUSH2 0x1C37 JUMP JUMPDEST SWAP1 POP SWAP3 SWAP2 POP POP JUMP JUMPDEST PUSH0 DUP2 DUP4 PUSH2 0x1230 SWAP2 SWAP1 PUSH2 0x1CF8 JUMP JUMPDEST SWAP1 POP SWAP3 SWAP2 POP POP JUMP JUMPDEST PUSH0 DUP1 DUP3 SUB PUSH2 0x1248 JUMPI PUSH0 SWAP1 POP PUSH2 0x1329 JUMP JUMPDEST PUSH0 PUSH1 0x1 PUSH2 0x1254 DUP5 PUSH2 0x13A9 JUMP JUMPDEST SWAP1 SHR PUSH1 0x1 SWAP1 SHL SWAP1 POP PUSH1 0x1 DUP2 DUP5 DUP2 PUSH2 0x126E JUMPI PUSH2 0x126D PUSH2 0x1D39 JUMP JUMPDEST JUMPDEST DIV DUP3 ADD SWAP1 SHR SWAP1 POP PUSH1 0x1 DUP2 DUP5 DUP2 PUSH2 0x1287 JUMPI PUSH2 0x1286 PUSH2 0x1D39 JUMP JUMPDEST JUMPDEST DIV DUP3 ADD SWAP1 SHR SWAP1 POP PUSH1 0x1 DUP2 DUP5 DUP2 PUSH2 0x12A0 JUMPI PUSH2 0x129F PUSH2 0x1D39 JUMP JUMPDEST JUMPDEST DIV DUP3 ADD SWAP1 SHR SWAP1 POP PUSH1 0x1 DUP2 DUP5 DUP2 PUSH2 0x12B9 JUMPI PUSH2 0x12B8 PUSH2 0x1D39 JUMP JUMPDEST JUMPDEST DIV DUP3 ADD SWAP1 SHR SWAP1 POP PUSH1 0x1 DUP2 DUP5 DUP2 PUSH2 0x12D2 JUMPI PUSH2 0x12D1 PUSH2 0x1D39 JUMP JUMPDEST JUMPDEST DIV DUP3 ADD SWAP1 SHR SWAP1 POP PUSH1 0x1 DUP2 DUP5 DUP2 PUSH2 0x12EB JUMPI PUSH2 0x12EA PUSH2 0x1D39 JUMP JUMPDEST JUMPDEST DIV DUP3 ADD SWAP1 SHR SWAP1 POP PUSH1 0x1 DUP2 DUP5 DUP2 PUSH2 0x1304 JUMPI PUSH2 0x1303 PUSH2 0x1D39 JUMP JUMPDEST JUMPDEST DIV DUP3 ADD SWAP1 SHR SWAP1 POP PUSH2 0x1325 DUP2 DUP3 DUP6 DUP2 PUSH2 0x131F JUMPI PUSH2 0x131E PUSH2 0x1D39 JUMP JUMPDEST JUMPDEST DIV PUSH2 0x132E JUMP JUMPDEST SWAP2 POP POP JUMPDEST SWAP2 SWAP1 POP JUMP JUMPDEST PUSH0 DUP2 DUP4 LT PUSH2 0x133C JUMPI DUP2 PUSH2 0x133E JUMP JUMPDEST DUP3 JUMPDEST SWAP1 POP SWAP3 SWAP2 POP POP JUMP JUMPDEST PUSH2 0x135D PUSH1 0x3 SLOAD PUSH1 0x2 SLOAD PUSH2 0x1223 SWAP1 SWAP2 SWAP1 PUSH4 0xFFFFFFFF AND JUMP JUMPDEST PUSH1 0x4 DUP2 SWAP1 SSTORE POP PUSH0 PUSH1 0x4 SLOAD GT PUSH2 0x13A7 JUMPI PUSH1 0x40 MLOAD PUSH32 0x8C379A000000000000000000000000000000000000000000000000000000000 DUP2 MSTORE PUSH1 0x4 ADD PUSH2 0x139E SWAP1 PUSH2 0x1E7B JUMP JUMPDEST PUSH1 0x40 MLOAD DUP1 SWAP2 SUB SWAP1 REVERT JUMPDEST JUMP JUMPDEST PUSH0 DUP1 PUSH0 SWAP1 POP PUSH0 PUSH1 0x80 DUP5 SWAP1 SHR GT ISZERO PUSH2 0x13C8 JUMPI PUSH1 0x80 DUP4 SWAP1 SHR SWAP3 POP PUSH1 0x80 DUP2 ADD SWAP1 POP JUMPDEST PUSH0 PUSH1 0x40 DUP5 SWAP1 SHR GT ISZERO PUSH2 0x13E2 JUMPI PUSH1 0x40 DUP4 SWAP1 SHR SWAP3 POP PUSH1 0x40 DUP2 ADD SWAP1 POP JUMPDEST PUSH0 PUSH1 0x20 DUP5 SWAP1 SHR GT ISZERO PUSH2 0x13FC JUMPI PUSH1 0x20 DUP4 SWAP1 SHR SWAP3 POP PUSH1 0x20 DUP2 ADD SWAP1 POP JUMPDEST PUSH0 PUSH1 0x10 DUP5 SWAP1 SHR GT ISZERO PUSH2 0x1416 JUMPI PUSH1 0x10 DUP4 SWAP1 SHR SWAP3 POP PUSH1 0x10 DUP2 ADD SWAP1 POP JUMPDEST PUSH0 PUSH1 0x8 DUP5 SWAP1 SHR GT ISZERO PUSH2 0x1430 JUMPI PUSH1 0x8 DUP4 SWAP1 SHR SWAP3 POP PUSH1 0x8 DUP2 ADD SWAP1 POP JUMPDEST PUSH0 PUSH1 0x4 DUP5 SWAP1 SHR GT ISZERO PUSH2 0x144A JUMPI PUSH1 0x4 DUP4 SWAP1 SHR SWAP3 POP PUSH1 0x4 DUP2 ADD SWAP1 POP JUMPDEST PUSH0 PUSH1 0x2 DUP5 SWAP1 SHR GT ISZERO PUSH2 0x1464 JUMPI PUSH1 0x2 DUP4 SWAP1 SHR SWAP3 POP PUSH1 0x2 DUP2 ADD SWAP1 POP JUMPDEST PUSH0 PUSH1 0x1 DUP5 SWAP1 SHR GT ISZERO PUSH2 0x1477 JUMPI PUSH1 0x1 DUP2 ADD SWAP1 POP JUMPDEST DUP1 SWAP2 POP POP SWAP2 SWAP1 POP JUMP JUMPDEST PUSH0 DUP2 SWAP1 POP SWAP2 SWAP1 POP JUMP JUMPDEST PUSH2 0x1492 DUP2 PUSH2 0x1480 JUMP JUMPDEST DUP3 MSTORE POP POP JUMP JUMPDEST PUSH0 PUSH1 0x20 DUP3 ADD SWAP1 POP PUSH2 0x14AB PUSH0 DUP4 ADD DUP5 PUSH2 0x1489 JUMP JUMPDEST SWAP3 SWAP2 POP POP JUMP JUMPDEST PUSH0 PUSH20 0xFFFFFFFFFFFFFFFFFFFFFFFFFFFFFFFFFFFFFFFF DUP3 AND SWAP1 POP SWAP2 SWAP1 POP JUMP JUMPDEST PUSH0 PUSH2 0x14DA DUP3 PUSH2 0x14B1 JUMP JUMPDEST SWAP1 POP SWAP2 SWAP1 POP JUMP JUMPDEST PUSH2 0x14EA DUP2 PUSH2 0x14D0 JUMP JUMPDEST DUP3 MSTORE POP POP JUMP JUMPDEST PUSH0 PUSH1 0x20 DUP3 ADD SWAP1 POP PUSH2 0x1503 PUSH0 DUP4 ADD DUP5 PUSH2 0x14E1 JUMP JUMPDEST SWAP3 SWAP2 POP POP JUMP JUMPDEST PUSH0 DUP2 SWAP1 POP SWAP2 SWAP1 POP JUMP JUMPDEST PUSH0 PUSH2 0x152C PUSH2 0x1527 PUSH2 0x1522 DUP5 PUSH2 0x14B1 JUMP JUMPDEST PUSH2 0x1509 JUMP JUMPDEST PUSH2 0x14B1 JUMP JUMPDEST SWAP1 POP SWAP2 SWAP1 POP JUMP JUMPDEST PUSH0 PUSH2 0x153D DUP3 PUSH2 0x1512 JUMP JUMPDEST SWAP1 POP SWAP2 SWAP1 POP JUMP JUMPDEST PUSH0 PUSH2 0x154E DUP3 PUSH2 0x1533 JUMP JUMPDEST SWAP1 POP SWAP2 SWAP1 POP JUMP JUMPDEST PUSH2 0x155E DUP2 PUSH2 0x1544 JUMP JUMPDEST DUP3 MSTORE POP POP JUMP JUMPDEST PUSH0 PUSH1 0x20 DUP3 ADD SWAP1 POP PUSH2 0x1577 PUSH0 DUP4 ADD DUP5 PUSH2 0x1555 JUMP JUMPDEST SWAP3 SWAP2 POP POP JUMP JUMPDEST PUSH0 DUP1 REVERT JUMPDEST PUSH2 0x158A DUP2 PUSH2 0x14D0 JUMP JUMPDEST DUP2 EQ PUSH2 0x1594 JUMPI PUSH0 DUP1 REVERT JUMPDEST POP JUMP JUMPDEST PUSH0 DUP2 CALLDATALOAD SWAP1 POP PUSH2 0x15A5 DUP2 PUSH2 0x1581 JUMP JUMPDEST SWAP3 SWAP2 POP POP JUMP JUMPDEST PUSH2 0x15B4 DUP2 PUSH2 0x1480 JUMP JUMPDEST DUP2 EQ PUSH2 0x15BE JUMPI PUSH0 DUP1 REVERT JUMPDEST POP JUMP JUMPDEST PUSH0 DUP2 CALLDATALOAD SWAP1 POP PUSH2 0x15CF DUP2 PUSH2 0x15AB JUMP JUMPDEST SWAP3 SWAP2 POP POP JUMP JUMPDEST PUSH0 DUP1 PUSH0 DUP1 PUSH1 0x80 DUP6 DUP8 SUB SLT ISZERO PUSH2 0x15ED JUMPI PUSH2 0x15EC PUSH2 0x157D JUMP JUMPDEST JUMPDEST PUSH0 PUSH2 0x15FA DUP8 DUP3 DUP9 ADD PUSH2 0x1597 JUMP JUMPDEST SWAP5 POP POP PUSH1 0x20 PUSH2 0x160B DUP8 DUP3 DUP9 ADD PUSH2 0x1597 JUMP JUMPDEST SWAP4 POP POP PUSH1 0x40 PUSH2 0x161C DUP8 DUP3 DUP9 ADD PUSH2 0x15C1 JUMP JUMPDEST SWAP3 POP POP PUSH1 0x60 PUSH2 0x162D DUP8 DUP3 DUP9 ADD PUSH2 0x15C1 JUMP JUMPDEST SWAP2 POP POP SWAP3 SWAP6 SWAP2 SWAP5 POP SWAP3 POP JUMP JUMPDEST PUSH0 DUP1 PUSH1 0x40 DUP4 DUP6 SUB SLT ISZERO PUSH2 0x164F JUMPI PUSH2 0x164E PUSH2 0x157D JUMP JUMPDEST JUMPDEST PUSH0 PUSH2 0x165C DUP6 DUP3 DUP7 ADD PUSH2 0x15C1 JUMP JUMPDEST SWAP3 POP POP PUSH1 0x20 PUSH2 0x166D DUP6 DUP3 DUP7 ADD PUSH2 0x15C1 JUMP JUMPDEST SWAP2 POP POP SWAP3 POP SWAP3 SWAP1 POP JUMP JUMPDEST PUSH0 PUSH1 0x20 DUP3 DUP5 SUB SLT ISZERO PUSH2 0x168C JUMPI PUSH2 0x168B PUSH2 0x157D JUMP JUMPDEST JUMPDEST PUSH0 PUSH2 0x1699 DUP5 DUP3 DUP6 ADD PUSH2 0x15C1 JUMP JUMPDEST SWAP2 POP POP SWAP3 SWAP2 POP POP JUMP JUMPDEST PUSH0 DUP3 DUP3 MSTORE PUSH1 0x20 DUP3 ADD SWAP1 POP SWAP3 SWAP2 POP POP JUMP JUMPDEST PUSH32 0x416D6F756E74206D7573742062652067726561746572207468616E2030000000 PUSH0 DUP3 ADD MSTORE POP JUMP JUMPDEST PUSH0 PUSH2 0x16E6 PUSH1 0x1D DUP4 PUSH2 0x16A2 JUMP JUMPDEST SWAP2 POP PUSH2 0x16F1 DUP3 PUSH2 0x16B2 JUMP JUMPDEST PUSH1 0x20 DUP3 ADD SWAP1 POP SWAP2 SWAP1 POP JUMP JUMPDEST PUSH0 PUSH1 0x20 DUP3 ADD SWAP1 POP DUP2 DUP2 SUB PUSH0 DUP4 ADD MSTORE PUSH2 0x1713 DUP2 PUSH2 0x16DA JUMP JUMPDEST SWAP1 POP SWAP2 SWAP1 POP JUMP JUMPDEST PUSH32 0x746F6B656E73206E65656420746F206265207061697273206F66206C69717569 PUSH0 DUP3 ADD MSTORE PUSH32 0x6469747920706F6F6C0000000000000000000000000000000000000000000000 PUSH1 0x20 DUP3 ADD MSTORE POP JUMP JUMPDEST PUSH0 PUSH2 0x1774 PUSH1 0x29 DUP4 PUSH2 0x16A2 JUMP JUMPDEST SWAP2 POP PUSH2 0x177F DUP3 PUSH2 0x171A JUMP JUMPDEST PUSH1 0x40 DUP3 ADD SWAP1 POP SWAP2 SWAP1 POP JUMP JUMPDEST PUSH0 PUSH1 0x20 DUP3 ADD SWAP1 POP DUP2 DUP2 SUB PUSH0 DUP4 ADD MSTORE PUSH2 0x17A1 DUP2 PUSH2 0x1768 JUMP JUMPDEST SWAP1 POP SWAP2 SWAP1 POP JUMP JUMPDEST PUSH0 DUP2 MLOAD SWAP1 POP PUSH2 0x17B6 DUP2 PUSH2 0x15AB JUMP JUMPDEST SWAP3 SWAP2 POP POP JUMP JUMPDEST PUSH0 PUSH1 0x20 DUP3 DUP5 SUB SLT ISZERO PUSH2 0x17D1 JUMPI PUSH2 0x17D0 PUSH2 0x157D JUMP JUMPDEST JUMPDEST PUSH0 PUSH2 0x17DE DUP5 DUP3 DUP6 ADD PUSH2 0x17A8 JUMP JUMPDEST SWAP2 POP POP SWAP3 SWAP2 POP POP JUMP JUMPDEST PUSH32 0x496E73756666696369656E742062616C616E6365206F6620746F6B656E46726F PUSH0 DUP3 ADD MSTORE PUSH32 0x6D00000000000000000000000000000000000000000000000000000000000000 PUSH1 0x20 DUP3 ADD MSTORE POP JUMP JUMPDEST PUSH0 PUSH2 0x1841 PUSH1 0x21 DUP4 PUSH2 0x16A2 JUMP JUMPDEST SWAP2 POP PUSH2 0x184C DUP3 PUSH2 0x17E7 JUMP JUMPDEST PUSH1 0x40 DUP3 ADD SWAP1 POP SWAP2 SWAP1 POP JUMP JUMPDEST PUSH0 PUSH1 0x20 DUP3 ADD SWAP1 POP DUP2 DUP2 SUB PUSH0 DUP4 ADD MSTORE PUSH2 0x186E DUP2 PUSH2 0x1835 JUMP JUMPDEST SWAP1 POP SWAP2 SWAP1 POP JUMP JUMPDEST PUSH32 0x496E73756666696369656E742062616C616E6365206F6620746F6B656E546F00 PUSH0 DUP3 ADD MSTORE POP JUMP JUMPDEST PUSH0 PUSH2 0x18A9 PUSH1 0x1F DUP4 PUSH2 0x16A2 JUMP JUMPDEST SWAP2 POP PUSH2 0x18B4 DUP3 PUSH2 0x1875 JUMP JUMPDEST PUSH1 0x20 DUP3 ADD SWAP1 POP SWAP2 SWAP1 POP JUMP JUMPDEST PUSH0 PUSH1 0x20 DUP3 ADD SWAP1 POP DUP2 DUP2 SUB PUSH0 DUP4 ADD MSTORE PUSH2 0x18D6 DUP2 PUSH2 0x189D JUMP JUMPDEST SWAP1 POP SWAP2 SWAP1 POP JUMP JUMPDEST PUSH32 0x5377617020646F6573206E6F7420707265736572766520636F6E7374616E7420 PUSH0 DUP3 ADD MSTORE PUSH32 0x666F726D756C6100000000000000000000000000000000000000000000000000 PUSH1 0x20 DUP3 ADD MSTORE POP JUMP JUMPDEST PUSH0 PUSH2 0x1937 PUSH1 0x27 DUP4 PUSH2 0x16A2 JUMP JUMPDEST SWAP2 POP PUSH2 0x1942 DUP3 PUSH2 0x18DD JUMP JUMPDEST PUSH1 0x40 DUP3 ADD SWAP1 POP SWAP2 SWAP1 POP JUMP JUMPDEST PUSH0 PUSH1 0x20 DUP3 ADD SWAP1 POP DUP2 DUP2 SUB PUSH0 DUP4 ADD MSTORE PUSH2 0x1964 DUP2 PUSH2 0x192B JUMP JUMPDEST SWAP1 POP SWAP2 SWAP1 POP JUMP JUMPDEST PUSH0 PUSH1 0x60 DUP3 ADD SWAP1 POP PUSH2 0x197E PUSH0 DUP4 ADD DUP7 PUSH2 0x14E1 JUMP JUMPDEST PUSH2 0x198B PUSH1 0x20 DUP4 ADD DUP6 PUSH2 0x14E1 JUMP JUMPDEST PUSH2 0x1998 PUSH1 0x40 DUP4 ADD DUP5 PUSH2 0x1489 JUMP JUMPDEST SWAP5 SWAP4 POP POP POP POP JUMP JUMPDEST PUSH0 DUP2 ISZERO ISZERO SWAP1 POP SWAP2 SWAP1 POP JUMP JUMPDEST PUSH2 0x19B4 DUP2 PUSH2 0x19A0 JUMP JUMPDEST DUP2 EQ PUSH2 0x19BE JUMPI PUSH0 DUP1 REVERT JUMPDEST POP JUMP JUMPDEST PUSH0 DUP2 MLOAD SWAP1 POP PUSH2 0x19CF DUP2 PUSH2 0x19AB JUMP JUMPDEST SWAP3 SWAP2 POP POP JUMP JUMPDEST PUSH0 PUSH1 0x20 DUP3 DUP5 SUB SLT ISZERO PUSH2 0x19EA JUMPI PUSH2 0x19E9 PUSH2 0x157D JUMP JUMPDEST JUMPDEST PUSH0 PUSH2 0x19F7 DUP5 DUP3 DUP6 ADD PUSH2 0x19C1 JUMP JUMPDEST SWAP2 POP POP SWAP3 SWAP2 POP POP JUMP JUMPDEST PUSH32 0x7472616E73666572206F6620746F6B656E2066726F6D206661696C6564000000 PUSH0 DUP3 ADD MSTORE POP JUMP JUMPDEST PUSH0 PUSH2 0x1A34 PUSH1 0x1D DUP4 PUSH2 0x16A2 JUMP JUMPDEST SWAP2 POP PUSH2 0x1A3F DUP3 PUSH2 0x1A00 JUMP JUMPDEST PUSH1 0x20 DUP3 ADD SWAP1 POP SWAP2 SWAP1 POP JUMP JUMPDEST PUSH0 PUSH1 0x20 DUP3 ADD SWAP1 POP DUP2 DUP2 SUB PUSH0 DUP4 ADD MSTORE PUSH2 0x1A61 DUP2 PUSH2 0x1A28 JUMP JUMPDEST SWAP1 POP SWAP2 SWAP1 POP JUMP JUMPDEST PUSH0 PUSH1 0x40 DUP3 ADD SWAP1 POP PUSH2 0x1A7B PUSH0 DUP4 ADD DUP6 PUSH2 0x14E1 JUMP JUMPDEST PUSH2 0x1A88 PUSH1 0x20 DUP4 ADD DUP5 PUSH2 0x1489 JUMP JUMPDEST SWAP4 SWAP3 POP POP POP JUMP JUMPDEST PUSH32 0x5472616E73666572206F6620746F6B656E20746F206661696C65640000000000 PUSH0 DUP3 ADD MSTORE POP JUMP JUMPDEST PUSH0 PUSH2 0x1AC3 PUSH1 0x1B DUP4 PUSH2 0x16A2 JUMP JUMPDEST SWAP2 POP PUSH2 0x1ACE DUP3 PUSH2 0x1A8F JUMP JUMPDEST PUSH1 0x20 DUP3 ADD SWAP1 POP SWAP2 SWAP1 POP JUMP JUMPDEST PUSH0 PUSH1 0x20 DUP3 ADD SWAP1 POP DUP2 DUP2 SUB PUSH0 DUP4 ADD MSTORE PUSH2 0x1AF0 DUP2 PUSH2 0x1AB7 JUMP JUMPDEST SWAP1 POP SWAP2 SWAP1 POP JUMP JUMPDEST PUSH0 PUSH1 0x80 DUP3 ADD SWAP1 POP PUSH2 0x1B0A PUSH0 DUP4 ADD DUP8 PUSH2 0x1489 JUMP JUMPDEST PUSH2 0x1B17 PUSH1 0x20 DUP4 ADD DUP7 PUSH2 0x1489 JUMP JUMPDEST PUSH2 0x1B24 PUSH1 0x40 DUP4 ADD DUP6 PUSH2 0x14E1 JUMP JUMPDEST PUSH2 0x1B31 PUSH1 0x60 DUP4 ADD DUP5 PUSH2 0x14E1 JUMP JUMPDEST SWAP6 SWAP5 POP POP POP POP POP JUMP JUMPDEST PUSH32 0x7472616E73666572206F6620746F6B656E31206973206661696C656400000000 PUSH0 DUP3 ADD MSTORE POP JUMP JUMPDEST PUSH0 PUSH2 0x1B6E PUSH1 0x1C DUP4 PUSH2 0x16A2 JUMP JUMPDEST SWAP2 POP PUSH2 0x1B79 DUP3 PUSH2 0x1B3A JUMP JUMPDEST PUSH1 0x20 DUP3 ADD SWAP1 POP SWAP2 SWAP1 POP JUMP JUMPDEST PUSH0 PUSH1 0x20 DUP3 ADD SWAP1 POP DUP2 DUP2 SUB PUSH0 DUP4 ADD MSTORE PUSH2 0x1B9B DUP2 PUSH2 0x1B62 JUMP JUMPDEST SWAP1 POP SWAP2 SWAP1 POP JUMP JUMPDEST PUSH32 0x7472616E73666572206F6620746F6B656E32206973206661696C656400000000 PUSH0 DUP3 ADD MSTORE POP JUMP JUMPDEST PUSH0 PUSH2 0x1BD6 PUSH1 0x1C DUP4 PUSH2 0x16A2 JUMP JUMPDEST SWAP2 POP PUSH2 0x1BE1 DUP3 PUSH2 0x1BA2 JUMP JUMPDEST PUSH1 0x20 DUP3 ADD SWAP1 POP SWAP2 SWAP1 POP JUMP JUMPDEST PUSH0 PUSH1 0x20 DUP3 ADD SWAP1 POP DUP2 DUP2 SUB PUSH0 DUP4 ADD MSTORE PUSH2 0x1C03 DUP2 PUSH2 0x1BCA JUMP JUMPDEST SWAP1 POP SWAP2 SWAP1 POP JUMP JUMPDEST PUSH32 0x4E487B7100000000000000000000000000000000000000000000000000000000 PUSH0 MSTORE PUSH1 0x11 PUSH1 0x4 MSTORE PUSH1 0x24 PUSH0 REVERT JUMPDEST PUSH0 PUSH2 0x1C41 DUP3 PUSH2 0x1480 JUMP JUMPDEST SWAP2 POP PUSH2 0x1C4C DUP4 PUSH2 0x1480 JUMP JUMPDEST SWAP3 POP DUP3 DUP3 ADD SWAP1 POP DUP1 DUP3 GT ISZERO PUSH2 0x1C64 JUMPI PUSH2 0x1C63 PUSH2 0x1C0A JUMP JUMPDEST JUMPDEST SWAP3 SWAP2 POP POP JUMP JUMPDEST PUSH32 0x4C6971756964697479206973206D6F7265207468616E20746F74616C20737570 PUSH0 DUP3 ADD MSTORE PUSH32 0x706C790000000000000000000000000000000000000000000000000000000000 PUSH1 0x20 DUP3 ADD MSTORE POP JUMP JUMPDEST PUSH0 PUSH2 0x1CC4 PUSH1 0x23 DUP4 PUSH2 0x16A2 JUMP JUMPDEST SWAP2 POP PUSH2 0x1CCF DUP3 PUSH2 0x1C6A JUMP JUMPDEST PUSH1 0x40 DUP3 ADD SWAP1 POP SWAP2 SWAP1 POP JUMP JUMPDEST PUSH0 PUSH1 0x20 DUP3 ADD SWAP1 POP DUP2 DUP2 SUB PUSH0 DUP4 ADD MSTORE PUSH2 0x1CF1 DUP2 PUSH2 0x1CB8 JUMP JUMPDEST SWAP1 POP SWAP2 SWAP1 POP JUMP JUMPDEST PUSH0 PUSH2 0x1D02 DUP3 PUSH2 0x1480 JUMP JUMPDEST SWAP2 POP PUSH2 0x1D0D DUP4 PUSH2 0x1480 JUMP JUMPDEST SWAP3 POP DUP3 DUP3 MUL PUSH2 0x1D1B DUP2 PUSH2 0x1480 JUMP JUMPDEST SWAP2 POP DUP3 DUP3 DIV DUP5 EQ DUP4 ISZERO OR PUSH2 0x1D32 JUMPI PUSH2 0x1D31 PUSH2 0x1C0A JUMP JUMPDEST JUMPDEST POP SWAP3 SWAP2 POP POP JUMP JUMPDEST PUSH32 0x4E487B7100000000000000000000000000000000000000000000000000000000 PUSH0 MSTORE PUSH1 0x12 PUSH1 0x4 MSTORE PUSH1 0x24 PUSH0 REVERT JUMPDEST PUSH0 PUSH2 0x1D70 DUP3 PUSH2 0x1480 JUMP JUMPDEST SWAP2 POP PUSH2 0x1D7B DUP4 PUSH2 0x1480 JUMP JUMPDEST SWAP3 POP DUP3 PUSH2 0x1D8B JUMPI PUSH2 0x1D8A PUSH2 0x1D39 JUMP JUMPDEST JUMPDEST DUP3 DUP3 DIV SWAP1 POP SWAP3 SWAP2 POP POP JUMP JUMPDEST PUSH32 0x5472616E73666572206F6620746F6B656E31206661696C656400000000000000 PUSH0 DUP3 ADD MSTORE POP JUMP JUMPDEST PUSH0 PUSH2 0x1DCA PUSH1 0x19 DUP4 PUSH2 0x16A2 JUMP JUMPDEST SWAP2 POP PUSH2 0x1DD5 DUP3 PUSH2 0x1D96 JUMP JUMPDEST PUSH1 0x20 DUP3 ADD SWAP1 POP SWAP2 SWAP1 POP JUMP JUMPDEST PUSH0 PUSH1 0x20 DUP3 ADD SWAP1 POP DUP2 DUP2 SUB PUSH0 DUP4 ADD MSTORE PUSH2 0x1DF7 DUP2 PUSH2 0x1DBE JUMP JUMPDEST SWAP1 POP SWAP2 SWAP1 POP JUMP JUMPDEST PUSH0 PUSH2 0x1E08 DUP3 PUSH2 0x1480 JUMP JUMPDEST SWAP2 POP PUSH2 0x1E13 DUP4 PUSH2 0x1480 JUMP JUMPDEST SWAP3 POP DUP3 DUP3 SUB SWAP1 POP DUP2 DUP2 GT ISZERO PUSH2 0x1E2B JUMPI PUSH2 0x1E2A PUSH2 0x1C0A JUMP JUMPDEST JUMPDEST SWAP3 SWAP2 POP POP JUMP JUMPDEST PUSH32 0x436F6E7374616E7420666F726D756C61206E6F74207570646174652000000000 PUSH0 DUP3 ADD MSTORE POP JUMP JUMPDEST PUSH0 PUSH2 0x1E65 PUSH1 0x1C DUP4 PUSH2 0x16A2 JUMP JUMPDEST SWAP2 POP PUSH2 0x1E70 DUP3 PUSH2 0x1E31 JUMP JUMPDEST PUSH1 0x20 DUP3 ADD SWAP1 POP SWAP2 SWAP1 POP JUMP JUMPDEST PUSH0 PUSH1 0x20 DUP3 ADD SWAP1 POP DUP2 DUP2 SUB PUSH0 DUP4 ADD MSTORE PUSH2 0x1E92 DUP2 PUSH2 0x1E59 JUMP JUMPDEST SWAP1 POP SWAP2 SWAP1 POP JUMP INVALID LOG2 PUSH5 0x6970667358 0x22 SLT KECCAK256 GT PUSH24 0x9407E5A7FACB55A4D114B112018810561E409B943B5F2C48 CREATE2 0x4B INVALID RETURNDATACOPY 0xAA 0x4E PUSH5 0x736F6C6343 STOP ADDMOD BYTE STOP CALLER PUSH1 0x80 PUSH1 0x40 MSTORE CALLVALUE DUP1 ISZERO PUSH2 0xF JUMPI PUSH0 DUP1 REVERT JUMPDEST POP PUSH1 0x40 MLOAD PUSH2 0x1D1A CODESIZE SUB DUP1 PUSH2 0x1D1A DUP4 CODECOPY DUP2 DUP2 ADD PUSH1 0x40 MSTORE DUP2 ADD SWAP1 PUSH2 0x31 SWAP2 SWAP1 PUSH2 0x31D JUMP JUMPDEST DUP2 DUP2 DUP2 PUSH1 0x3 SWAP1 DUP2 PUSH2 0x42 SWAP2 SWAP1 PUSH2 0x5A0 JUMP JUMPDEST POP DUP1 PUSH1 0x4 SWAP1 DUP2 PUSH2 0x52 SWAP2 SWAP1 PUSH2 0x5A0 JUMP JUMPDEST POP POP POP PUSH2 0x67 PUSH0 DUP1 SHL CALLER PUSH2 0x6F PUSH1 0x20 SHL PUSH1 0x20 SHR JUMP JUMPDEST POP POP POP PUSH2 0x66F JUMP JUMPDEST PUSH0 PUSH2 0x80 DUP4 DUP4 PUSH2 0x165 PUSH1 0x20 SHL PUSH1 0x20 SHR JUMP JUMPDEST PUSH2 0x15B JUMPI PUSH1 0x1 PUSH1 0x5 PUSH0 DUP6 DUP2 MSTORE PUSH1 0x20 ADD SWAP1 DUP2 MSTORE PUSH1 0x20 ADD PUSH0 KECCAK256 PUSH0 ADD PUSH0 DUP5 PUSH20 0xFFFFFFFFFFFFFFFFFFFFFFFFFFFFFFFFFFFFFFFF AND PUSH20 0xFFFFFFFFFFFFFFFFFFFFFFFFFFFFFFFFFFFFFFFF AND DUP2 MSTORE PUSH1 0x20 ADD SWAP1 DUP2 MSTORE PUSH1 0x20 ADD PUSH0 KECCAK256 PUSH0 PUSH2 0x100 EXP DUP2 SLOAD DUP2 PUSH1 0xFF MUL NOT AND SWAP1 DUP4 ISZERO ISZERO MUL OR SWAP1 SSTORE POP PUSH2 0xF8 PUSH2 0x1C9 PUSH1 0x20 SHL PUSH1 0x20 SHR JUMP JUMPDEST PUSH20 0xFFFFFFFFFFFFFFFFFFFFFFFFFFFFFFFFFFFFFFFF AND DUP3 PUSH20 0xFFFFFFFFFFFFFFFFFFFFFFFFFFFFFFFFFFFFFFFF AND DUP5 PUSH32 0x2F8788117E7EFF1D82E926EC794901D17C78024A50270940304540A733656F0D PUSH1 0x40 MLOAD PUSH1 0x40 MLOAD DUP1 SWAP2 SUB SWAP1 LOG4 PUSH1 0x1 SWAP1 POP PUSH2 0x15F JUMP JUMPDEST PUSH0 SWAP1 POP JUMPDEST SWAP3 SWAP2 POP POP JUMP JUMPDEST PUSH0 PUSH1 0x5 PUSH0 DUP5 DUP2 MSTORE PUSH1 0x20 ADD SWAP1 DUP2 MSTORE PUSH1 0x20 ADD PUSH0 KECCAK256 PUSH0 ADD PUSH0 DUP4 PUSH20 0xFFFFFFFFFFFFFFFFFFFFFFFFFFFFFFFFFFFFFFFF AND PUSH20 0xFFFFFFFFFFFFFFFFFFFFFFFFFFFFFFFFFFFFFFFF AND DUP2 MSTORE PUSH1 0x20 ADD SWAP1 DUP2 MSTORE PUSH1 0x20 ADD PUSH0 KECCAK256 PUSH0 SWAP1 SLOAD SWAP1 PUSH2 0x100 EXP SWAP1 DIV PUSH1 0xFF AND SWAP1 POP SWAP3 SWAP2 POP POP JUMP JUMPDEST PUSH0 CALLER SWAP1 POP SWAP1 JUMP JUMPDEST PUSH0 PUSH1 0x40 MLOAD SWAP1 POP SWAP1 JUMP JUMPDEST PUSH0 DUP1 REVERT JUMPDEST PUSH0 DUP1 REVERT JUMPDEST PUSH0 DUP1 REVERT JUMPDEST PUSH0 DUP1 REVERT JUMPDEST PUSH0 PUSH1 0x1F NOT PUSH1 0x1F DUP4 ADD AND SWAP1 POP SWAP2 SWAP1 POP JUMP JUMPDEST PUSH32 0x4E487B7100000000000000000000000000000000000000000000000000000000 PUSH0 MSTORE PUSH1 0x41 PUSH1 0x4 MSTORE PUSH1 0x24 PUSH0 REVERT JUMPDEST PUSH2 0x22F DUP3 PUSH2 0x1E9 JUMP JUMPDEST DUP2 ADD DUP2 DUP2 LT PUSH8 0xFFFFFFFFFFFFFFFF DUP3 GT OR ISZERO PUSH2 0x24E JUMPI PUSH2 0x24D PUSH2 0x1F9 JUMP JUMPDEST JUMPDEST DUP1 PUSH1 0x40 MSTORE POP POP POP JUMP JUMPDEST PUSH0 PUSH2 0x260 PUSH2 0x1D0 JUMP JUMPDEST SWAP1 POP PUSH2 0x26C DUP3 DUP3 PUSH2 0x226 JUMP JUMPDEST SWAP2 SWAP1 POP JUMP JUMPDEST PUSH0 PUSH8 0xFFFFFFFFFFFFFFFF DUP3 GT ISZERO PUSH2 0x28B JUMPI PUSH2 0x28A PUSH2 0x1F9 JUMP JUMPDEST JUMPDEST PUSH2 0x294 DUP3 PUSH2 0x1E9 JUMP JUMPDEST SWAP1 POP PUSH1 0x20 DUP2 ADD SWAP1 POP SWAP2 SWAP1 POP JUMP JUMPDEST DUP3 DUP2 DUP4 MCOPY PUSH0 DUP4 DUP4 ADD MSTORE POP POP POP JUMP JUMPDEST PUSH0 PUSH2 0x2C1 PUSH2 0x2BC DUP5 PUSH2 0x271 JUMP JUMPDEST PUSH2 0x257 JUMP JUMPDEST SWAP1 POP DUP3 DUP2 MSTORE PUSH1 0x20 DUP2 ADD DUP5 DUP5 DUP5 ADD GT ISZERO PUSH2 0x2DD JUMPI PUSH2 0x2DC PUSH2 0x1E5 JUMP JUMPDEST JUMPDEST PUSH2 0x2E8 DUP5 DUP3 DUP6 PUSH2 0x2A1 JUMP JUMPDEST POP SWAP4 SWAP3 POP POP POP JUMP JUMPDEST PUSH0 DUP3 PUSH1 0x1F DUP4 ADD SLT PUSH2 0x304 JUMPI PUSH2 0x303 PUSH2 0x1E1 JUMP JUMPDEST JUMPDEST DUP2 MLOAD PUSH2 0x314 DUP5 DUP3 PUSH1 0x20 DUP7 ADD PUSH2 0x2AF JUMP JUMPDEST SWAP2 POP POP SWAP3 SWAP2 POP POP JUMP JUMPDEST PUSH0 DUP1 PUSH1 0x40 DUP4 DUP6 SUB SLT ISZERO PUSH2 0x333 JUMPI PUSH2 0x332 PUSH2 0x1D9 JUMP JUMPDEST JUMPDEST PUSH0 DUP4 ADD MLOAD PUSH8 0xFFFFFFFFFFFFFFFF DUP2 GT ISZERO PUSH2 0x350 JUMPI PUSH2 0x34F PUSH2 0x1DD JUMP JUMPDEST JUMPDEST PUSH2 0x35C DUP6 DUP3 DUP7 ADD PUSH2 0x2F0 JUMP JUMPDEST SWAP3 POP POP PUSH1 0x20 DUP4 ADD MLOAD PUSH8 0xFFFFFFFFFFFFFFFF DUP2 GT ISZERO PUSH2 0x37D JUMPI PUSH2 0x37C PUSH2 0x1DD JUMP JUMPDEST JUMPDEST PUSH2 0x389 DUP6 DUP3 DUP7 ADD PUSH2 0x2F0 JUMP JUMPDEST SWAP2 POP POP SWAP3 POP SWAP3 SWAP1 POP JUMP JUMPDEST PUSH0 DUP2 MLOAD SWAP1 POP SWAP2 SWAP1 POP JUMP JUMPDEST PUSH32 0x4E487B7100000000000000000000000000000000000000000000000000000000 PUSH0 MSTORE PUSH1 0x22 PUSH1 0x4 MSTORE PUSH1 0x24 PUSH0 REVERT JUMPDEST PUSH0 PUSH1 0x2 DUP3 DIV SWAP1 POP PUSH1 0x1 DUP3 AND DUP1 PUSH2 0x3E1 JUMPI PUSH1 0x7F DUP3 AND SWAP2 POP JUMPDEST PUSH1 0x20 DUP3 LT DUP2 SUB PUSH2 0x3F4 JUMPI PUSH2 0x3F3 PUSH2 0x39D JUMP JUMPDEST JUMPDEST POP SWAP2 SWAP1 POP JUMP JUMPDEST PUSH0 DUP2 SWAP1 POP DUP2 PUSH0 MSTORE PUSH1 0x20 PUSH0 KECCAK256 SWAP1 POP SWAP2 SWAP1 POP JUMP JUMPDEST PUSH0 PUSH1 0x20 PUSH1 0x1F DUP4 ADD DIV SWAP1 POP SWAP2 SWAP1 POP JUMP JUMPDEST PUSH0 DUP3 DUP3 SHL SWAP1 POP SWAP3 SWAP2 POP POP JUMP JUMPDEST PUSH0 PUSH1 0x8 DUP4 MUL PUSH2 0x456 PUSH32 0xFFFFFFFFFFFFFFFFFFFFFFFFFFFFFFFFFFFFFFFFFFFFFFFFFFFFFFFFFFFFFFFF DUP3 PUSH2 0x41B JUMP JUMPDEST PUSH2 0x460 DUP7 DUP4 PUSH2 0x41B JUMP JUMPDEST SWAP6 POP DUP1 NOT DUP5 AND SWAP4 POP DUP1 DUP7 AND DUP5 OR SWAP3 POP POP POP SWAP4 SWAP3 POP POP POP JUMP JUMPDEST PUSH0 DUP2 SWAP1 POP SWAP2 SWAP1 POP JUMP JUMPDEST PUSH0 DUP2 SWAP1 POP SWAP2 SWAP1 POP JUMP JUMPDEST PUSH0 PUSH2 0x4A4 PUSH2 0x49F PUSH2 0x49A DUP5 PUSH2 0x478 JUMP JUMPDEST PUSH2 0x481 JUMP JUMPDEST PUSH2 0x478 JUMP JUMPDEST SWAP1 POP SWAP2 SWAP1 POP JUMP JUMPDEST PUSH0 DUP2 SWAP1 POP SWAP2 SWAP1 POP JUMP JUMPDEST PUSH2 0x4BD DUP4 PUSH2 0x48A JUMP JUMPDEST PUSH2 0x4D1 PUSH2 0x4C9 DUP3 PUSH2 0x4AB JUMP JUMPDEST DUP5 DUP5 SLOAD PUSH2 0x427 JUMP JUMPDEST DUP3 SSTORE POP POP POP POP JUMP JUMPDEST PUSH0 SWAP1 JUMP JUMPDEST PUSH2 0x4E5 PUSH2 0x4D9 JUMP JUMPDEST PUSH2 0x4F0 DUP2 DUP5 DUP5 PUSH2 0x4B4 JUMP JUMPDEST POP POP POP JUMP JUMPDEST JUMPDEST DUP2 DUP2 LT ISZERO PUSH2 0x513 JUMPI PUSH2 0x508 PUSH0 DUP3 PUSH2 0x4DD JUMP JUMPDEST PUSH1 0x1 DUP2 ADD SWAP1 POP PUSH2 0x4F6 JUMP JUMPDEST POP POP JUMP JUMPDEST PUSH1 0x1F DUP3 GT ISZERO PUSH2 0x558 JUMPI PUSH2 0x529 DUP2 PUSH2 0x3FA JUMP JUMPDEST PUSH2 0x532 DUP5 PUSH2 0x40C JUMP JUMPDEST DUP2 ADD PUSH1 0x20 DUP6 LT ISZERO PUSH2 0x541 JUMPI DUP2 SWAP1 POP JUMPDEST PUSH2 0x555 PUSH2 0x54D DUP6 PUSH2 0x40C JUMP JUMPDEST DUP4 ADD DUP3 PUSH2 0x4F5 JUMP JUMPDEST POP POP JUMPDEST POP POP POP JUMP JUMPDEST PUSH0 DUP3 DUP3 SHR SWAP1 POP SWAP3 SWAP2 POP POP JUMP JUMPDEST PUSH0 PUSH2 0x578 PUSH0 NOT DUP5 PUSH1 0x8 MUL PUSH2 0x55D JUMP JUMPDEST NOT DUP1 DUP4 AND SWAP2 POP POP SWAP3 SWAP2 POP POP JUMP JUMPDEST PUSH0 PUSH2 0x590 DUP4 DUP4 PUSH2 0x569 JUMP JUMPDEST SWAP2 POP DUP3 PUSH1 0x2 MUL DUP3 OR SWAP1 POP SWAP3 SWAP2 POP POP JUMP JUMPDEST PUSH2 0x5A9 DUP3 PUSH2 0x393 JUMP JUMPDEST PUSH8 0xFFFFFFFFFFFFFFFF DUP2 GT ISZERO PUSH2 0x5C2 JUMPI PUSH2 0x5C1 PUSH2 0x1F9 JUMP JUMPDEST JUMPDEST PUSH2 0x5CC DUP3 SLOAD PUSH2 0x3CA JUMP JUMPDEST PUSH2 0x5D7 DUP3 DUP3 DUP6 PUSH2 0x517 JUMP JUMPDEST PUSH0 PUSH1 0x20 SWAP1 POP PUSH1 0x1F DUP4 GT PUSH1 0x1 DUP2 EQ PUSH2 0x608 JUMPI PUSH0 DUP5 ISZERO PUSH2 0x5F6 JUMPI DUP3 DUP8 ADD MLOAD SWAP1 POP JUMPDEST PUSH2 0x600 DUP6 DUP3 PUSH2 0x585 JUMP JUMPDEST DUP7 SSTORE POP PUSH2 0x667 JUMP JUMPDEST PUSH1 0x1F NOT DUP5 AND PUSH2 0x616 DUP7 PUSH2 0x3FA JUMP JUMPDEST PUSH0 JUMPDEST DUP3 DUP2 LT ISZERO PUSH2 0x63D JUMPI DUP5 DUP10 ADD MLOAD DUP3 SSTORE PUSH1 0x1 DUP3 ADD SWAP2 POP PUSH1 0x20 DUP6 ADD SWAP5 POP PUSH1 0x20 DUP2 ADD SWAP1 POP PUSH2 0x618 JUMP JUMPDEST DUP7 DUP4 LT ISZERO PUSH2 0x65A JUMPI DUP5 DUP10 ADD MLOAD PUSH2 0x656 PUSH1 0x1F DUP10 AND DUP3 PUSH2 0x569 JUMP JUMPDEST DUP4 SSTORE POP JUMPDEST PUSH1 0x1 PUSH1 0x2 DUP9 MUL ADD DUP9 SSTORE POP POP POP JUMPDEST POP POP POP POP POP POP JUMP JUMPDEST PUSH2 0x169E DUP1 PUSH2 0x67C PUSH0 CODECOPY PUSH0 RETURN INVALID PUSH1 0x80 PUSH1 0x40 MSTORE CALLVALUE DUP1 ISZERO PUSH2 0xF JUMPI PUSH0 DUP1 REVERT JUMPDEST POP PUSH1 0x4 CALLDATASIZE LT PUSH2 0x114 JUMPI PUSH0 CALLDATALOAD PUSH1 0xE0 SHR DUP1 PUSH4 0x40C10F19 GT PUSH2 0xA0 JUMPI DUP1 PUSH4 0x9DC29FAC GT PUSH2 0x6F JUMPI DUP1 PUSH4 0x9DC29FAC EQ PUSH2 0x304 JUMPI DUP1 PUSH4 0xA217FDDF EQ PUSH2 0x320 JUMPI DUP1 PUSH4 0xA9059CBB EQ PUSH2 0x33E JUMPI DUP1 PUSH4 0xD547741F EQ PUSH2 0x36E JUMPI DUP1 PUSH4 0xDD62ED3E EQ PUSH2 0x38A JUMPI PUSH2 0x114 JUMP JUMPDEST DUP1 PUSH4 0x40C10F19 EQ PUSH2 0x26A JUMPI DUP1 PUSH4 0x70A08231 EQ PUSH2 0x286 JUMPI DUP1 PUSH4 0x91D14854 EQ PUSH2 0x2B6 JUMPI DUP1 PUSH4 0x95D89B41 EQ PUSH2 0x2E6 JUMPI PUSH2 0x114 JUMP JUMPDEST DUP1 PUSH4 0x23B872DD GT PUSH2 0xE7 JUMPI DUP1 PUSH4 0x23B872DD EQ PUSH2 0x1B4 JUMPI DUP1 PUSH4 0x248A9CA3 EQ PUSH2 0x1E4 JUMPI DUP1 PUSH4 0x2F2FF15D EQ PUSH2 0x214 JUMPI DUP1 PUSH4 0x313CE567 EQ PUSH2 0x230 JUMPI DUP1 PUSH4 0x36568ABE EQ PUSH2 0x24E JUMPI PUSH2 0x114 JUMP JUMPDEST DUP1 PUSH4 0x1FFC9A7 EQ PUSH2 0x118 JUMPI DUP1 PUSH4 0x6FDDE03 EQ PUSH2 0x148 JUMPI DUP1 PUSH4 0x95EA7B3 EQ PUSH2 0x166 JUMPI DUP1 PUSH4 0x18160DDD EQ PUSH2 0x196 JUMPI JUMPDEST PUSH0 DUP1 REVERT JUMPDEST PUSH2 0x132 PUSH1 0x4 DUP1 CALLDATASIZE SUB DUP2 ADD SWAP1 PUSH2 0x12D SWAP2 SWAP1 PUSH2 0x1195 JUMP JUMPDEST PUSH2 0x3BA JUMP JUMPDEST PUSH1 0x40 MLOAD PUSH2 0x13F SWAP2 SWAP1 PUSH2 0x11DA JUMP JUMPDEST PUSH1 0x40 MLOAD DUP1 SWAP2 SUB SWAP1 RETURN JUMPDEST PUSH2 0x150 PUSH2 0x433 JUMP JUMPDEST PUSH1 0x40 MLOAD PUSH2 0x15D SWAP2 SWAP1 PUSH2 0x1263 JUMP JUMPDEST PUSH1 0x40 MLOAD DUP1 SWAP2 SUB SWAP1 RETURN JUMPDEST PUSH2 0x180 PUSH1 0x4 DUP1 CALLDATASIZE SUB DUP2 ADD SWAP1 PUSH2 0x17B SWAP2 SWAP1 PUSH2 0x1310 JUMP JUMPDEST PUSH2 0x4C3 JUMP JUMPDEST PUSH1 0x40 MLOAD PUSH2 0x18D SWAP2 SWAP1 PUSH2 0x11DA JUMP JUMPDEST PUSH1 0x40 MLOAD DUP1 SWAP2 SUB SWAP1 RETURN JUMPDEST PUSH2 0x19E PUSH2 0x4E5 JUMP JUMPDEST PUSH1 0x40 MLOAD PUSH2 0x1AB SWAP2 SWAP1 PUSH2 0x135D JUMP JUMPDEST PUSH1 0x40 MLOAD DUP1 SWAP2 SUB SWAP1 RETURN JUMPDEST PUSH2 0x1CE PUSH1 0x4 DUP1 CALLDATASIZE SUB DUP2 ADD SWAP1 PUSH2 0x1C9 SWAP2 SWAP1 PUSH2 0x1376 JUMP JUMPDEST PUSH2 0x4EE JUMP JUMPDEST PUSH1 0x40 MLOAD PUSH2 0x1DB SWAP2 SWAP1 PUSH2 0x11DA JUMP JUMPDEST PUSH1 0x40 MLOAD DUP1 SWAP2 SUB SWAP1 RETURN JUMPDEST PUSH2 0x1FE PUSH1 0x4 DUP1 CALLDATASIZE SUB DUP2 ADD SWAP1 PUSH2 0x1F9 SWAP2 SWAP1 PUSH2 0x13F9 JUMP JUMPDEST PUSH2 0x51C JUMP JUMPDEST PUSH1 0x40 MLOAD PUSH2 0x20B SWAP2 SWAP1 PUSH2 0x1433 JUMP JUMPDEST PUSH1 0x40 MLOAD DUP1 SWAP2 SUB SWAP1 RETURN JUMPDEST PUSH2 0x22E PUSH1 0x4 DUP1 CALLDATASIZE SUB DUP2 ADD SWAP1 PUSH2 0x229 SWAP2 SWAP1 PUSH2 0x144C JUMP JUMPDEST PUSH2 0x539 JUMP JUMPDEST STOP JUMPDEST PUSH2 0x238 PUSH2 0x55B JUMP JUMPDEST PUSH1 0x40 MLOAD PUSH2 0x245 SWAP2 SWAP1 PUSH2 0x14A5 JUMP JUMPDEST PUSH1 0x40 MLOAD DUP1 SWAP2 SUB SWAP1 RETURN JUMPDEST PUSH2 0x268 PUSH1 0x4 DUP1 CALLDATASIZE SUB DUP2 ADD SWAP1 PUSH2 0x263 SWAP2 SWAP1 PUSH2 0x144C JUMP JUMPDEST PUSH2 0x563 JUMP JUMPDEST STOP JUMPDEST PUSH2 0x284 PUSH1 0x4 DUP1 CALLDATASIZE SUB DUP2 ADD SWAP1 PUSH2 0x27F SWAP2 SWAP1 PUSH2 0x1310 JUMP JUMPDEST PUSH2 0x5DE JUMP JUMPDEST STOP JUMPDEST PUSH2 0x2A0 PUSH1 0x4 DUP1 CALLDATASIZE SUB DUP2 ADD SWAP1 PUSH2 0x29B SWAP2 SWAP1 PUSH2 0x14BE JUMP JUMPDEST PUSH2 0x5F9 JUMP JUMPDEST PUSH1 0x40 MLOAD PUSH2 0x2AD SWAP2 SWAP1 PUSH2 0x135D JUMP JUMPDEST PUSH1 0x40 MLOAD DUP1 SWAP2 SUB SWAP1 RETURN JUMPDEST PUSH2 0x2D0 PUSH1 0x4 DUP1 CALLDATASIZE SUB DUP2 ADD SWAP1 PUSH2 0x2CB SWAP2 SWAP1 PUSH2 0x144C JUMP JUMPDEST PUSH2 0x63E JUMP JUMPDEST PUSH1 0x40 MLOAD PUSH2 0x2DD SWAP2 SWAP1 PUSH2 0x11DA JUMP JUMPDEST PUSH1 0x40 MLOAD DUP1 SWAP2 SUB SWAP1 RETURN JUMPDEST PUSH2 0x2EE PUSH2 0x6A2 JUMP JUMPDEST PUSH1 0x40 MLOAD PUSH2 0x2FB SWAP2 SWAP1 PUSH2 0x1263 JUMP JUMPDEST PUSH1 0x40 MLOAD DUP1 SWAP2 SUB SWAP1 RETURN JUMPDEST PUSH2 0x31E PUSH1 0x4 DUP1 CALLDATASIZE SUB DUP2 ADD SWAP1 PUSH2 0x319 SWAP2 SWAP1 PUSH2 0x1310 JUMP JUMPDEST PUSH2 0x732 JUMP JUMPDEST STOP JUMPDEST PUSH2 0x328 PUSH2 0x74D JUMP JUMPDEST PUSH1 0x40 MLOAD PUSH2 0x335 SWAP2 SWAP1 PUSH2 0x1433 JUMP JUMPDEST PUSH1 0x40 MLOAD DUP1 SWAP2 SUB SWAP1 RETURN JUMPDEST PUSH2 0x358 PUSH1 0x4 DUP1 CALLDATASIZE SUB DUP2 ADD SWAP1 PUSH2 0x353 SWAP2 SWAP1 PUSH2 0x1310 JUMP JUMPDEST PUSH2 0x753 JUMP JUMPDEST PUSH1 0x40 MLOAD PUSH2 0x365 SWAP2 SWAP1 PUSH2 0x11DA JUMP JUMPDEST PUSH1 0x40 MLOAD DUP1 SWAP2 SUB SWAP1 RETURN JUMPDEST PUSH2 0x388 PUSH1 0x4 DUP1 CALLDATASIZE SUB DUP2 ADD SWAP1 PUSH2 0x383 SWAP2 SWAP1 PUSH2 0x144C JUMP JUMPDEST PUSH2 0x775 JUMP JUMPDEST STOP JUMPDEST PUSH2 0x3A4 PUSH1 0x4 DUP1 CALLDATASIZE SUB DUP2 ADD SWAP1 PUSH2 0x39F SWAP2 SWAP1 PUSH2 0x14E9 JUMP JUMPDEST PUSH2 0x797 JUMP JUMPDEST PUSH1 0x40 MLOAD PUSH2 0x3B1 SWAP2 SWAP1 PUSH2 0x135D JUMP JUMPDEST PUSH1 0x40 MLOAD DUP1 SWAP2 SUB SWAP1 RETURN JUMPDEST PUSH0 PUSH32 0x7965DB0B00000000000000000000000000000000000000000000000000000000 PUSH28 0xFFFFFFFFFFFFFFFFFFFFFFFFFFFFFFFFFFFFFFFFFFFFFFFFFFFFFFFF NOT AND DUP3 PUSH28 0xFFFFFFFFFFFFFFFFFFFFFFFFFFFFFFFFFFFFFFFFFFFFFFFFFFFFFFFF NOT AND EQ DUP1 PUSH2 0x42C JUMPI POP PUSH2 0x42B DUP3 PUSH2 0x819 JUMP JUMPDEST JUMPDEST SWAP1 POP SWAP2 SWAP1 POP JUMP JUMPDEST PUSH1 0x60 PUSH1 0x3 DUP1 SLOAD PUSH2 0x442 SWAP1 PUSH2 0x1554 JUMP JUMPDEST DUP1 PUSH1 0x1F ADD PUSH1 0x20 DUP1 SWAP2 DIV MUL PUSH1 0x20 ADD PUSH1 0x40 MLOAD SWAP1 DUP2 ADD PUSH1 0x40 MSTORE DUP1 SWAP3 SWAP2 SWAP1 DUP2 DUP2 MSTORE PUSH1 0x20 ADD DUP3 DUP1 SLOAD PUSH2 0x46E SWAP1 PUSH2 0x1554 JUMP JUMPDEST DUP1 ISZERO PUSH2 0x4B9 JUMPI DUP1 PUSH1 0x1F LT PUSH2 0x490 JUMPI PUSH2 0x100 DUP1 DUP4 SLOAD DIV MUL DUP4 MSTORE SWAP2 PUSH1 0x20 ADD SWAP2 PUSH2 0x4B9 JUMP JUMPDEST DUP3 ADD SWAP2 SWAP1 PUSH0 MSTORE PUSH1 0x20 PUSH0 KECCAK256 SWAP1 JUMPDEST DUP2 SLOAD DUP2 MSTORE SWAP1 PUSH1 0x1 ADD SWAP1 PUSH1 0x20 ADD DUP1 DUP4 GT PUSH2 0x49C JUMPI DUP3 SWAP1 SUB PUSH1 0x1F AND DUP3 ADD SWAP2 JUMPDEST POP POP POP POP POP SWAP1 POP SWAP1 JUMP JUMPDEST PUSH0 DUP1 PUSH2 0x4CD PUSH2 0x882 JUMP JUMPDEST SWAP1 POP PUSH2 0x4DA DUP2 DUP6 DUP6 PUSH2 0x889 JUMP JUMPDEST PUSH1 0x1 SWAP2 POP POP SWAP3 SWAP2 POP POP JUMP JUMPDEST PUSH0 PUSH1 0x2 SLOAD SWAP1 POP SWAP1 JUMP JUMPDEST PUSH0 DUP1 PUSH2 0x4F8 PUSH2 0x882 JUMP JUMPDEST SWAP1 POP PUSH2 0x505 DUP6 DUP3 DUP6 PUSH2 0x89B JUMP JUMPDEST PUSH2 0x510 DUP6 DUP6 DUP6 PUSH2 0x92D JUMP JUMPDEST PUSH1 0x1 SWAP2 POP POP SWAP4 SWAP3 POP POP POP JUMP JUMPDEST PUSH0 PUSH1 0x5 PUSH0 DUP4 DUP2 MSTORE PUSH1 0x20 ADD SWAP1 DUP2 MSTORE PUSH1 0x20 ADD PUSH0 KECCAK256 PUSH1 0x1 ADD SLOAD SWAP1 POP SWAP2 SWAP1 POP JUMP JUMPDEST PUSH2 0x542 DUP3 PUSH2 0x51C JUMP JUMPDEST PUSH2 0x54B DUP2 PUSH2 0xA1D JUMP JUMPDEST PUSH2 0x555 DUP4 DUP4 PUSH2 0xA31 JUMP JUMPDEST POP POP POP POP JUMP JUMPDEST PUSH0 PUSH1 0x12 SWAP1 POP SWAP1 JUMP JUMPDEST PUSH2 0x56B PUSH2 0x882 JUMP JUMPDEST PUSH20 0xFFFFFFFFFFFFFFFFFFFFFFFFFFFFFFFFFFFFFFFF AND DUP2 PUSH20 0xFFFFFFFFFFFFFFFFFFFFFFFFFFFFFFFFFFFFFFFF AND EQ PUSH2 0x5CF JUMPI PUSH1 0x40 MLOAD PUSH32 0x6697B23200000000000000000000000000000000000000000000000000000000 DUP2 MSTORE PUSH1 0x4 ADD PUSH1 0x40 MLOAD DUP1 SWAP2 SUB SWAP1 REVERT JUMPDEST PUSH2 0x5D9 DUP3 DUP3 PUSH2 0xB1B JUMP JUMPDEST POP POP POP JUMP JUMPDEST PUSH0 DUP1 SHL PUSH2 0x5EA DUP2 PUSH2 0xA1D JUMP JUMPDEST PUSH2 0x5F4 DUP4 DUP4 PUSH2 0xC05 JUMP JUMPDEST POP POP POP JUMP JUMPDEST PUSH0 DUP1 PUSH0 DUP4 PUSH20 0xFFFFFFFFFFFFFFFFFFFFFFFFFFFFFFFFFFFFFFFF AND PUSH20 0xFFFFFFFFFFFFFFFFFFFFFFFFFFFFFFFFFFFFFFFF AND DUP2 MSTORE PUSH1 0x20 ADD SWAP1 DUP2 MSTORE PUSH1 0x20 ADD PUSH0 KECCAK256 SLOAD SWAP1 POP SWAP2 SWAP1 POP JUMP JUMPDEST PUSH0 PUSH1 0x5 PUSH0 DUP5 DUP2 MSTORE PUSH1 0x20 ADD SWAP1 DUP2 MSTORE PUSH1 0x20 ADD PUSH0 KECCAK256 PUSH0 ADD PUSH0 DUP4 PUSH20 0xFFFFFFFFFFFFFFFFFFFFFFFFFFFFFFFFFFFFFFFF AND PUSH20 0xFFFFFFFFFFFFFFFFFFFFFFFFFFFFFFFFFFFFFFFF AND DUP2 MSTORE PUSH1 0x20 ADD SWAP1 DUP2 MSTORE PUSH1 0x20 ADD PUSH0 KECCAK256 PUSH0 SWAP1 SLOAD SWAP1 PUSH2 0x100 EXP SWAP1 DIV PUSH1 0xFF AND SWAP1 POP SWAP3 SWAP2 POP POP JUMP JUMPDEST PUSH1 0x60 PUSH1 0x4 DUP1 SLOAD PUSH2 0x6B1 SWAP1 PUSH2 0x1554 JUMP JUMPDEST DUP1 PUSH1 0x1F ADD PUSH1 0x20 DUP1 SWAP2 DIV MUL PUSH1 0x20 ADD PUSH1 0x40 MLOAD SWAP1 DUP2 ADD PUSH1 0x40 MSTORE DUP1 SWAP3 SWAP2 SWAP1 DUP2 DUP2 MSTORE PUSH1 0x20 ADD DUP3 DUP1 SLOAD PUSH2 0x6DD SWAP1 PUSH2 0x1554 JUMP JUMPDEST DUP1 ISZERO PUSH2 0x728 JUMPI DUP1 PUSH1 0x1F LT PUSH2 0x6FF JUMPI PUSH2 0x100 DUP1 DUP4 SLOAD DIV MUL DUP4 MSTORE SWAP2 PUSH1 0x20 ADD SWAP2 PUSH2 0x728 JUMP JUMPDEST DUP3 ADD SWAP2 SWAP1 PUSH0 MSTORE PUSH1 0x20 PUSH0 KECCAK256 SWAP1 JUMPDEST DUP2 SLOAD DUP2 MSTORE SWAP1 PUSH1 0x1 ADD SWAP1 PUSH1 0x20 ADD DUP1 DUP4 GT PUSH2 0x70B JUMPI DUP3 SWAP1 SUB PUSH1 0x1F AND DUP3 ADD SWAP2 JUMPDEST POP POP POP POP POP SWAP1 POP SWAP1 JUMP JUMPDEST PUSH0 DUP1 SHL PUSH2 0x73E DUP2 PUSH2 0xA1D JUMP JUMPDEST PUSH2 0x748 DUP4 DUP4 PUSH2 0xC84 JUMP JUMPDEST POP POP POP JUMP JUMPDEST PUSH0 DUP1 SHL DUP2 JUMP JUMPDEST PUSH0 DUP1 PUSH2 0x75D PUSH2 0x882 JUMP JUMPDEST SWAP1 POP PUSH2 0x76A DUP2 DUP6 DUP6 PUSH2 0x92D JUMP JUMPDEST PUSH1 0x1 SWAP2 POP POP SWAP3 SWAP2 POP POP JUMP JUMPDEST PUSH2 0x77E DUP3 PUSH2 0x51C JUMP JUMPDEST PUSH2 0x787 DUP2 PUSH2 0xA1D JUMP JUMPDEST PUSH2 0x791 DUP4 DUP4 PUSH2 0xB1B JUMP JUMPDEST POP POP POP POP JUMP JUMPDEST PUSH0 PUSH1 0x1 PUSH0 DUP5 PUSH20 0xFFFFFFFFFFFFFFFFFFFFFFFFFFFFFFFFFFFFFFFF AND PUSH20 0xFFFFFFFFFFFFFFFFFFFFFFFFFFFFFFFFFFFFFFFF AND DUP2 MSTORE PUSH1 0x20 ADD SWAP1 DUP2 MSTORE PUSH1 0x20 ADD PUSH0 KECCAK256 PUSH0 DUP4 PUSH20 0xFFFFFFFFFFFFFFFFFFFFFFFFFFFFFFFFFFFFFFFF AND PUSH20 0xFFFFFFFFFFFFFFFFFFFFFFFFFFFFFFFFFFFFFFFF AND DUP2 MSTORE PUSH1 0x20 ADD SWAP1 DUP2 MSTORE PUSH1 0x20 ADD PUSH0 KECCAK256 SLOAD SWAP1 POP SWAP3 SWAP2 POP POP JUMP JUMPDEST PUSH0 PUSH32 0x1FFC9A700000000000000000000000000000000000000000000000000000000 PUSH28 0xFFFFFFFFFFFFFFFFFFFFFFFFFFFFFFFFFFFFFFFFFFFFFFFFFFFFFFFF NOT AND DUP3 PUSH28 0xFFFFFFFFFFFFFFFFFFFFFFFFFFFFFFFFFFFFFFFFFFFFFFFFFFFFFFFF NOT AND EQ SWAP1 POP SWAP2 SWAP1 POP JUMP JUMPDEST PUSH0 CALLER SWAP1 POP SWAP1 JUMP JUMPDEST PUSH2 0x896 DUP4 DUP4 DUP4 PUSH1 0x1 PUSH2 0xD03 JUMP JUMPDEST POP POP POP JUMP JUMPDEST PUSH0 PUSH2 0x8A6 DUP5 DUP5 PUSH2 0x797 JUMP JUMPDEST SWAP1 POP PUSH32 0xFFFFFFFFFFFFFFFFFFFFFFFFFFFFFFFFFFFFFFFFFFFFFFFFFFFFFFFFFFFFFFFF DUP2 EQ PUSH2 0x927 JUMPI DUP2 DUP2 LT ISZERO PUSH2 0x918 JUMPI DUP3 DUP2 DUP4 PUSH1 0x40 MLOAD PUSH32 0xFB8F41B200000000000000000000000000000000000000000000000000000000 DUP2 MSTORE PUSH1 0x4 ADD PUSH2 0x90F SWAP4 SWAP3 SWAP2 SWAP1 PUSH2 0x1593 JUMP JUMPDEST PUSH1 0x40 MLOAD DUP1 SWAP2 SUB SWAP1 REVERT JUMPDEST PUSH2 0x926 DUP5 DUP5 DUP5 DUP5 SUB PUSH0 PUSH2 0xD03 JUMP JUMPDEST JUMPDEST POP POP POP POP JUMP JUMPDEST PUSH0 PUSH20 0xFFFFFFFFFFFFFFFFFFFFFFFFFFFFFFFFFFFFFFFF AND DUP4 PUSH20 0xFFFFFFFFFFFFFFFFFFFFFFFFFFFFFFFFFFFFFFFF AND SUB PUSH2 0x99D JUMPI PUSH0 PUSH1 0x40 MLOAD PUSH32 0x96C6FD1E00000000000000000000000000000000000000000000000000000000 DUP2 MSTORE PUSH1 0x4 ADD PUSH2 0x994 SWAP2 SWAP1 PUSH2 0x15C8 JUMP JUMPDEST PUSH1 0x40 MLOAD DUP1 SWAP2 SUB SWAP1 REVERT JUMPDEST PUSH0 PUSH20 0xFFFFFFFFFFFFFFFFFFFFFFFFFFFFFFFFFFFFFFFF AND DUP3 PUSH20 0xFFFFFFFFFFFFFFFFFFFFFFFFFFFFFFFFFFFFFFFF AND SUB PUSH2 0xA0D JUMPI PUSH0 PUSH1 0x40 MLOAD PUSH32 0xEC442F0500000000000000000000000000000000000000000000000000000000 DUP2 MSTORE PUSH1 0x4 ADD PUSH2 0xA04 SWAP2 SWAP1 PUSH2 0x15C8 JUMP JUMPDEST PUSH1 0x40 MLOAD DUP1 SWAP2 SUB SWAP1 REVERT JUMPDEST PUSH2 0xA18 DUP4 DUP4 DUP4 PUSH2 0xED2 JUMP JUMPDEST POP POP POP JUMP JUMPDEST PUSH2 0xA2E DUP2 PUSH2 0xA29 PUSH2 0x882 JUMP JUMPDEST PUSH2 0x10EB JUMP JUMPDEST POP JUMP JUMPDEST PUSH0 PUSH2 0xA3C DUP4 DUP4 PUSH2 0x63E JUMP JUMPDEST PUSH2 0xB11 JUMPI PUSH1 0x1 PUSH1 0x5 PUSH0 DUP6 DUP2 MSTORE PUSH1 0x20 ADD SWAP1 DUP2 MSTORE PUSH1 0x20 ADD PUSH0 KECCAK256 PUSH0 ADD PUSH0 DUP5 PUSH20 0xFFFFFFFFFFFFFFFFFFFFFFFFFFFFFFFFFFFFFFFF AND PUSH20 0xFFFFFFFFFFFFFFFFFFFFFFFFFFFFFFFFFFFFFFFF AND DUP2 MSTORE PUSH1 0x20 ADD SWAP1 DUP2 MSTORE PUSH1 0x20 ADD PUSH0 KECCAK256 PUSH0 PUSH2 0x100 EXP DUP2 SLOAD DUP2 PUSH1 0xFF MUL NOT AND SWAP1 DUP4 ISZERO ISZERO MUL OR SWAP1 SSTORE POP PUSH2 0xAAE PUSH2 0x882 JUMP JUMPDEST PUSH20 0xFFFFFFFFFFFFFFFFFFFFFFFFFFFFFFFFFFFFFFFF AND DUP3 PUSH20 0xFFFFFFFFFFFFFFFFFFFFFFFFFFFFFFFFFFFFFFFF AND DUP5 PUSH32 0x2F8788117E7EFF1D82E926EC794901D17C78024A50270940304540A733656F0D PUSH1 0x40 MLOAD PUSH1 0x40 MLOAD DUP1 SWAP2 SUB SWAP1 LOG4 PUSH1 0x1 SWAP1 POP PUSH2 0xB15 JUMP JUMPDEST PUSH0 SWAP1 POP JUMPDEST SWAP3 SWAP2 POP POP JUMP JUMPDEST PUSH0 PUSH2 0xB26 DUP4 DUP4 PUSH2 0x63E JUMP JUMPDEST ISZERO PUSH2 0xBFB JUMPI PUSH0 PUSH1 0x5 PUSH0 DUP6 DUP2 MSTORE PUSH1 0x20 ADD SWAP1 DUP2 MSTORE PUSH1 0x20 ADD PUSH0 KECCAK256 PUSH0 ADD PUSH0 DUP5 PUSH20 0xFFFFFFFFFFFFFFFFFFFFFFFFFFFFFFFFFFFFFFFF AND PUSH20 0xFFFFFFFFFFFFFFFFFFFFFFFFFFFFFFFFFFFFFFFF AND DUP2 MSTORE PUSH1 0x20 ADD SWAP1 DUP2 MSTORE PUSH1 0x20 ADD PUSH0 KECCAK256 PUSH0 PUSH2 0x100 EXP DUP2 SLOAD DUP2 PUSH1 0xFF MUL NOT AND SWAP1 DUP4 ISZERO ISZERO MUL OR SWAP1 SSTORE POP PUSH2 0xB98 PUSH2 0x882 JUMP JUMPDEST PUSH20 0xFFFFFFFFFFFFFFFFFFFFFFFFFFFFFFFFFFFFFFFF AND DUP3 PUSH20 0xFFFFFFFFFFFFFFFFFFFFFFFFFFFFFFFFFFFFFFFF AND DUP5 PUSH32 0xF6391F5C32D9C69D2A47EA670B442974B53935D1EDC7FD64EB21E047A839171B PUSH1 0x40 MLOAD PUSH1 0x40 MLOAD DUP1 SWAP2 SUB SWAP1 LOG4 PUSH1 0x1 SWAP1 POP PUSH2 0xBFF JUMP JUMPDEST PUSH0 SWAP1 POP JUMPDEST SWAP3 SWAP2 POP POP JUMP JUMPDEST PUSH0 PUSH20 0xFFFFFFFFFFFFFFFFFFFFFFFFFFFFFFFFFFFFFFFF AND DUP3 PUSH20 0xFFFFFFFFFFFFFFFFFFFFFFFFFFFFFFFFFFFFFFFF AND SUB PUSH2 0xC75 JUMPI PUSH0 PUSH1 0x40 MLOAD PUSH32 0xEC442F0500000000000000000000000000000000000000000000000000000000 DUP2 MSTORE PUSH1 0x4 ADD PUSH2 0xC6C SWAP2 SWAP1 PUSH2 0x15C8 JUMP JUMPDEST PUSH1 0x40 MLOAD DUP1 SWAP2 SUB SWAP1 REVERT JUMPDEST PUSH2 0xC80 PUSH0 DUP4 DUP4 PUSH2 0xED2 JUMP JUMPDEST POP POP JUMP JUMPDEST PUSH0 PUSH20 0xFFFFFFFFFFFFFFFFFFFFFFFFFFFFFFFFFFFFFFFF AND DUP3 PUSH20 0xFFFFFFFFFFFFFFFFFFFFFFFFFFFFFFFFFFFFFFFF AND SUB PUSH2 0xCF4 JUMPI PUSH0 PUSH1 0x40 MLOAD PUSH32 0x96C6FD1E00000000000000000000000000000000000000000000000000000000 DUP2 MSTORE PUSH1 0x4 ADD PUSH2 0xCEB SWAP2 SWAP1 PUSH2 0x15C8 JUMP JUMPDEST PUSH1 0x40 MLOAD DUP1 SWAP2 SUB SWAP1 REVERT JUMPDEST PUSH2 0xCFF DUP3 PUSH0 DUP4 PUSH2 0xED2 JUMP JUMPDEST POP POP JUMP JUMPDEST PUSH0 PUSH20 0xFFFFFFFFFFFFFFFFFFFFFFFFFFFFFFFFFFFFFFFF AND DUP5 PUSH20 0xFFFFFFFFFFFFFFFFFFFFFFFFFFFFFFFFFFFFFFFF AND SUB PUSH2 0xD73 JUMPI PUSH0 PUSH1 0x40 MLOAD PUSH32 0xE602DF0500000000000000000000000000000000000000000000000000000000 DUP2 MSTORE PUSH1 0x4 ADD PUSH2 0xD6A SWAP2 SWAP1 PUSH2 0x15C8 JUMP JUMPDEST PUSH1 0x40 MLOAD DUP1 SWAP2 SUB SWAP1 REVERT JUMPDEST PUSH0 PUSH20 0xFFFFFFFFFFFFFFFFFFFFFFFFFFFFFFFFFFFFFFFF AND DUP4 PUSH20 0xFFFFFFFFFFFFFFFFFFFFFFFFFFFFFFFFFFFFFFFF AND SUB PUSH2 0xDE3 JUMPI PUSH0 PUSH1 0x40 MLOAD PUSH32 0x94280D6200000000000000000000000000000000000000000000000000000000 DUP2 MSTORE PUSH1 0x4 ADD PUSH2 0xDDA SWAP2 SWAP1 PUSH2 0x15C8 JUMP JUMPDEST PUSH1 0x40 MLOAD DUP1 SWAP2 SUB SWAP1 REVERT JUMPDEST DUP2 PUSH1 0x1 PUSH0 DUP7 PUSH20 0xFFFFFFFFFFFFFFFFFFFFFFFFFFFFFFFFFFFFFFFF AND PUSH20 0xFFFFFFFFFFFFFFFFFFFFFFFFFFFFFFFFFFFFFFFF AND DUP2 MSTORE PUSH1 0x20 ADD SWAP1 DUP2 MSTORE PUSH1 0x20 ADD PUSH0 KECCAK256 PUSH0 DUP6 PUSH20 0xFFFFFFFFFFFFFFFFFFFFFFFFFFFFFFFFFFFFFFFF AND PUSH20 0xFFFFFFFFFFFFFFFFFFFFFFFFFFFFFFFFFFFFFFFF AND DUP2 MSTORE PUSH1 0x20 ADD SWAP1 DUP2 MSTORE PUSH1 0x20 ADD PUSH0 KECCAK256 DUP2 SWAP1 SSTORE POP DUP1 ISZERO PUSH2 0xECC JUMPI DUP3 PUSH20 0xFFFFFFFFFFFFFFFFFFFFFFFFFFFFFFFFFFFFFFFF AND DUP5 PUSH20 0xFFFFFFFFFFFFFFFFFFFFFFFFFFFFFFFFFFFFFFFF AND PUSH32 0x8C5BE1E5EBEC7D5BD14F71427D1E84F3DD0314C0F7B2291E5B200AC8C7C3B925 DUP5 PUSH1 0x40 MLOAD PUSH2 0xEC3 SWAP2 SWAP1 PUSH2 0x135D JUMP JUMPDEST PUSH1 0x40 MLOAD DUP1 SWAP2 SUB SWAP1 LOG3 JUMPDEST POP POP POP POP JUMP JUMPDEST PUSH0 PUSH20 0xFFFFFFFFFFFFFFFFFFFFFFFFFFFFFFFFFFFFFFFF AND DUP4 PUSH20 0xFFFFFFFFFFFFFFFFFFFFFFFFFFFFFFFFFFFFFFFF AND SUB PUSH2 0xF22 JUMPI DUP1 PUSH1 0x2 PUSH0 DUP3 DUP3 SLOAD PUSH2 0xF16 SWAP2 SWAP1 PUSH2 0x160E JUMP JUMPDEST SWAP3 POP POP DUP2 SWAP1 SSTORE POP PUSH2 0xFF0 JUMP JUMPDEST PUSH0 DUP1 PUSH0 DUP6 PUSH20 0xFFFFFFFFFFFFFFFFFFFFFFFFFFFFFFFFFFFFFFFF AND PUSH20 0xFFFFFFFFFFFFFFFFFFFFFFFFFFFFFFFFFFFFFFFF AND DUP2 MSTORE PUSH1 0x20 ADD SWAP1 DUP2 MSTORE PUSH1 0x20 ADD PUSH0 KECCAK256 SLOAD SWAP1 POP DUP2 DUP2 LT ISZERO PUSH2 0xFAB JUMPI DUP4 DUP2 DUP4 PUSH1 0x40 MLOAD PUSH32 0xE450D38C00000000000000000000000000000000000000000000000000000000 DUP2 MSTORE PUSH1 0x4 ADD PUSH2 0xFA2 SWAP4 SWAP3 SWAP2 SWAP1 PUSH2 0x1593 JUMP JUMPDEST PUSH1 0x40 MLOAD DUP1 SWAP2 SUB SWAP1 REVERT JUMPDEST DUP2 DUP2 SUB PUSH0 DUP1 DUP7 PUSH20 0xFFFFFFFFFFFFFFFFFFFFFFFFFFFFFFFFFFFFFFFF AND PUSH20 0xFFFFFFFFFFFFFFFFFFFFFFFFFFFFFFFFFFFFFFFF AND DUP2 MSTORE PUSH1 0x20 ADD SWAP1 DUP2 MSTORE PUSH1 0x20 ADD PUSH0 KECCAK256 DUP2 SWAP1 SSTORE POP POP JUMPDEST PUSH0 PUSH20 0xFFFFFFFFFFFFFFFFFFFFFFFFFFFFFFFFFFFFFFFF AND DUP3 PUSH20 0xFFFFFFFFFFFFFFFFFFFFFFFFFFFFFFFFFFFFFFFF AND SUB PUSH2 0x1037 JUMPI DUP1 PUSH1 0x2 PUSH0 DUP3 DUP3 SLOAD SUB SWAP3 POP POP DUP2 SWAP1 SSTORE POP PUSH2 0x1081 JUMP JUMPDEST DUP1 PUSH0 DUP1 DUP5 PUSH20 0xFFFFFFFFFFFFFFFFFFFFFFFFFFFFFFFFFFFFFFFF AND PUSH20 0xFFFFFFFFFFFFFFFFFFFFFFFFFFFFFFFFFFFFFFFF AND DUP2 MSTORE PUSH1 0x20 ADD SWAP1 DUP2 MSTORE PUSH1 0x20 ADD PUSH0 KECCAK256 PUSH0 DUP3 DUP3 SLOAD ADD SWAP3 POP POP DUP2 SWAP1 SSTORE POP JUMPDEST DUP2 PUSH20 0xFFFFFFFFFFFFFFFFFFFFFFFFFFFFFFFFFFFFFFFF AND DUP4 PUSH20 0xFFFFFFFFFFFFFFFFFFFFFFFFFFFFFFFFFFFFFFFF AND PUSH32 0xDDF252AD1BE2C89B69C2B068FC378DAA952BA7F163C4A11628F55A4DF523B3EF DUP4 PUSH1 0x40 MLOAD PUSH2 0x10DE SWAP2 SWAP1 PUSH2 0x135D JUMP JUMPDEST PUSH1 0x40 MLOAD DUP1 SWAP2 SUB SWAP1 LOG3 POP POP POP JUMP JUMPDEST PUSH2 0x10F5 DUP3 DUP3 PUSH2 0x63E JUMP JUMPDEST PUSH2 0x1138 JUMPI DUP1 DUP3 PUSH1 0x40 MLOAD PUSH32 0xE2517D3F00000000000000000000000000000000000000000000000000000000 DUP2 MSTORE PUSH1 0x4 ADD PUSH2 0x112F SWAP3 SWAP2 SWAP1 PUSH2 0x1641 JUMP JUMPDEST PUSH1 0x40 MLOAD DUP1 SWAP2 SUB SWAP1 REVERT JUMPDEST POP POP JUMP JUMPDEST PUSH0 DUP1 REVERT JUMPDEST PUSH0 PUSH32 0xFFFFFFFF00000000000000000000000000000000000000000000000000000000 DUP3 AND SWAP1 POP SWAP2 SWAP1 POP JUMP JUMPDEST PUSH2 0x1174 DUP2 PUSH2 0x1140 JUMP JUMPDEST DUP2 EQ PUSH2 0x117E JUMPI PUSH0 DUP1 REVERT JUMPDEST POP JUMP JUMPDEST PUSH0 DUP2 CALLDATALOAD SWAP1 POP PUSH2 0x118F DUP2 PUSH2 0x116B JUMP JUMPDEST SWAP3 SWAP2 POP POP JUMP JUMPDEST PUSH0 PUSH1 0x20 DUP3 DUP5 SUB SLT ISZERO PUSH2 0x11AA JUMPI PUSH2 0x11A9 PUSH2 0x113C JUMP JUMPDEST JUMPDEST PUSH0 PUSH2 0x11B7 DUP5 DUP3 DUP6 ADD PUSH2 0x1181 JUMP JUMPDEST SWAP2 POP POP SWAP3 SWAP2 POP POP JUMP JUMPDEST PUSH0 DUP2 ISZERO ISZERO SWAP1 POP SWAP2 SWAP1 POP JUMP JUMPDEST PUSH2 0x11D4 DUP2 PUSH2 0x11C0 JUMP JUMPDEST DUP3 MSTORE POP POP JUMP JUMPDEST PUSH0 PUSH1 0x20 DUP3 ADD SWAP1 POP PUSH2 0x11ED PUSH0 DUP4 ADD DUP5 PUSH2 0x11CB JUMP JUMPDEST SWAP3 SWAP2 POP POP JUMP JUMPDEST PUSH0 DUP2 MLOAD SWAP1 POP SWAP2 SWAP1 POP JUMP JUMPDEST PUSH0 DUP3 DUP3 MSTORE PUSH1 0x20 DUP3 ADD SWAP1 POP SWAP3 SWAP2 POP POP JUMP JUMPDEST DUP3 DUP2 DUP4 MCOPY PUSH0 DUP4 DUP4 ADD MSTORE POP POP POP JUMP JUMPDEST PUSH0 PUSH1 0x1F NOT PUSH1 0x1F DUP4 ADD AND SWAP1 POP SWAP2 SWAP1 POP JUMP JUMPDEST PUSH0 PUSH2 0x1235 DUP3 PUSH2 0x11F3 JUMP JUMPDEST PUSH2 0x123F DUP2 DUP6 PUSH2 0x11FD JUMP JUMPDEST SWAP4 POP PUSH2 0x124F DUP2 DUP6 PUSH1 0x20 DUP7 ADD PUSH2 0x120D JUMP JUMPDEST PUSH2 0x1258 DUP2 PUSH2 0x121B JUMP JUMPDEST DUP5 ADD SWAP2 POP POP SWAP3 SWAP2 POP POP JUMP JUMPDEST PUSH0 PUSH1 0x20 DUP3 ADD SWAP1 POP DUP2 DUP2 SUB PUSH0 DUP4 ADD MSTORE PUSH2 0x127B DUP2 DUP5 PUSH2 0x122B JUMP JUMPDEST SWAP1 POP SWAP3 SWAP2 POP POP JUMP JUMPDEST PUSH0 PUSH20 0xFFFFFFFFFFFFFFFFFFFFFFFFFFFFFFFFFFFFFFFF DUP3 AND SWAP1 POP SWAP2 SWAP1 POP JUMP JUMPDEST PUSH0 PUSH2 0x12AC DUP3 PUSH2 0x1283 JUMP JUMPDEST SWAP1 POP SWAP2 SWAP1 POP JUMP JUMPDEST PUSH2 0x12BC DUP2 PUSH2 0x12A2 JUMP JUMPDEST DUP2 EQ PUSH2 0x12C6 JUMPI PUSH0 DUP1 REVERT JUMPDEST POP JUMP JUMPDEST PUSH0 DUP2 CALLDATALOAD SWAP1 POP PUSH2 0x12D7 DUP2 PUSH2 0x12B3 JUMP JUMPDEST SWAP3 SWAP2 POP POP JUMP JUMPDEST PUSH0 DUP2 SWAP1 POP SWAP2 SWAP1 POP JUMP JUMPDEST PUSH2 0x12EF DUP2 PUSH2 0x12DD JUMP JUMPDEST DUP2 EQ PUSH2 0x12F9 JUMPI PUSH0 DUP1 REVERT JUMPDEST POP JUMP JUMPDEST PUSH0 DUP2 CALLDATALOAD SWAP1 POP PUSH2 0x130A DUP2 PUSH2 0x12E6 JUMP JUMPDEST SWAP3 SWAP2 POP POP JUMP JUMPDEST PUSH0 DUP1 PUSH1 0x40 DUP4 DUP6 SUB SLT ISZERO PUSH2 0x1326 JUMPI PUSH2 0x1325 PUSH2 0x113C JUMP JUMPDEST JUMPDEST PUSH0 PUSH2 0x1333 DUP6 DUP3 DUP7 ADD PUSH2 0x12C9 JUMP JUMPDEST SWAP3 POP POP PUSH1 0x20 PUSH2 0x1344 DUP6 DUP3 DUP7 ADD PUSH2 0x12FC JUMP JUMPDEST SWAP2 POP POP SWAP3 POP SWAP3 SWAP1 POP JUMP JUMPDEST PUSH2 0x1357 DUP2 PUSH2 0x12DD JUMP JUMPDEST DUP3 MSTORE POP POP JUMP JUMPDEST PUSH0 PUSH1 0x20 DUP3 ADD SWAP1 POP PUSH2 0x1370 PUSH0 DUP4 ADD DUP5 PUSH2 0x134E JUMP JUMPDEST SWAP3 SWAP2 POP POP JUMP JUMPDEST PUSH0 DUP1 PUSH0 PUSH1 0x60 DUP5 DUP7 SUB SLT ISZERO PUSH2 0x138D JUMPI PUSH2 0x138C PUSH2 0x113C JUMP JUMPDEST JUMPDEST PUSH0 PUSH2 0x139A DUP7 DUP3 DUP8 ADD PUSH2 0x12C9 JUMP JUMPDEST SWAP4 POP POP PUSH1 0x20 PUSH2 0x13AB DUP7 DUP3 DUP8 ADD PUSH2 0x12C9 JUMP JUMPDEST SWAP3 POP POP PUSH1 0x40 PUSH2 0x13BC DUP7 DUP3 DUP8 ADD PUSH2 0x12FC JUMP JUMPDEST SWAP2 POP POP SWAP3 POP SWAP3 POP SWAP3 JUMP JUMPDEST PUSH0 DUP2 SWAP1 POP SWAP2 SWAP1 POP JUMP JUMPDEST PUSH2 0x13D8 DUP2 PUSH2 0x13C6 JUMP JUMPDEST DUP2 EQ PUSH2 0x13E2 JUMPI PUSH0 DUP1 REVERT JUMPDEST POP JUMP JUMPDEST PUSH0 DUP2 CALLDATALOAD SWAP1 POP PUSH2 0x13F3 DUP2 PUSH2 0x13CF JUMP JUMPDEST SWAP3 SWAP2 POP POP JUMP JUMPDEST PUSH0 PUSH1 0x20 DUP3 DUP5 SUB SLT ISZERO PUSH2 0x140E JUMPI PUSH2 0x140D PUSH2 0x113C JUMP JUMPDEST JUMPDEST PUSH0 PUSH2 0x141B DUP5 DUP3 DUP6 ADD PUSH2 0x13E5 JUMP JUMPDEST SWAP2 POP POP SWAP3 SWAP2 POP POP JUMP JUMPDEST PUSH2 0x142D DUP2 PUSH2 0x13C6 JUMP JUMPDEST DUP3 MSTORE POP POP JUMP JUMPDEST PUSH0 PUSH1 0x20 DUP3 ADD SWAP1 POP PUSH2 0x1446 PUSH0 DUP4 ADD DUP5 PUSH2 0x1424 JUMP JUMPDEST SWAP3 SWAP2 POP POP JUMP JUMPDEST PUSH0 DUP1 PUSH1 0x40 DUP4 DUP6 SUB SLT ISZERO PUSH2 0x1462 JUMPI PUSH2 0x1461 PUSH2 0x113C JUMP JUMPDEST JUMPDEST PUSH0 PUSH2 0x146F DUP6 DUP3 DUP7 ADD PUSH2 0x13E5 JUMP JUMPDEST SWAP3 POP POP PUSH1 0x20 PUSH2 0x1480 DUP6 DUP3 DUP7 ADD PUSH2 0x12C9 JUMP JUMPDEST SWAP2 POP POP SWAP3 POP SWAP3 SWAP1 POP JUMP JUMPDEST PUSH0 PUSH1 0xFF DUP3 AND SWAP1 POP SWAP2 SWAP1 POP JUMP JUMPDEST PUSH2 0x149F DUP2 PUSH2 0x148A JUMP JUMPDEST DUP3 MSTORE POP POP JUMP JUMPDEST PUSH0 PUSH1 0x20 DUP3 ADD SWAP1 POP PUSH2 0x14B8 PUSH0 DUP4 ADD DUP5 PUSH2 0x1496 JUMP JUMPDEST SWAP3 SWAP2 POP POP JUMP JUMPDEST PUSH0 PUSH1 0x20 DUP3 DUP5 SUB SLT ISZERO PUSH2 0x14D3 JUMPI PUSH2 0x14D2 PUSH2 0x113C JUMP JUMPDEST JUMPDEST PUSH0 PUSH2 0x14E0 DUP5 DUP3 DUP6 ADD PUSH2 0x12C9 JUMP JUMPDEST SWAP2 POP POP SWAP3 SWAP2 POP POP JUMP JUMPDEST PUSH0 DUP1 PUSH1 0x40 DUP4 DUP6 SUB SLT ISZERO PUSH2 0x14FF JUMPI PUSH2 0x14FE PUSH2 0x113C JUMP JUMPDEST JUMPDEST PUSH0 PUSH2 0x150C DUP6 DUP3 DUP7 ADD PUSH2 0x12C9 JUMP JUMPDEST SWAP3 POP POP PUSH1 0x20 PUSH2 0x151D DUP6 DUP3 DUP7 ADD PUSH2 0x12C9 JUMP JUMPDEST SWAP2 POP POP SWAP3 POP SWAP3 SWAP1 POP JUMP JUMPDEST PUSH32 0x4E487B7100000000000000000000000000000000000000000000000000000000 PUSH0 MSTORE PUSH1 0x22 PUSH1 0x4 MSTORE PUSH1 0x24 PUSH0 REVERT JUMPDEST PUSH0 PUSH1 0x2 DUP3 DIV SWAP1 POP PUSH1 0x1 DUP3 AND DUP1 PUSH2 0x156B JUMPI PUSH1 0x7F DUP3 AND SWAP2 POP JUMPDEST PUSH1 0x20 DUP3 LT DUP2 SUB PUSH2 0x157E JUMPI PUSH2 0x157D PUSH2 0x1527 JUMP JUMPDEST JUMPDEST POP SWAP2 SWAP1 POP JUMP JUMPDEST PUSH2 0x158D DUP2 PUSH2 0x12A2 JUMP JUMPDEST DUP3 MSTORE POP POP JUMP JUMPDEST PUSH0 PUSH1 0x60 DUP3 ADD SWAP1 POP PUSH2 0x15A6 PUSH0 DUP4 ADD DUP7 PUSH2 0x1584 JUMP JUMPDEST PUSH2 0x15B3 PUSH1 0x20 DUP4 ADD DUP6 PUSH2 0x134E JUMP JUMPDEST PUSH2 0x15C0 PUSH1 0x40 DUP4 ADD DUP5 PUSH2 0x134E JUMP JUMPDEST SWAP5 SWAP4 POP POP POP POP JUMP JUMPDEST PUSH0 PUSH1 0x20 DUP3 ADD SWAP1 POP PUSH2 0x15DB PUSH0 DUP4 ADD DUP5 PUSH2 0x1584 JUMP JUMPDEST SWAP3 SWAP2 POP POP JUMP JUMPDEST PUSH32 0x4E487B7100000000000000000000000000000000000000000000000000000000 PUSH0 MSTORE PUSH1 0x11 PUSH1 0x4 MSTORE PUSH1 0x24 PUSH0 REVERT JUMPDEST PUSH0 PUSH2 0x1618 DUP3 PUSH2 0x12DD JUMP JUMPDEST SWAP2 POP PUSH2 0x1623 DUP4 PUSH2 0x12DD JUMP JUMPDEST SWAP3 POP DUP3 DUP3 ADD SWAP1 POP DUP1 DUP3 GT ISZERO PUSH2 0x163B JUMPI PUSH2 0x163A PUSH2 0x15E1 JUMP JUMPDEST JUMPDEST SWAP3 SWAP2 POP POP JUMP JUMPDEST PUSH0 PUSH1 0x40 DUP3 ADD SWAP1 POP PUSH2 0x1654 PUSH0 DUP4 ADD DUP6 PUSH2 0x1584 JUMP JUMPDEST PUSH2 0x1661 PUSH1 0x20 DUP4 ADD DUP5 PUSH2 0x1424 JUMP JUMPDEST SWAP4 SWAP3 POP POP POP JUMP INVALID LOG2 PUSH5 0x6970667358 0x22 SLT KECCAK256 BLOCKHASH DUP8 0xCB 0xC0 0x4C BLOBBASEFEE SSTORE DUP10 0x21 BYTE SWAP5 MCOPY 0xAA MSTORE SWAP11 0xAD 0xF9 PUSH20 0x3E073325D644237A287173155F9E64736F6C6343 STOP ADDMOD BYTE STOP CALLER "
		},
		"gasEstimates": {
			"creation": {
				"codeDepositCost": "1577400",
				"executionCost": "infinite",
				"totalCost": "infinite"
			},
			"external": {
				"addLiquidity(uint256,uint256)": "infinite",
				"constantk()": "2426",
				"liquiditytoken()": "infinite",
				"removeliquidity(uint256)": "infinite",
				"reserve1()": "2492",
				"reserve2()": "2425",
				"swapTokens(address,address,uint256,uint256)": "infinite",
				"token1()": "2571",
				"token2()": "2531"
			},
			"internal": {
				"_updateConstantFormula()": "infinite"
			}
		},
		"methodIdentifiers": {
			"addLiquidity(uint256,uint256)": "9cd441da",
			"constantk()": "182520e8",
			"liquiditytoken()": "37526016",
			"removeliquidity(uint256)": "d885b25c",
			"reserve1()": "5a76f25e",
			"reserve2()": "5c0b9a2b",
			"swapTokens(address,address,uint256,uint256)": "8e18cdfc",
			"token1()": "d21220a7",
			"token2()": "25be124e"
		}
	},
	"abi": [
		{
			"inputs": [
				{
					"internalType": "address",
					"name": "_token1",
					"type": "address"
				},
				{
					"internalType": "address",
					"name": "_token2",
					"type": "address"
				},
				{
					"internalType": "string",
					"name": "_liquidityTokenName",
					"type": "string"
				},
				{
					"internalType": "string",
					"name": "_liquidityTokenSymbol",
					"type": "string"
				}
			],
			"stateMutability": "nonpayable",
			"type": "constructor"
		},
		{
			"anonymous": false,
			"inputs": [
				{
					"indexed": true,
					"internalType": "address",
					"name": "sender",
					"type": "address"
				},
				{
					"indexed": false,
					"internalType": "uint256",
					"name": "amoutIn",
					"type": "uint256"
				},
				{
					"indexed": false,
					"internalType": "uint256",
					"name": "amountOut",
					"type": "uint256"
				},
				{
					"indexed": false,
					"internalType": "address",
					"name": "tokenIn",
					"type": "address"
				},
				{
					"indexed": false,
					"internalType": "address",
					"name": "tokenOut",
					"type": "address"
				}
			],
			"name": "Swap",
			"type": "event"
		},
		{
			"inputs": [
				{
					"internalType": "uint256",
					"name": "amountToken1",
					"type": "uint256"
				},
				{
					"internalType": "uint256",
					"name": "amountToken2",
					"type": "uint256"
				}
			],
			"name": "addLiquidity",
			"outputs": [],
			"stateMutability": "nonpayable",
			"type": "function"
		},
		{
			"inputs": [],
			"name": "constantk",
			"outputs": [
				{
					"internalType": "uint256",
					"name": "",
					"type": "uint256"
				}
			],
			"stateMutability": "view",
			"type": "function"
		},
		{
			"inputs": [],
			"name": "liquiditytoken",
			"outputs": [
				{
					"internalType": "contract DexLiquidityToken",
					"name": "",
					"type": "address"
				}
			],
			"stateMutability": "view",
			"type": "function"
		},
		{
			"inputs": [
				{
					"internalType": "uint256",
					"name": "amountOfLiquidity",
					"type": "uint256"
				}
			],
			"name": "removeliquidity",
			"outputs": [],
			"stateMutability": "nonpayable",
			"type": "function"
		},
		{
			"inputs": [],
			"name": "reserve1",
			"outputs": [
				{
					"internalType": "uint256",
					"name": "",
					"type": "uint256"
				}
			],
			"stateMutability": "view",
			"type": "function"
		},
		{
			"inputs": [],
			"name": "reserve2",
			"outputs": [
				{
					"internalType": "uint256",
					"name": "",
					"type": "uint256"
				}
			],
			"stateMutability": "view",
			"type": "function"
		},
		{
			"inputs": [
				{
					"internalType": "address",
					"name": "fromToken",
					"type": "address"
				},
				{
					"internalType": "address",
					"name": "toToken",
					"type": "address"
				},
				{
					"internalType": "uint256",
					"name": "amountIn",
					"type": "uint256"
				},
				{
					"internalType": "uint256",
					"name": "amountOut",
					"type": "uint256"
				}
			],
			"name": "swapTokens",
			"outputs": [],
			"stateMutability": "nonpayable",
			"type": "function"
		},
		{
			"inputs": [],
			"name": "token1",
			"outputs": [
				{
					"internalType": "address",
					"name": "",
					"type": "address"
				}
			],
			"stateMutability": "view",
			"type": "function"
		},
		{
			"inputs": [],
			"name": "token2",
			"outputs": [
				{
					"internalType": "address",
					"name": "",
					"type": "address"
				}
			],
			"stateMutability": "view",
			"type": "function"
		}
	]
}